{
	"contracts/dnssec-oracle/nsec3digests/SHA1NSEC3Digest.sol": {
		"SHA1NSEC3Digest": {
			"abi": [
				{
					"inputs": [
						{
							"internalType": "bytes",
							"name": "salt",
							"type": "bytes"
						},
						{
							"internalType": "bytes",
							"name": "data",
							"type": "bytes"
						},
						{
							"internalType": "uint256",
							"name": "iterations",
							"type": "uint256"
						}
					],
					"name": "hash",
					"outputs": [
						{
							"internalType": "bytes32",
							"name": "",
							"type": "bytes32"
						}
					],
					"stateMutability": "pure",
					"type": "function"
				}
			],
			"devdoc": {
				"details": "Implements the DNSSEC iterated SHA1 digest used for NSEC3 records.",
				"kind": "dev",
				"methods": {
					"hash(bytes,bytes,uint256)": {
						"details": "Performs an NSEC3 iterated hash.",
						"params": {
							"data": "The data to hash.",
							"iterations": "The number of iterations to perform.",
							"salt": "The salt value to use on each iteration."
						},
						"returns": {
							"_0": "The result of the iterated hash operation."
						}
					}
				},
				"version": 1
			},
			"evm": {
				"assembly": "    /* \"contracts/dnssec-oracle/nsec3digests/SHA1NSEC3Digest.sol\":183:882  contract SHA1NSEC3Digest is NSEC3Digest {... */\n  mstore(0x40, 0x80)\n  callvalue\n  dup1\n  iszero\n  tag_1\n  jumpi\n  0x00\n  dup1\n  revert\ntag_1:\n  pop\n  dataSize(sub_0)\n  dup1\n  dataOffset(sub_0)\n  0x00\n  codecopy\n  0x00\n  return\nstop\n\nsub_0: assembly {\n        /* \"contracts/dnssec-oracle/nsec3digests/SHA1NSEC3Digest.sol\":183:882  contract SHA1NSEC3Digest is NSEC3Digest {... */\n      mstore(0x40, 0x80)\n      callvalue\n      dup1\n      iszero\n      tag_1\n      jumpi\n      0x00\n      dup1\n      revert\n    tag_1:\n      pop\n      jumpi(tag_2, lt(calldatasize, 0x04))\n      shr(0xe0, calldataload(0x00))\n      dup1\n      0x68f9dab2\n      eq\n      tag_3\n      jumpi\n    tag_2:\n      0x00\n      dup1\n      revert\n        /* \"contracts/dnssec-oracle/nsec3digests/SHA1NSEC3Digest.sol\":266:880  function hash(bytes calldata salt, bytes calldata data, uint iterations) external override pure returns (bytes32) {... */\n    tag_3:\n      tag_4\n      0x04\n      dup1\n      calldatasize\n      sub\n      dup2\n      add\n      swap1\n      tag_5\n      swap2\n      swap1\n      tag_6\n      jump\t// in\n    tag_5:\n      tag_7\n      jump\t// in\n    tag_4:\n      mload(0x40)\n      tag_8\n      swap2\n      swap1\n      tag_9\n      jump\t// in\n    tag_8:\n      mload(0x40)\n      dup1\n      swap2\n      sub\n      swap1\n      return\n    tag_7:\n        /* \"contracts/dnssec-oracle/nsec3digests/SHA1NSEC3Digest.sol\":371:378  bytes32 */\n      0x00\n        /* \"contracts/dnssec-oracle/nsec3digests/SHA1NSEC3Digest.sol\":390:414  Buffer.buffer memory buf */\n      tag_11\n      tag_12\n      jump\t// in\n    tag_11:\n        /* \"contracts/dnssec-oracle/nsec3digests/SHA1NSEC3Digest.sol\":424:464  buf.init(salt.length + data.length + 16) */\n      tag_13\n        /* \"contracts/dnssec-oracle/nsec3digests/SHA1NSEC3Digest.sol\":461:463  16 */\n      0x10\n        /* \"contracts/dnssec-oracle/nsec3digests/SHA1NSEC3Digest.sol\":447:451  data */\n      dup7\n      dup7\n        /* \"contracts/dnssec-oracle/nsec3digests/SHA1NSEC3Digest.sol\":447:458  data.length */\n      swap1\n      pop\n        /* \"contracts/dnssec-oracle/nsec3digests/SHA1NSEC3Digest.sol\":433:437  salt */\n      dup10\n      dup10\n        /* \"contracts/dnssec-oracle/nsec3digests/SHA1NSEC3Digest.sol\":433:444  salt.length */\n      swap1\n      pop\n        /* \"contracts/dnssec-oracle/nsec3digests/SHA1NSEC3Digest.sol\":433:458  salt.length + data.length */\n      tag_14\n      swap2\n      swap1\n      tag_15\n      jump\t// in\n    tag_14:\n        /* \"contracts/dnssec-oracle/nsec3digests/SHA1NSEC3Digest.sol\":433:463  salt.length + data.length + 16 */\n      tag_16\n      swap2\n      swap1\n      tag_15\n      jump\t// in\n    tag_16:\n        /* \"contracts/dnssec-oracle/nsec3digests/SHA1NSEC3Digest.sol\":424:427  buf */\n      dup3\n        /* \"contracts/dnssec-oracle/nsec3digests/SHA1NSEC3Digest.sol\":424:432  buf.init */\n      tag_17\n      swap1\n        /* \"contracts/dnssec-oracle/nsec3digests/SHA1NSEC3Digest.sol\":424:464  buf.init(salt.length + data.length + 16) */\n      swap2\n      swap1\n      0xffffffff\n      and\n      jump\t// in\n    tag_13:\n      pop\n        /* \"contracts/dnssec-oracle/nsec3digests/SHA1NSEC3Digest.sol\":475:491  buf.append(data) */\n      tag_18\n        /* \"contracts/dnssec-oracle/nsec3digests/SHA1NSEC3Digest.sol\":486:490  data */\n      dup6\n      dup6\n        /* \"contracts/dnssec-oracle/nsec3digests/SHA1NSEC3Digest.sol\":475:491  buf.append(data) */\n      dup1\n      dup1\n      0x1f\n      add\n      0x20\n      dup1\n      swap2\n      div\n      mul\n      0x20\n      add\n      mload(0x40)\n      swap1\n      dup2\n      add\n      0x40\n      mstore\n      dup1\n      swap4\n      swap3\n      swap2\n      swap1\n      dup2\n      dup2\n      mstore\n      0x20\n      add\n      dup4\n      dup4\n      dup1\n      dup3\n      dup5\n      calldatacopy\n      0x00\n      dup2\n      dup5\n      add\n      mstore\n      not(0x1f)\n      0x1f\n      dup3\n      add\n      and\n      swap1\n      pop\n      dup1\n      dup4\n      add\n      swap3\n      pop\n      pop\n      pop\n      pop\n      pop\n      pop\n      pop\n        /* \"contracts/dnssec-oracle/nsec3digests/SHA1NSEC3Digest.sol\":475:478  buf */\n      dup3\n        /* \"contracts/dnssec-oracle/nsec3digests/SHA1NSEC3Digest.sol\":475:485  buf.append */\n      tag_19\n      swap1\n        /* \"contracts/dnssec-oracle/nsec3digests/SHA1NSEC3Digest.sol\":475:491  buf.append(data) */\n      swap2\n      swap1\n      0xffffffff\n      and\n      jump\t// in\n    tag_18:\n      pop\n        /* \"contracts/dnssec-oracle/nsec3digests/SHA1NSEC3Digest.sol\":501:517  buf.append(salt) */\n      tag_20\n        /* \"contracts/dnssec-oracle/nsec3digests/SHA1NSEC3Digest.sol\":512:516  salt */\n      dup8\n      dup8\n        /* \"contracts/dnssec-oracle/nsec3digests/SHA1NSEC3Digest.sol\":501:517  buf.append(salt) */\n      dup1\n      dup1\n      0x1f\n      add\n      0x20\n      dup1\n      swap2\n      div\n      mul\n      0x20\n      add\n      mload(0x40)\n      swap1\n      dup2\n      add\n      0x40\n      mstore\n      dup1\n      swap4\n      swap3\n      swap2\n      swap1\n      dup2\n      dup2\n      mstore\n      0x20\n      add\n      dup4\n      dup4\n      dup1\n      dup3\n      dup5\n      calldatacopy\n      0x00\n      dup2\n      dup5\n      add\n      mstore\n      not(0x1f)\n      0x1f\n      dup3\n      add\n      and\n      swap1\n      pop\n      dup1\n      dup4\n      add\n      swap3\n      pop\n      pop\n      pop\n      pop\n      pop\n      pop\n      pop\n        /* \"contracts/dnssec-oracle/nsec3digests/SHA1NSEC3Digest.sol\":501:504  buf */\n      dup3\n        /* \"contracts/dnssec-oracle/nsec3digests/SHA1NSEC3Digest.sol\":501:511  buf.append */\n      tag_19\n      swap1\n        /* \"contracts/dnssec-oracle/nsec3digests/SHA1NSEC3Digest.sol\":501:517  buf.append(salt) */\n      swap2\n      swap1\n      0xffffffff\n      and\n      jump\t// in\n    tag_20:\n      pop\n        /* \"contracts/dnssec-oracle/nsec3digests/SHA1NSEC3Digest.sol\":527:536  bytes20 h */\n      0x00\n        /* \"contracts/dnssec-oracle/nsec3digests/SHA1NSEC3Digest.sol\":539:557  SHA1.sha1(buf.buf) */\n      tag_21\n        /* \"contracts/dnssec-oracle/nsec3digests/SHA1NSEC3Digest.sol\":549:552  buf */\n      dup3\n        /* \"contracts/dnssec-oracle/nsec3digests/SHA1NSEC3Digest.sol\":549:556  buf.buf */\n      0x00\n      add\n      mload\n        /* \"contracts/dnssec-oracle/nsec3digests/SHA1NSEC3Digest.sol\":539:548  SHA1.sha1 */\n      tag_22\n        /* \"contracts/dnssec-oracle/nsec3digests/SHA1NSEC3Digest.sol\":539:557  SHA1.sha1(buf.buf) */\n      jump\t// in\n    tag_21:\n        /* \"contracts/dnssec-oracle/nsec3digests/SHA1NSEC3Digest.sol\":527:557  bytes20 h = SHA1.sha1(buf.buf) */\n      swap1\n      pop\n        /* \"contracts/dnssec-oracle/nsec3digests/SHA1NSEC3Digest.sol\":584:585  0 */\n      0x00\n        /* \"contracts/dnssec-oracle/nsec3digests/SHA1NSEC3Digest.sol\":571:581  iterations */\n      dup5\n        /* \"contracts/dnssec-oracle/nsec3digests/SHA1NSEC3Digest.sol\":571:585  iterations > 0 */\n      gt\n        /* \"contracts/dnssec-oracle/nsec3digests/SHA1NSEC3Digest.sol\":567:846  if (iterations > 0) {... */\n      iszero\n      tag_23\n      jumpi\n        /* \"contracts/dnssec-oracle/nsec3digests/SHA1NSEC3Digest.sol\":601:615  buf.truncate() */\n      tag_24\n        /* \"contracts/dnssec-oracle/nsec3digests/SHA1NSEC3Digest.sol\":601:604  buf */\n      dup3\n        /* \"contracts/dnssec-oracle/nsec3digests/SHA1NSEC3Digest.sol\":601:613  buf.truncate */\n      tag_25\n        /* \"contracts/dnssec-oracle/nsec3digests/SHA1NSEC3Digest.sol\":601:615  buf.truncate() */\n      jump\t// in\n    tag_24:\n      pop\n        /* \"contracts/dnssec-oracle/nsec3digests/SHA1NSEC3Digest.sol\":629:658  buf.appendBytes20(bytes20(0)) */\n      tag_26\n        /* \"contracts/dnssec-oracle/nsec3digests/SHA1NSEC3Digest.sol\":655:656  0 */\n      0x00\n        /* \"contracts/dnssec-oracle/nsec3digests/SHA1NSEC3Digest.sol\":647:657  bytes20(0) */\n      0x60\n      shl\n        /* \"contracts/dnssec-oracle/nsec3digests/SHA1NSEC3Digest.sol\":629:632  buf */\n      dup4\n        /* \"contracts/dnssec-oracle/nsec3digests/SHA1NSEC3Digest.sol\":629:646  buf.appendBytes20 */\n      tag_27\n      swap1\n        /* \"contracts/dnssec-oracle/nsec3digests/SHA1NSEC3Digest.sol\":629:658  buf.appendBytes20(bytes20(0)) */\n      swap2\n      swap1\n      0xffffffff\n      and\n      jump\t// in\n    tag_26:\n      pop\n        /* \"contracts/dnssec-oracle/nsec3digests/SHA1NSEC3Digest.sol\":672:688  buf.append(salt) */\n      tag_28\n        /* \"contracts/dnssec-oracle/nsec3digests/SHA1NSEC3Digest.sol\":683:687  salt */\n      dup9\n      dup9\n        /* \"contracts/dnssec-oracle/nsec3digests/SHA1NSEC3Digest.sol\":672:688  buf.append(salt) */\n      dup1\n      dup1\n      0x1f\n      add\n      0x20\n      dup1\n      swap2\n      div\n      mul\n      0x20\n      add\n      mload(0x40)\n      swap1\n      dup2\n      add\n      0x40\n      mstore\n      dup1\n      swap4\n      swap3\n      swap2\n      swap1\n      dup2\n      dup2\n      mstore\n      0x20\n      add\n      dup4\n      dup4\n      dup1\n      dup3\n      dup5\n      calldatacopy\n      0x00\n      dup2\n      dup5\n      add\n      mstore\n      not(0x1f)\n      0x1f\n      dup3\n      add\n      and\n      swap1\n      pop\n      dup1\n      dup4\n      add\n      swap3\n      pop\n      pop\n      pop\n      pop\n      pop\n      pop\n      pop\n        /* \"contracts/dnssec-oracle/nsec3digests/SHA1NSEC3Digest.sol\":672:675  buf */\n      dup4\n        /* \"contracts/dnssec-oracle/nsec3digests/SHA1NSEC3Digest.sol\":672:682  buf.append */\n      tag_19\n      swap1\n        /* \"contracts/dnssec-oracle/nsec3digests/SHA1NSEC3Digest.sol\":672:688  buf.append(salt) */\n      swap2\n      swap1\n      0xffffffff\n      and\n      jump\t// in\n    tag_28:\n      pop\n        /* \"contracts/dnssec-oracle/nsec3digests/SHA1NSEC3Digest.sol\":708:714  uint i */\n      0x00\n        /* \"contracts/dnssec-oracle/nsec3digests/SHA1NSEC3Digest.sol\":703:836  for (uint i = 0; i < iterations; i++) {... */\n    tag_29:\n        /* \"contracts/dnssec-oracle/nsec3digests/SHA1NSEC3Digest.sol\":724:734  iterations */\n      dup5\n        /* \"contracts/dnssec-oracle/nsec3digests/SHA1NSEC3Digest.sol\":720:721  i */\n      dup2\n        /* \"contracts/dnssec-oracle/nsec3digests/SHA1NSEC3Digest.sol\":720:734  i < iterations */\n      lt\n        /* \"contracts/dnssec-oracle/nsec3digests/SHA1NSEC3Digest.sol\":703:836  for (uint i = 0; i < iterations; i++) {... */\n      iszero\n      tag_30\n      jumpi\n        /* \"contracts/dnssec-oracle/nsec3digests/SHA1NSEC3Digest.sol\":759:781  buf.writeBytes20(0, h) */\n      tag_32\n        /* \"contracts/dnssec-oracle/nsec3digests/SHA1NSEC3Digest.sol\":776:777  0 */\n      0x00\n        /* \"contracts/dnssec-oracle/nsec3digests/SHA1NSEC3Digest.sol\":779:780  h */\n      dup4\n        /* \"contracts/dnssec-oracle/nsec3digests/SHA1NSEC3Digest.sol\":759:762  buf */\n      dup6\n        /* \"contracts/dnssec-oracle/nsec3digests/SHA1NSEC3Digest.sol\":759:775  buf.writeBytes20 */\n      tag_33\n      swap1\n        /* \"contracts/dnssec-oracle/nsec3digests/SHA1NSEC3Digest.sol\":759:781  buf.writeBytes20(0, h) */\n      swap3\n      swap2\n      swap1\n      0xffffffff\n      and\n      jump\t// in\n    tag_32:\n      pop\n        /* \"contracts/dnssec-oracle/nsec3digests/SHA1NSEC3Digest.sol\":803:821  SHA1.sha1(buf.buf) */\n      tag_34\n        /* \"contracts/dnssec-oracle/nsec3digests/SHA1NSEC3Digest.sol\":813:816  buf */\n      dup4\n        /* \"contracts/dnssec-oracle/nsec3digests/SHA1NSEC3Digest.sol\":813:820  buf.buf */\n      0x00\n      add\n      mload\n        /* \"contracts/dnssec-oracle/nsec3digests/SHA1NSEC3Digest.sol\":803:812  SHA1.sha1 */\n      tag_22\n        /* \"contracts/dnssec-oracle/nsec3digests/SHA1NSEC3Digest.sol\":803:821  SHA1.sha1(buf.buf) */\n      jump\t// in\n    tag_34:\n        /* \"contracts/dnssec-oracle/nsec3digests/SHA1NSEC3Digest.sol\":799:821  h = SHA1.sha1(buf.buf) */\n      swap2\n      pop\n        /* \"contracts/dnssec-oracle/nsec3digests/SHA1NSEC3Digest.sol\":736:739  i++ */\n      dup1\n      dup1\n      0x01\n      add\n      swap2\n      pop\n      pop\n        /* \"contracts/dnssec-oracle/nsec3digests/SHA1NSEC3Digest.sol\":703:836  for (uint i = 0; i < iterations; i++) {... */\n      jump(tag_29)\n    tag_30:\n      pop\n        /* \"contracts/dnssec-oracle/nsec3digests/SHA1NSEC3Digest.sol\":567:846  if (iterations > 0) {... */\n    tag_23:\n        /* \"contracts/dnssec-oracle/nsec3digests/SHA1NSEC3Digest.sol\":871:872  h */\n      dup1\n        /* \"contracts/dnssec-oracle/nsec3digests/SHA1NSEC3Digest.sol\":863:873  bytes32(h) */\n      not(0xffffffffffffffffffffffff)\n      and\n        /* \"contracts/dnssec-oracle/nsec3digests/SHA1NSEC3Digest.sol\":856:873  return bytes32(h) */\n      swap3\n      pop\n      pop\n      pop\n        /* \"contracts/dnssec-oracle/nsec3digests/SHA1NSEC3Digest.sol\":266:880  function hash(bytes calldata salt, bytes calldata data, uint iterations) external override pure returns (bytes32) {... */\n      swap6\n      swap5\n      pop\n      pop\n      pop\n      pop\n      pop\n      jump\t// out\n        /* \"contracts/Buffer.sol\":977:1432  function init(buffer memory buf, uint capacity) internal pure returns(buffer memory) {... */\n    tag_17:\n        /* \"contracts/Buffer.sol\":1047:1060  buffer memory */\n      tag_35\n      tag_12\n      jump\t// in\n    tag_35:\n        /* \"contracts/Buffer.sol\":1093:1094  0 */\n      0x00\n        /* \"contracts/Buffer.sol\":1087:1089  32 */\n      0x20\n        /* \"contracts/Buffer.sol\":1076:1084  capacity */\n      dup4\n        /* \"contracts/Buffer.sol\":1076:1089  capacity % 32 */\n      tag_37\n      swap2\n      swap1\n      tag_38\n      jump\t// in\n    tag_37:\n        /* \"contracts/Buffer.sol\":1076:1094  capacity % 32 != 0 */\n      eq\n        /* \"contracts/Buffer.sol\":1072:1153  if (capacity % 32 != 0) {... */\n      tag_39\n      jumpi\n        /* \"contracts/Buffer.sol\":1139:1141  32 */\n      0x20\n        /* \"contracts/Buffer.sol\":1128:1136  capacity */\n      dup3\n        /* \"contracts/Buffer.sol\":1128:1141  capacity % 32 */\n      tag_40\n      swap2\n      swap1\n      tag_38\n      jump\t// in\n    tag_40:\n        /* \"contracts/Buffer.sol\":1122:1124  32 */\n      0x20\n        /* \"contracts/Buffer.sol\":1122:1142  32 - (capacity % 32) */\n      tag_41\n      swap2\n      swap1\n      tag_42\n      jump\t// in\n    tag_41:\n        /* \"contracts/Buffer.sol\":1110:1142  capacity += 32 - (capacity % 32) */\n      dup3\n      tag_43\n      swap2\n      swap1\n      tag_15\n      jump\t// in\n    tag_43:\n      swap2\n      pop\n        /* \"contracts/Buffer.sol\":1072:1153  if (capacity % 32 != 0) {... */\n    tag_39:\n        /* \"contracts/Buffer.sol\":1223:1231  capacity */\n      dup2\n        /* \"contracts/Buffer.sol\":1208:1211  buf */\n      dup4\n        /* \"contracts/Buffer.sol\":1208:1220  buf.capacity */\n      0x20\n      add\n        /* \"contracts/Buffer.sol\":1208:1231  buf.capacity = capacity */\n      dup2\n      dup2\n      mstore\n      pop\n      pop\n        /* \"contracts/Buffer.sol\":1281:1285  0x40 */\n      0x40\n        /* \"contracts/Buffer.sol\":1275:1286  mload(0x40) */\n      mload\n        /* \"contracts/Buffer.sol\":1311:1314  ptr */\n      dup1\n        /* \"contracts/Buffer.sol\":1306:1309  buf */\n      dup5\n        /* \"contracts/Buffer.sol\":1299:1315  mstore(buf, ptr) */\n      mstore\n        /* \"contracts/Buffer.sol\":1340:1341  0 */\n      0x00\n        /* \"contracts/Buffer.sol\":1335:1338  ptr */\n      dup2\n        /* \"contracts/Buffer.sol\":1328:1342  mstore(ptr, 0) */\n      mstore\n        /* \"contracts/Buffer.sol\":1385:1393  capacity */\n      dup3\n        /* \"contracts/Buffer.sol\":1380:1383  ptr */\n      dup2\n        /* \"contracts/Buffer.sol\":1376:1394  add(ptr, capacity) */\n      add\n        /* \"contracts/Buffer.sol\":1372:1374  32 */\n      0x20\n        /* \"contracts/Buffer.sol\":1368:1395  add(32, add(ptr, capacity)) */\n      add\n        /* \"contracts/Buffer.sol\":1362:1366  0x40 */\n      0x40\n        /* \"contracts/Buffer.sol\":1355:1396  mstore(0x40, add(32, add(ptr, capacity))) */\n      mstore\n        /* \"contracts/Buffer.sol\":1250:1406  {... */\n      pop\n        /* \"contracts/Buffer.sol\":1422:1425  buf */\n      dup3\n        /* \"contracts/Buffer.sol\":1415:1425  return buf */\n      swap1\n      pop\n        /* \"contracts/Buffer.sol\":977:1432  function init(buffer memory buf, uint capacity) internal pure returns(buffer memory) {... */\n      swap3\n      swap2\n      pop\n      pop\n      jump\t// out\n        /* \"contracts/Buffer.sol\":5001:5162  function append(buffer memory buf, bytes memory data) internal pure returns (buffer memory) {... */\n    tag_19:\n        /* \"contracts/Buffer.sol\":5078:5091  buffer memory */\n      tag_44\n      tag_12\n      jump\t// in\n    tag_44:\n        /* \"contracts/Buffer.sol\":5110:5155  write(buf, buf.buf.length, data, data.length) */\n      tag_46\n        /* \"contracts/Buffer.sol\":5116:5119  buf */\n      dup4\n        /* \"contracts/Buffer.sol\":5121:5124  buf */\n      dup5\n        /* \"contracts/Buffer.sol\":5121:5128  buf.buf */\n      0x00\n      add\n      mload\n        /* \"contracts/Buffer.sol\":5121:5135  buf.buf.length */\n      mload\n        /* \"contracts/Buffer.sol\":5137:5141  data */\n      dup5\n        /* \"contracts/Buffer.sol\":5143:5147  data */\n      dup6\n        /* \"contracts/Buffer.sol\":5143:5154  data.length */\n      mload\n        /* \"contracts/Buffer.sol\":5110:5115  write */\n      tag_47\n        /* \"contracts/Buffer.sol\":5110:5155  write(buf, buf.buf.length, data, data.length) */\n      jump\t// in\n    tag_46:\n        /* \"contracts/Buffer.sol\":5103:5155  return write(buf, buf.buf.length, data, data.length) */\n      swap1\n      pop\n        /* \"contracts/Buffer.sol\":5001:5162  function append(buffer memory buf, bytes memory data) internal pure returns (buffer memory) {... */\n      swap3\n      swap2\n      pop\n      pop\n      jump\t// out\n        /* \"contracts/dnssec-oracle/SHA1.sol\":74:5735  function sha1(bytes memory data) internal pure returns(bytes20 ret) {... */\n    tag_22:\n        /* \"contracts/dnssec-oracle/SHA1.sol\":129:140  bytes20 ret */\n      0x00\n        /* \"contracts/dnssec-oracle/SHA1.sol\":239:243  0x40 */\n      0x40\n        /* \"contracts/dnssec-oracle/SHA1.sol\":233:244  mload(0x40) */\n      mload\n        /* \"contracts/dnssec-oracle/SHA1.sol\":344:348  data */\n      dup3\n        /* \"contracts/dnssec-oracle/SHA1.sol\":338:349  mload(data) */\n      mload\n        /* \"contracts/dnssec-oracle/SHA1.sol\":380:382  32 */\n      0x20\n        /* \"contracts/dnssec-oracle/SHA1.sol\":374:378  data */\n      dup5\n        /* \"contracts/dnssec-oracle/SHA1.sol\":370:383  add(data, 32) */\n      add\n        /* \"contracts/dnssec-oracle/SHA1.sol\":362:383  data := add(data, 32) */\n      swap4\n      pop\n        /* \"contracts/dnssec-oracle/SHA1.sol\":500:502  64 */\n      0x40\n        /* \"contracts/dnssec-oracle/SHA1.sol\":479:497  0xFFFFFFFFFFFFFFC0 */\n      0xffffffffffffffc0\n        /* \"contracts/dnssec-oracle/SHA1.sol\":475:476  1 */\n      0x01\n        /* \"contracts/dnssec-oracle/SHA1.sol\":470:473  len */\n      dup4\n        /* \"contracts/dnssec-oracle/SHA1.sol\":466:477  add(len, 1) */\n      add\n        /* \"contracts/dnssec-oracle/SHA1.sol\":462:498  and(add(len, 1), 0xFFFFFFFFFFFFFFC0) */\n      and\n        /* \"contracts/dnssec-oracle/SHA1.sol\":458:503  add(and(add(len, 1), 0xFFFFFFFFFFFFFFC0), 64) */\n      add\n        /* \"contracts/dnssec-oracle/SHA1.sol\":546:547  9 */\n      0x09\n        /* \"contracts/dnssec-oracle/SHA1.sol\":540:543  len */\n      dup3\n        /* \"contracts/dnssec-oracle/SHA1.sol\":530:538  totallen */\n      dup3\n        /* \"contracts/dnssec-oracle/SHA1.sol\":526:544  sub(totallen, len) */\n      sub\n        /* \"contracts/dnssec-oracle/SHA1.sol\":523:548  lt(sub(totallen, len), 9) */\n      lt\n        /* \"contracts/dnssec-oracle/SHA1.sol\":566:567  1 */\n      0x01\n        /* \"contracts/dnssec-oracle/SHA1.sol\":561:601  case 1 { totallen := add(totallen, 64) } */\n      dup2\n      sub\n        /* \"contracts/dnssec-oracle/SHA1.sol\":516:601  switch lt(sub(totallen, len), 9)... */\n      tag_50\n        /* \"contracts/dnssec-oracle/SHA1.sol\":561:601  case 1 { totallen := add(totallen, 64) } */\n      jumpi\n        /* \"contracts/dnssec-oracle/SHA1.sol\":596:598  64 */\n      0x40\n        /* \"contracts/dnssec-oracle/SHA1.sol\":586:594  totallen */\n      dup3\n        /* \"contracts/dnssec-oracle/SHA1.sol\":582:599  add(totallen, 64) */\n      add\n        /* \"contracts/dnssec-oracle/SHA1.sol\":570:599  totallen := add(totallen, 64) */\n      swap2\n      pop\n        /* \"contracts/dnssec-oracle/SHA1.sol\":516:601  switch lt(sub(totallen, len), 9)... */\n    tag_50:\n      pop\n        /* \"contracts/dnssec-oracle/SHA1.sol\":624:674  0x6745230100EFCDAB890098BADCFE001032547600C3D2E1F0 */\n      0x6745230100efcdab890098badcfe001032547600c3d2e1f0\n        /* \"contracts/dnssec-oracle/SHA1.sol\":688:1113  function readword(ptr, off, count) -> result {... */\n      jump(tag_52)\n    tag_49:\n        /* \"contracts/dnssec-oracle/SHA1.sol\":726:732  result */\n      0x00\n        /* \"contracts/dnssec-oracle/SHA1.sol\":790:795  count */\n      dup4\n        /* \"contracts/dnssec-oracle/SHA1.sol\":785:788  off */\n      dup4\n        /* \"contracts/dnssec-oracle/SHA1.sol\":782:796  lt(off, count) */\n      lt\n        /* \"contracts/dnssec-oracle/SHA1.sol\":779:1099  if lt(off, count) {... */\n      iszero\n      tag_54\n      jumpi\n        /* \"contracts/dnssec-oracle/SHA1.sol\":844:847  off */\n      dup3\n        /* \"contracts/dnssec-oracle/SHA1.sol\":839:842  ptr */\n      dup3\n        /* \"contracts/dnssec-oracle/SHA1.sol\":835:848  add(ptr, off) */\n      add\n        /* \"contracts/dnssec-oracle/SHA1.sol\":829:849  mload(add(ptr, off)) */\n      mload\n        /* \"contracts/dnssec-oracle/SHA1.sol\":819:849  result := mload(add(ptr, off)) */\n      swap1\n      pop\n        /* \"contracts/dnssec-oracle/SHA1.sol\":890:893  off */\n      dup3\n        /* \"contracts/dnssec-oracle/SHA1.sol\":883:888  count */\n      dup5\n        /* \"contracts/dnssec-oracle/SHA1.sol\":879:894  sub(count, off) */\n      sub\n        /* \"contracts/dnssec-oracle/SHA1.sol\":870:894  count := sub(count, off) */\n      swap4\n      pop\n        /* \"contracts/dnssec-oracle/SHA1.sol\":928:930  32 */\n      0x20\n        /* \"contracts/dnssec-oracle/SHA1.sol\":921:926  count */\n      dup5\n        /* \"contracts/dnssec-oracle/SHA1.sol\":918:931  lt(count, 32) */\n      lt\n        /* \"contracts/dnssec-oracle/SHA1.sol\":915:1081  if lt(count, 32) {... */\n      iszero\n      tag_55\n      jumpi\n        /* \"contracts/dnssec-oracle/SHA1.sol\":1004:1005  1 */\n      0x01\n        /* \"contracts/dnssec-oracle/SHA1.sol\":995:1000  count */\n      dup5\n        /* \"contracts/dnssec-oracle/SHA1.sol\":991:993  32 */\n      0x20\n        /* \"contracts/dnssec-oracle/SHA1.sol\":987:1001  sub(32, count) */\n      sub\n        /* \"contracts/dnssec-oracle/SHA1.sol\":982:985  256 */\n      0x0100\n        /* \"contracts/dnssec-oracle/SHA1.sol\":978:1002  exp(256, sub(32, count)) */\n      exp\n        /* \"contracts/dnssec-oracle/SHA1.sol\":974:1006  sub(exp(256, sub(32, count)), 1) */\n      sub\n        /* \"contracts/dnssec-oracle/SHA1.sol\":970:1007  not(sub(exp(256, sub(32, count)), 1)) */\n      not\n        /* \"contracts/dnssec-oracle/SHA1.sol\":1054:1058  mask */\n      dup1\n        /* \"contracts/dnssec-oracle/SHA1.sol\":1046:1052  result */\n      dup3\n        /* \"contracts/dnssec-oracle/SHA1.sol\":1042:1059  and(result, mask) */\n      and\n        /* \"contracts/dnssec-oracle/SHA1.sol\":1032:1059  result := and(result, mask) */\n      swap2\n      pop\n        /* \"contracts/dnssec-oracle/SHA1.sol\":932:1081  {... */\n      pop\n        /* \"contracts/dnssec-oracle/SHA1.sol\":915:1081  if lt(count, 32) {... */\n    tag_55:\n        /* \"contracts/dnssec-oracle/SHA1.sol\":779:1099  if lt(off, count) {... */\n    tag_54:\n        /* \"contracts/dnssec-oracle/SHA1.sol\":688:1113  function readword(ptr, off, count) -> result {... */\n      swap4\n      swap3\n      pop\n      pop\n      pop\n      jump\t// out\n    tag_52:\n        /* \"contracts/dnssec-oracle/SHA1.sol\":1142:1143  0 */\n      0x00\n        /* \"contracts/dnssec-oracle/SHA1.sol\":1127:5411  for { let i := 0 } lt(i, totallen) { i := add(i, 64) } {... */\n    tag_56:\n        /* \"contracts/dnssec-oracle/SHA1.sol\":1152:1160  totallen */\n      dup3\n        /* \"contracts/dnssec-oracle/SHA1.sol\":1149:1150  i */\n      dup2\n        /* \"contracts/dnssec-oracle/SHA1.sol\":1146:1161  lt(i, totallen) */\n      lt\n        /* \"contracts/dnssec-oracle/SHA1.sol\":1127:5411  for { let i := 0 } lt(i, totallen) { i := add(i, 64) } {... */\n      iszero\n      tag_58\n      jumpi\n        /* \"contracts/dnssec-oracle/SHA1.sol\":1216:1238  readword(data, i, len) */\n      tag_59\n        /* \"contracts/dnssec-oracle/SHA1.sol\":1234:1237  len */\n      dup5\n        /* \"contracts/dnssec-oracle/SHA1.sol\":1231:1232  i */\n      dup3\n        /* \"contracts/dnssec-oracle/SHA1.sol\":1225:1229  data */\n      dup10\n        /* \"contracts/dnssec-oracle/SHA1.sol\":1216:1238  readword(data, i, len) */\n      tag_49\n      jump\t// in\n    tag_59:\n        /* \"contracts/dnssec-oracle/SHA1.sol\":1207:1214  scratch */\n      dup6\n        /* \"contracts/dnssec-oracle/SHA1.sol\":1200:1239  mstore(scratch, readword(data, i, len)) */\n      mstore\n        /* \"contracts/dnssec-oracle/SHA1.sol\":1281:1312  readword(data, add(i, 32), len) */\n      tag_60\n        /* \"contracts/dnssec-oracle/SHA1.sol\":1308:1311  len */\n      dup5\n        /* \"contracts/dnssec-oracle/SHA1.sol\":1303:1305  32 */\n      0x20\n        /* \"contracts/dnssec-oracle/SHA1.sol\":1300:1301  i */\n      dup4\n        /* \"contracts/dnssec-oracle/SHA1.sol\":1296:1306  add(i, 32) */\n      add\n        /* \"contracts/dnssec-oracle/SHA1.sol\":1290:1294  data */\n      dup10\n        /* \"contracts/dnssec-oracle/SHA1.sol\":1281:1312  readword(data, add(i, 32), len) */\n      tag_49\n      jump\t// in\n    tag_60:\n        /* \"contracts/dnssec-oracle/SHA1.sol\":1276:1278  32 */\n      0x20\n        /* \"contracts/dnssec-oracle/SHA1.sol\":1267:1274  scratch */\n      dup7\n        /* \"contracts/dnssec-oracle/SHA1.sol\":1263:1279  add(scratch, 32) */\n      add\n        /* \"contracts/dnssec-oracle/SHA1.sol\":1256:1313  mstore(add(scratch, 32), readword(data, add(i, 32), len)) */\n      mstore\n        /* \"contracts/dnssec-oracle/SHA1.sol\":1427:1429  64 */\n      0x40\n        /* \"contracts/dnssec-oracle/SHA1.sol\":1423:1424  i */\n      dup2\n        /* \"contracts/dnssec-oracle/SHA1.sol\":1418:1421  len */\n      dup6\n        /* \"contracts/dnssec-oracle/SHA1.sol\":1414:1425  sub(len, i) */\n      sub\n        /* \"contracts/dnssec-oracle/SHA1.sol\":1411:1430  lt(sub(len, i), 64) */\n      lt\n        /* \"contracts/dnssec-oracle/SHA1.sol\":1452:1453  1 */\n      0x01\n        /* \"contracts/dnssec-oracle/SHA1.sol\":1447:1498  case 1 { mstore8(add(scratch, sub(len, i)), 0x80) } */\n      dup2\n      sub\n        /* \"contracts/dnssec-oracle/SHA1.sol\":1404:1498  switch lt(sub(len, i), 64)... */\n      tag_61\n        /* \"contracts/dnssec-oracle/SHA1.sol\":1447:1498  case 1 { mstore8(add(scratch, sub(len, i)), 0x80) } */\n      jumpi\n        /* \"contracts/dnssec-oracle/SHA1.sol\":1491:1495  0x80 */\n      0x80\n        /* \"contracts/dnssec-oracle/SHA1.sol\":1486:1487  i */\n      dup3\n        /* \"contracts/dnssec-oracle/SHA1.sol\":1481:1484  len */\n      dup7\n        /* \"contracts/dnssec-oracle/SHA1.sol\":1477:1488  sub(len, i) */\n      sub\n        /* \"contracts/dnssec-oracle/SHA1.sol\":1468:1475  scratch */\n      dup8\n        /* \"contracts/dnssec-oracle/SHA1.sol\":1464:1489  add(scratch, sub(len, i)) */\n      add\n        /* \"contracts/dnssec-oracle/SHA1.sol\":1456:1496  mstore8(add(scratch, sub(len, i)), 0x80) */\n      mstore8\n        /* \"contracts/dnssec-oracle/SHA1.sol\":1404:1498  switch lt(sub(len, i), 64)... */\n    tag_61:\n      pop\n        /* \"contracts/dnssec-oracle/SHA1.sol\":1606:1608  64 */\n      0x40\n        /* \"contracts/dnssec-oracle/SHA1.sol\":1596:1604  totallen */\n      dup4\n        /* \"contracts/dnssec-oracle/SHA1.sol\":1592:1609  sub(totallen, 64) */\n      sub\n        /* \"contracts/dnssec-oracle/SHA1.sol\":1589:1590  i */\n      dup2\n        /* \"contracts/dnssec-oracle/SHA1.sol\":1586:1610  eq(i, sub(totallen, 64)) */\n      eq\n        /* \"contracts/dnssec-oracle/SHA1.sol\":1632:1633  1 */\n      0x01\n        /* \"contracts/dnssec-oracle/SHA1.sol\":1627:1704  case 1 { mstore(add(scratch, 32), or(mload(add(scratch, 32)), mul(len, 8))) } */\n      dup2\n      sub\n        /* \"contracts/dnssec-oracle/SHA1.sol\":1579:1704  switch eq(i, sub(totallen, 64))... */\n      tag_63\n        /* \"contracts/dnssec-oracle/SHA1.sol\":1627:1704  case 1 { mstore(add(scratch, 32), or(mload(add(scratch, 32)), mul(len, 8))) } */\n      jumpi\n        /* \"contracts/dnssec-oracle/SHA1.sol\":1698:1699  8 */\n      0x08\n        /* \"contracts/dnssec-oracle/SHA1.sol\":1693:1696  len */\n      dup6\n        /* \"contracts/dnssec-oracle/SHA1.sol\":1689:1700  mul(len, 8) */\n      mul\n        /* \"contracts/dnssec-oracle/SHA1.sol\":1683:1685  32 */\n      0x20\n        /* \"contracts/dnssec-oracle/SHA1.sol\":1674:1681  scratch */\n      dup8\n        /* \"contracts/dnssec-oracle/SHA1.sol\":1670:1686  add(scratch, 32) */\n      add\n        /* \"contracts/dnssec-oracle/SHA1.sol\":1664:1687  mload(add(scratch, 32)) */\n      mload\n        /* \"contracts/dnssec-oracle/SHA1.sol\":1661:1701  or(mload(add(scratch, 32)), mul(len, 8)) */\n      or\n        /* \"contracts/dnssec-oracle/SHA1.sol\":1656:1658  32 */\n      0x20\n        /* \"contracts/dnssec-oracle/SHA1.sol\":1647:1654  scratch */\n      dup8\n        /* \"contracts/dnssec-oracle/SHA1.sol\":1643:1659  add(scratch, 32) */\n      add\n        /* \"contracts/dnssec-oracle/SHA1.sol\":1636:1702  mstore(add(scratch, 32), or(mload(add(scratch, 32)), mul(len, 8))) */\n      mstore\n        /* \"contracts/dnssec-oracle/SHA1.sol\":1579:1704  switch eq(i, sub(totallen, 64))... */\n    tag_63:\n      pop\n        /* \"contracts/dnssec-oracle/SHA1.sol\":1791:1793  64 */\n      0x40\n        /* \"contracts/dnssec-oracle/SHA1.sol\":1776:2288  for { let j := 64 } lt(j, 128) { j := add(j, 12) } {... */\n    tag_65:\n        /* \"contracts/dnssec-oracle/SHA1.sol\":1802:1805  128 */\n      0x80\n        /* \"contracts/dnssec-oracle/SHA1.sol\":1799:1800  j */\n      dup2\n        /* \"contracts/dnssec-oracle/SHA1.sol\":1796:1806  lt(j, 128) */\n      lt\n        /* \"contracts/dnssec-oracle/SHA1.sol\":1776:2288  for { let j := 64 } lt(j, 128) { j := add(j, 12) } {... */\n      iszero\n      tag_67\n      jumpi\n        /* \"contracts/dnssec-oracle/SHA1.sol\":1999:2001  64 */\n      0x40\n        /* \"contracts/dnssec-oracle/SHA1.sol\":1996:1997  j */\n      dup2\n        /* \"contracts/dnssec-oracle/SHA1.sol\":1992:2002  sub(j, 64) */\n      sub\n        /* \"contracts/dnssec-oracle/SHA1.sol\":1983:1990  scratch */\n      dup7\n        /* \"contracts/dnssec-oracle/SHA1.sol\":1979:2003  add(scratch, sub(j, 64)) */\n      add\n        /* \"contracts/dnssec-oracle/SHA1.sol\":1973:2004  mload(add(scratch, sub(j, 64))) */\n      mload\n        /* \"contracts/dnssec-oracle/SHA1.sol\":1966:1968  56 */\n      0x38\n        /* \"contracts/dnssec-oracle/SHA1.sol\":1963:1964  j */\n      dup3\n        /* \"contracts/dnssec-oracle/SHA1.sol\":1959:1969  sub(j, 56) */\n      sub\n        /* \"contracts/dnssec-oracle/SHA1.sol\":1950:1957  scratch */\n      dup8\n        /* \"contracts/dnssec-oracle/SHA1.sol\":1946:1970  add(scratch, sub(j, 56)) */\n      add\n        /* \"contracts/dnssec-oracle/SHA1.sol\":1940:1971  mload(add(scratch, sub(j, 56))) */\n      mload\n        /* \"contracts/dnssec-oracle/SHA1.sol\":1936:2005  xor(mload(add(scratch, sub(j, 56))), mload(add(scratch, sub(j, 64)))) */\n      xor\n        /* \"contracts/dnssec-oracle/SHA1.sol\":1928:1930  32 */\n      0x20\n        /* \"contracts/dnssec-oracle/SHA1.sol\":1925:1926  j */\n      dup3\n        /* \"contracts/dnssec-oracle/SHA1.sol\":1921:1931  sub(j, 32) */\n      sub\n        /* \"contracts/dnssec-oracle/SHA1.sol\":1912:1919  scratch */\n      dup8\n        /* \"contracts/dnssec-oracle/SHA1.sol\":1908:1932  add(scratch, sub(j, 32)) */\n      add\n        /* \"contracts/dnssec-oracle/SHA1.sol\":1902:1933  mload(add(scratch, sub(j, 32))) */\n      mload\n        /* \"contracts/dnssec-oracle/SHA1.sol\":1895:1897  12 */\n      0x0c\n        /* \"contracts/dnssec-oracle/SHA1.sol\":1892:1893  j */\n      dup4\n        /* \"contracts/dnssec-oracle/SHA1.sol\":1888:1898  sub(j, 12) */\n      sub\n        /* \"contracts/dnssec-oracle/SHA1.sol\":1879:1886  scratch */\n      dup9\n        /* \"contracts/dnssec-oracle/SHA1.sol\":1875:1899  add(scratch, sub(j, 12)) */\n      add\n        /* \"contracts/dnssec-oracle/SHA1.sol\":1869:1900  mload(add(scratch, sub(j, 12))) */\n      mload\n        /* \"contracts/dnssec-oracle/SHA1.sol\":1865:1934  xor(mload(add(scratch, sub(j, 12))), mload(add(scratch, sub(j, 32)))) */\n      xor\n        /* \"contracts/dnssec-oracle/SHA1.sol\":1861:2006  xor(xor(mload(add(scratch, sub(j, 12))), mload(add(scratch, sub(j, 32)))), xor(mload(add(scratch, sub(j, 56))), mload(add(scratch, sub(j, 64))))) */\n      xor\n        /* \"contracts/dnssec-oracle/SHA1.sol\":2152:2218  0x0000000100000001000000010000000100000001000000010000000100000001 */\n      0x0100000001000000010000000100000001000000010000000100000001\n        /* \"contracts/dnssec-oracle/SHA1.sol\":2139:2149  0x80000000 */\n      0x80000000\n        /* \"contracts/dnssec-oracle/SHA1.sol\":2133:2137  temp */\n      dup3\n        /* \"contracts/dnssec-oracle/SHA1.sol\":2129:2150  div(temp, 0x80000000) */\n      div\n        /* \"contracts/dnssec-oracle/SHA1.sol\":2125:2219  and(div(temp, 0x80000000), 0x0000000100000001000000010000000100000001000000010000000100000001) */\n      and\n        /* \"contracts/dnssec-oracle/SHA1.sol\":2056:2122  0xFFFFFFFEFFFFFFFEFFFFFFFEFFFFFFFEFFFFFFFEFFFFFFFEFFFFFFFEFFFFFFFE */\n      0xfffffffefffffffefffffffefffffffefffffffefffffffefffffffefffffffe\n        /* \"contracts/dnssec-oracle/SHA1.sol\":2052:2053  2 */\n      0x02\n        /* \"contracts/dnssec-oracle/SHA1.sol\":2046:2050  temp */\n      dup4\n        /* \"contracts/dnssec-oracle/SHA1.sol\":2042:2054  mul(temp, 2) */\n      mul\n        /* \"contracts/dnssec-oracle/SHA1.sol\":2038:2123  and(mul(temp, 2), 0xFFFFFFFEFFFFFFFEFFFFFFFEFFFFFFFEFFFFFFFEFFFFFFFEFFFFFFFEFFFFFFFE) */\n      and\n        /* \"contracts/dnssec-oracle/SHA1.sol\":2035:2220  or(and(mul(temp, 2), 0xFFFFFFFEFFFFFFFEFFFFFFFEFFFFFFFEFFFFFFFEFFFFFFFEFFFFFFFEFFFFFFFE), and(div(temp, 0x80000000), 0x0000000100000001000000010000000100000001000000010000000100000001)) */\n      or\n        /* \"contracts/dnssec-oracle/SHA1.sol\":2027:2220  temp := or(and(mul(temp, 2), 0xFFFFFFFEFFFFFFFEFFFFFFFEFFFFFFFEFFFFFFFEFFFFFFFEFFFFFFFEFFFFFFFE), and(div(temp, 0x80000000), 0x0000000100000001000000010000000100000001000000010000000100000001)) */\n      swap1\n      pop\n        /* \"contracts/dnssec-oracle/SHA1.sol\":2265:2269  temp */\n      dup1\n        /* \"contracts/dnssec-oracle/SHA1.sol\":2261:2262  j */\n      dup3\n        /* \"contracts/dnssec-oracle/SHA1.sol\":2252:2259  scratch */\n      dup9\n        /* \"contracts/dnssec-oracle/SHA1.sol\":2248:2263  add(scratch, j) */\n      add\n        /* \"contracts/dnssec-oracle/SHA1.sol\":2241:2270  mstore(add(scratch, j), temp) */\n      mstore\n        /* \"contracts/dnssec-oracle/SHA1.sol\":1827:2288  {... */\n      pop\n        /* \"contracts/dnssec-oracle/SHA1.sol\":1821:1823  12 */\n      0x0c\n        /* \"contracts/dnssec-oracle/SHA1.sol\":1818:1819  j */\n      dup2\n        /* \"contracts/dnssec-oracle/SHA1.sol\":1814:1824  add(j, 12) */\n      add\n        /* \"contracts/dnssec-oracle/SHA1.sol\":1809:1824  j := add(j, 12) */\n      swap1\n      pop\n        /* \"contracts/dnssec-oracle/SHA1.sol\":1776:2288  for { let j := 64 } lt(j, 128) { j := add(j, 12) } {... */\n      jump(tag_65)\n    tag_67:\n        /* \"contracts/dnssec-oracle/SHA1.sol\":1780:1795  { let j := 64 } */\n      pop\n        /* \"contracts/dnssec-oracle/SHA1.sol\":2320:2323  128 */\n      0x80\n        /* \"contracts/dnssec-oracle/SHA1.sol\":2305:2820  for { let j := 128 } lt(j, 320) { j := add(j, 24) } {... */\n    tag_68:\n        /* \"contracts/dnssec-oracle/SHA1.sol\":2332:2335  320 */\n      0x0140\n        /* \"contracts/dnssec-oracle/SHA1.sol\":2329:2330  j */\n      dup2\n        /* \"contracts/dnssec-oracle/SHA1.sol\":2326:2336  lt(j, 320) */\n      lt\n        /* \"contracts/dnssec-oracle/SHA1.sol\":2305:2820  for { let j := 128 } lt(j, 320) { j := add(j, 24) } {... */\n      iszero\n      tag_70\n      jumpi\n        /* \"contracts/dnssec-oracle/SHA1.sol\":2530:2533  128 */\n      0x80\n        /* \"contracts/dnssec-oracle/SHA1.sol\":2527:2528  j */\n      dup2\n        /* \"contracts/dnssec-oracle/SHA1.sol\":2523:2534  sub(j, 128) */\n      sub\n        /* \"contracts/dnssec-oracle/SHA1.sol\":2514:2521  scratch */\n      dup7\n        /* \"contracts/dnssec-oracle/SHA1.sol\":2510:2535  add(scratch, sub(j, 128)) */\n      add\n        /* \"contracts/dnssec-oracle/SHA1.sol\":2504:2536  mload(add(scratch, sub(j, 128))) */\n      mload\n        /* \"contracts/dnssec-oracle/SHA1.sol\":2496:2499  112 */\n      0x70\n        /* \"contracts/dnssec-oracle/SHA1.sol\":2493:2494  j */\n      dup3\n        /* \"contracts/dnssec-oracle/SHA1.sol\":2489:2500  sub(j, 112) */\n      sub\n        /* \"contracts/dnssec-oracle/SHA1.sol\":2480:2487  scratch */\n      dup8\n        /* \"contracts/dnssec-oracle/SHA1.sol\":2476:2501  add(scratch, sub(j, 112)) */\n      add\n        /* \"contracts/dnssec-oracle/SHA1.sol\":2470:2502  mload(add(scratch, sub(j, 112))) */\n      mload\n        /* \"contracts/dnssec-oracle/SHA1.sol\":2466:2537  xor(mload(add(scratch, sub(j, 112))), mload(add(scratch, sub(j, 128)))) */\n      xor\n        /* \"contracts/dnssec-oracle/SHA1.sol\":2458:2460  64 */\n      0x40\n        /* \"contracts/dnssec-oracle/SHA1.sol\":2455:2456  j */\n      dup3\n        /* \"contracts/dnssec-oracle/SHA1.sol\":2451:2461  sub(j, 64) */\n      sub\n        /* \"contracts/dnssec-oracle/SHA1.sol\":2442:2449  scratch */\n      dup8\n        /* \"contracts/dnssec-oracle/SHA1.sol\":2438:2462  add(scratch, sub(j, 64)) */\n      add\n        /* \"contracts/dnssec-oracle/SHA1.sol\":2432:2463  mload(add(scratch, sub(j, 64))) */\n      mload\n        /* \"contracts/dnssec-oracle/SHA1.sol\":2425:2427  24 */\n      0x18\n        /* \"contracts/dnssec-oracle/SHA1.sol\":2422:2423  j */\n      dup4\n        /* \"contracts/dnssec-oracle/SHA1.sol\":2418:2428  sub(j, 24) */\n      sub\n        /* \"contracts/dnssec-oracle/SHA1.sol\":2409:2416  scratch */\n      dup9\n        /* \"contracts/dnssec-oracle/SHA1.sol\":2405:2429  add(scratch, sub(j, 24)) */\n      add\n        /* \"contracts/dnssec-oracle/SHA1.sol\":2399:2430  mload(add(scratch, sub(j, 24))) */\n      mload\n        /* \"contracts/dnssec-oracle/SHA1.sol\":2395:2464  xor(mload(add(scratch, sub(j, 24))), mload(add(scratch, sub(j, 64)))) */\n      xor\n        /* \"contracts/dnssec-oracle/SHA1.sol\":2391:2538  xor(xor(mload(add(scratch, sub(j, 24))), mload(add(scratch, sub(j, 64)))), xor(mload(add(scratch, sub(j, 112))), mload(add(scratch, sub(j, 128))))) */\n      xor\n        /* \"contracts/dnssec-oracle/SHA1.sol\":2684:2750  0x0000000300000003000000030000000300000003000000030000000300000003 */\n      0x0300000003000000030000000300000003000000030000000300000003\n        /* \"contracts/dnssec-oracle/SHA1.sol\":2671:2681  0x40000000 */\n      0x40000000\n        /* \"contracts/dnssec-oracle/SHA1.sol\":2665:2669  temp */\n      dup3\n        /* \"contracts/dnssec-oracle/SHA1.sol\":2661:2682  div(temp, 0x40000000) */\n      div\n        /* \"contracts/dnssec-oracle/SHA1.sol\":2657:2751  and(div(temp, 0x40000000), 0x0000000300000003000000030000000300000003000000030000000300000003) */\n      and\n        /* \"contracts/dnssec-oracle/SHA1.sol\":2588:2654  0xFFFFFFFCFFFFFFFCFFFFFFFCFFFFFFFCFFFFFFFCFFFFFFFCFFFFFFFCFFFFFFFC */\n      0xfffffffcfffffffcfffffffcfffffffcfffffffcfffffffcfffffffcfffffffc\n        /* \"contracts/dnssec-oracle/SHA1.sol\":2584:2585  4 */\n      0x04\n        /* \"contracts/dnssec-oracle/SHA1.sol\":2578:2582  temp */\n      dup4\n        /* \"contracts/dnssec-oracle/SHA1.sol\":2574:2586  mul(temp, 4) */\n      mul\n        /* \"contracts/dnssec-oracle/SHA1.sol\":2570:2655  and(mul(temp, 4), 0xFFFFFFFCFFFFFFFCFFFFFFFCFFFFFFFCFFFFFFFCFFFFFFFCFFFFFFFCFFFFFFFC) */\n      and\n        /* \"contracts/dnssec-oracle/SHA1.sol\":2567:2752  or(and(mul(temp, 4), 0xFFFFFFFCFFFFFFFCFFFFFFFCFFFFFFFCFFFFFFFCFFFFFFFCFFFFFFFCFFFFFFFC), and(div(temp, 0x40000000), 0x0000000300000003000000030000000300000003000000030000000300000003)) */\n      or\n        /* \"contracts/dnssec-oracle/SHA1.sol\":2559:2752  temp := or(and(mul(temp, 4), 0xFFFFFFFCFFFFFFFCFFFFFFFCFFFFFFFCFFFFFFFCFFFFFFFCFFFFFFFCFFFFFFFC), and(div(temp, 0x40000000), 0x0000000300000003000000030000000300000003000000030000000300000003)) */\n      swap1\n      pop\n        /* \"contracts/dnssec-oracle/SHA1.sol\":2797:2801  temp */\n      dup1\n        /* \"contracts/dnssec-oracle/SHA1.sol\":2793:2794  j */\n      dup3\n        /* \"contracts/dnssec-oracle/SHA1.sol\":2784:2791  scratch */\n      dup9\n        /* \"contracts/dnssec-oracle/SHA1.sol\":2780:2795  add(scratch, j) */\n      add\n        /* \"contracts/dnssec-oracle/SHA1.sol\":2773:2802  mstore(add(scratch, j), temp) */\n      mstore\n        /* \"contracts/dnssec-oracle/SHA1.sol\":2357:2820  {... */\n      pop\n        /* \"contracts/dnssec-oracle/SHA1.sol\":2351:2353  24 */\n      0x18\n        /* \"contracts/dnssec-oracle/SHA1.sol\":2348:2349  j */\n      dup2\n        /* \"contracts/dnssec-oracle/SHA1.sol\":2344:2354  add(j, 24) */\n      add\n        /* \"contracts/dnssec-oracle/SHA1.sol\":2339:2354  j := add(j, 24) */\n      swap1\n      pop\n        /* \"contracts/dnssec-oracle/SHA1.sol\":2305:2820  for { let j := 128 } lt(j, 320) { j := add(j, 24) } {... */\n      jump(tag_68)\n    tag_70:\n        /* \"contracts/dnssec-oracle/SHA1.sol\":2309:2325  { let j := 128 } */\n      pop\n        /* \"contracts/dnssec-oracle/SHA1.sol\":2847:2848  h */\n      dup2\n        /* \"contracts/dnssec-oracle/SHA1.sol\":2874:2875  0 */\n      0x00\n        /* \"contracts/dnssec-oracle/SHA1.sol\":2901:2902  0 */\n      dup1\n        /* \"contracts/dnssec-oracle/SHA1.sol\":2934:2935  0 */\n      0x00\n        /* \"contracts/dnssec-oracle/SHA1.sol\":2919:5308  for { let j := 0 } lt(j, 80) { j := add(j, 1) } {... */\n    tag_71:\n        /* \"contracts/dnssec-oracle/SHA1.sol\":2944:2946  80 */\n      0x50\n        /* \"contracts/dnssec-oracle/SHA1.sol\":2941:2942  j */\n      dup2\n        /* \"contracts/dnssec-oracle/SHA1.sol\":2938:2947  lt(j, 80) */\n      lt\n        /* \"contracts/dnssec-oracle/SHA1.sol\":2919:5308  for { let j := 0 } lt(j, 80) { j := add(j, 1) } {... */\n      iszero\n      tag_73\n      jumpi\n        /* \"contracts/dnssec-oracle/SHA1.sol\":3003:3005  20 */\n      0x14\n        /* \"contracts/dnssec-oracle/SHA1.sol\":3000:3001  j */\n      dup2\n        /* \"contracts/dnssec-oracle/SHA1.sol\":2996:3006  div(j, 20) */\n      div\n        /* \"contracts/dnssec-oracle/SHA1.sol\":3032:3033  0 */\n      0x00\n        /* \"contracts/dnssec-oracle/SHA1.sol\":3027:3379  case 0 {... */\n      dup2\n      eq\n      tag_75\n      jumpi\n        /* \"contracts/dnssec-oracle/SHA1.sol\":3405:3406  1 */\n      0x01\n        /* \"contracts/dnssec-oracle/SHA1.sol\":3400:3682  case 1{... */\n      dup2\n      eq\n      tag_76\n      jumpi\n        /* \"contracts/dnssec-oracle/SHA1.sol\":3708:3709  2 */\n      0x02\n        /* \"contracts/dnssec-oracle/SHA1.sol\":3703:4117  case 2 {... */\n      dup2\n      eq\n      tag_77\n      jumpi\n        /* \"contracts/dnssec-oracle/SHA1.sol\":4143:4144  3 */\n      0x03\n        /* \"contracts/dnssec-oracle/SHA1.sol\":4138:4421  case 3 {... */\n      dup2\n      eq\n      tag_78\n      jumpi\n        /* \"contracts/dnssec-oracle/SHA1.sol\":2989:4421  switch div(j, 20)... */\n      jump(tag_74)\n        /* \"contracts/dnssec-oracle/SHA1.sol\":3027:3379  case 0 {... */\n    tag_75:\n        /* \"contracts/dnssec-oracle/SHA1.sol\":3164:3177  0x10000000000 */\n      0x010000000000\n        /* \"contracts/dnssec-oracle/SHA1.sol\":3161:3162  x */\n      dup6\n        /* \"contracts/dnssec-oracle/SHA1.sol\":3157:3178  div(x, 0x10000000000) */\n      div\n        /* \"contracts/dnssec-oracle/SHA1.sol\":3131:3154  0x100000000000000000000 */\n      0x0100000000000000000000\n        /* \"contracts/dnssec-oracle/SHA1.sol\":3128:3129  x */\n      dup7\n        /* \"contracts/dnssec-oracle/SHA1.sol\":3124:3155  div(x, 0x100000000000000000000) */\n      div\n        /* \"contracts/dnssec-oracle/SHA1.sol\":3120:3179  xor(div(x, 0x100000000000000000000), div(x, 0x10000000000)) */\n      xor\n        /* \"contracts/dnssec-oracle/SHA1.sol\":3115:3179  f := xor(div(x, 0x100000000000000000000), div(x, 0x10000000000)) */\n      swap4\n      pop\n        /* \"contracts/dnssec-oracle/SHA1.sol\":3256:3257  f */\n      dup4\n        /* \"contracts/dnssec-oracle/SHA1.sol\":3220:3253  0x1000000000000000000000000000000 */\n      0x01000000000000000000000000000000\n        /* \"contracts/dnssec-oracle/SHA1.sol\":3217:3218  x */\n      dup7\n        /* \"contracts/dnssec-oracle/SHA1.sol\":3213:3254  div(x, 0x1000000000000000000000000000000) */\n      div\n        /* \"contracts/dnssec-oracle/SHA1.sol\":3209:3258  and(div(x, 0x1000000000000000000000000000000), f) */\n      and\n        /* \"contracts/dnssec-oracle/SHA1.sol\":3204:3258  f := and(div(x, 0x1000000000000000000000000000000), f) */\n      swap4\n      pop\n        /* \"contracts/dnssec-oracle/SHA1.sol\":3315:3316  f */\n      dup4\n        /* \"contracts/dnssec-oracle/SHA1.sol\":3299:3312  0x10000000000 */\n      0x010000000000\n        /* \"contracts/dnssec-oracle/SHA1.sol\":3296:3297  x */\n      dup7\n        /* \"contracts/dnssec-oracle/SHA1.sol\":3292:3313  div(x, 0x10000000000) */\n      div\n        /* \"contracts/dnssec-oracle/SHA1.sol\":3288:3317  xor(div(x, 0x10000000000), f) */\n      xor\n        /* \"contracts/dnssec-oracle/SHA1.sol\":3283:3317  f := xor(div(x, 0x10000000000), f) */\n      swap4\n      pop\n        /* \"contracts/dnssec-oracle/SHA1.sol\":3347:3357  0x5A827999 */\n      0x5a827999\n        /* \"contracts/dnssec-oracle/SHA1.sol\":3342:3357  k := 0x5A827999 */\n      swap3\n      pop\n        /* \"contracts/dnssec-oracle/SHA1.sol\":3027:3379  case 0 {... */\n      jump(tag_74)\n        /* \"contracts/dnssec-oracle/SHA1.sol\":3400:3682  case 1{... */\n    tag_76:\n        /* \"contracts/dnssec-oracle/SHA1.sol\":3536:3559  0x100000000000000000000 */\n      0x0100000000000000000000\n        /* \"contracts/dnssec-oracle/SHA1.sol\":3533:3534  x */\n      dup6\n        /* \"contracts/dnssec-oracle/SHA1.sol\":3529:3560  div(x, 0x100000000000000000000) */\n      div\n        /* \"contracts/dnssec-oracle/SHA1.sol\":3493:3526  0x1000000000000000000000000000000 */\n      0x01000000000000000000000000000000\n        /* \"contracts/dnssec-oracle/SHA1.sol\":3490:3491  x */\n      dup7\n        /* \"contracts/dnssec-oracle/SHA1.sol\":3486:3527  div(x, 0x1000000000000000000000000000000) */\n      div\n        /* \"contracts/dnssec-oracle/SHA1.sol\":3482:3561  xor(div(x, 0x1000000000000000000000000000000), div(x, 0x100000000000000000000)) */\n      xor\n        /* \"contracts/dnssec-oracle/SHA1.sol\":3477:3561  f := xor(div(x, 0x1000000000000000000000000000000), div(x, 0x100000000000000000000)) */\n      swap4\n      pop\n        /* \"contracts/dnssec-oracle/SHA1.sol\":3618:3619  f */\n      dup4\n        /* \"contracts/dnssec-oracle/SHA1.sol\":3602:3615  0x10000000000 */\n      0x010000000000\n        /* \"contracts/dnssec-oracle/SHA1.sol\":3599:3600  x */\n      dup7\n        /* \"contracts/dnssec-oracle/SHA1.sol\":3595:3616  div(x, 0x10000000000) */\n      div\n        /* \"contracts/dnssec-oracle/SHA1.sol\":3591:3620  xor(div(x, 0x10000000000), f) */\n      xor\n        /* \"contracts/dnssec-oracle/SHA1.sol\":3586:3620  f := xor(div(x, 0x10000000000), f) */\n      swap4\n      pop\n        /* \"contracts/dnssec-oracle/SHA1.sol\":3650:3660  0x6ED9EBA1 */\n      0x6ed9eba1\n        /* \"contracts/dnssec-oracle/SHA1.sol\":3645:3660  k := 0x6ED9EBA1 */\n      swap3\n      pop\n        /* \"contracts/dnssec-oracle/SHA1.sol\":3400:3682  case 1{... */\n      jump(tag_74)\n        /* \"contracts/dnssec-oracle/SHA1.sol\":3703:4117  case 2 {... */\n    tag_77:\n        /* \"contracts/dnssec-oracle/SHA1.sol\":3855:3878  0x100000000000000000000 */\n      0x0100000000000000000000\n        /* \"contracts/dnssec-oracle/SHA1.sol\":3852:3853  x */\n      dup6\n        /* \"contracts/dnssec-oracle/SHA1.sol\":3848:3879  div(x, 0x100000000000000000000) */\n      div\n        /* \"contracts/dnssec-oracle/SHA1.sol\":3812:3845  0x1000000000000000000000000000000 */\n      0x01000000000000000000000000000000\n        /* \"contracts/dnssec-oracle/SHA1.sol\":3809:3810  x */\n      dup7\n        /* \"contracts/dnssec-oracle/SHA1.sol\":3805:3846  div(x, 0x1000000000000000000000000000000) */\n      div\n        /* \"contracts/dnssec-oracle/SHA1.sol\":3802:3880  or(div(x, 0x1000000000000000000000000000000), div(x, 0x100000000000000000000)) */\n      or\n        /* \"contracts/dnssec-oracle/SHA1.sol\":3797:3880  f := or(div(x, 0x1000000000000000000000000000000), div(x, 0x100000000000000000000)) */\n      swap4\n      pop\n        /* \"contracts/dnssec-oracle/SHA1.sol\":3937:3938  f */\n      dup4\n        /* \"contracts/dnssec-oracle/SHA1.sol\":3921:3934  0x10000000000 */\n      0x010000000000\n        /* \"contracts/dnssec-oracle/SHA1.sol\":3918:3919  x */\n      dup7\n        /* \"contracts/dnssec-oracle/SHA1.sol\":3914:3935  div(x, 0x10000000000) */\n      div\n        /* \"contracts/dnssec-oracle/SHA1.sol\":3910:3939  and(div(x, 0x10000000000), f) */\n      and\n        /* \"contracts/dnssec-oracle/SHA1.sol\":3905:3939  f := and(div(x, 0x10000000000), f) */\n      swap4\n      pop\n        /* \"contracts/dnssec-oracle/SHA1.sol\":4053:4054  f */\n      dup4\n        /* \"contracts/dnssec-oracle/SHA1.sol\":4026:4049  0x100000000000000000000 */\n      0x0100000000000000000000\n        /* \"contracts/dnssec-oracle/SHA1.sol\":4023:4024  x */\n      dup7\n        /* \"contracts/dnssec-oracle/SHA1.sol\":4019:4050  div(x, 0x100000000000000000000) */\n      div\n        /* \"contracts/dnssec-oracle/SHA1.sol\":3983:4016  0x1000000000000000000000000000000 */\n      0x01000000000000000000000000000000\n        /* \"contracts/dnssec-oracle/SHA1.sol\":3980:3981  x */\n      dup8\n        /* \"contracts/dnssec-oracle/SHA1.sol\":3976:4017  div(x, 0x1000000000000000000000000000000) */\n      div\n        /* \"contracts/dnssec-oracle/SHA1.sol\":3972:4051  and(div(x, 0x1000000000000000000000000000000), div(x, 0x100000000000000000000)) */\n      and\n        /* \"contracts/dnssec-oracle/SHA1.sol\":3969:4055  or(and(div(x, 0x1000000000000000000000000000000), div(x, 0x100000000000000000000)), f) */\n      or\n        /* \"contracts/dnssec-oracle/SHA1.sol\":3964:4055  f := or(and(div(x, 0x1000000000000000000000000000000), div(x, 0x100000000000000000000)), f) */\n      swap4\n      pop\n        /* \"contracts/dnssec-oracle/SHA1.sol\":4085:4095  0x8F1BBCDC */\n      0x8f1bbcdc\n        /* \"contracts/dnssec-oracle/SHA1.sol\":4080:4095  k := 0x8F1BBCDC */\n      swap3\n      pop\n        /* \"contracts/dnssec-oracle/SHA1.sol\":3703:4117  case 2 {... */\n      jump(tag_74)\n        /* \"contracts/dnssec-oracle/SHA1.sol\":4138:4421  case 3 {... */\n    tag_78:\n        /* \"contracts/dnssec-oracle/SHA1.sol\":4275:4298  0x100000000000000000000 */\n      0x0100000000000000000000\n        /* \"contracts/dnssec-oracle/SHA1.sol\":4272:4273  x */\n      dup6\n        /* \"contracts/dnssec-oracle/SHA1.sol\":4268:4299  div(x, 0x100000000000000000000) */\n      div\n        /* \"contracts/dnssec-oracle/SHA1.sol\":4232:4265  0x1000000000000000000000000000000 */\n      0x01000000000000000000000000000000\n        /* \"contracts/dnssec-oracle/SHA1.sol\":4229:4230  x */\n      dup7\n        /* \"contracts/dnssec-oracle/SHA1.sol\":4225:4266  div(x, 0x1000000000000000000000000000000) */\n      div\n        /* \"contracts/dnssec-oracle/SHA1.sol\":4221:4300  xor(div(x, 0x1000000000000000000000000000000), div(x, 0x100000000000000000000)) */\n      xor\n        /* \"contracts/dnssec-oracle/SHA1.sol\":4216:4300  f := xor(div(x, 0x1000000000000000000000000000000), div(x, 0x100000000000000000000)) */\n      swap4\n      pop\n        /* \"contracts/dnssec-oracle/SHA1.sol\":4357:4358  f */\n      dup4\n        /* \"contracts/dnssec-oracle/SHA1.sol\":4341:4354  0x10000000000 */\n      0x010000000000\n        /* \"contracts/dnssec-oracle/SHA1.sol\":4338:4339  x */\n      dup7\n        /* \"contracts/dnssec-oracle/SHA1.sol\":4334:4355  div(x, 0x10000000000) */\n      div\n        /* \"contracts/dnssec-oracle/SHA1.sol\":4330:4359  xor(div(x, 0x10000000000), f) */\n      xor\n        /* \"contracts/dnssec-oracle/SHA1.sol\":4325:4359  f := xor(div(x, 0x10000000000), f) */\n      swap4\n      pop\n        /* \"contracts/dnssec-oracle/SHA1.sol\":4389:4399  0xCA62C1D6 */\n      0xca62c1d6\n        /* \"contracts/dnssec-oracle/SHA1.sol\":4384:4399  k := 0xCA62C1D6 */\n      swap3\n      pop\n        /* \"contracts/dnssec-oracle/SHA1.sol\":2989:4421  switch div(j, 20)... */\n    tag_74:\n      pop\n        /* \"contracts/dnssec-oracle/SHA1.sol\":4583:4587  0x1F */\n      0x1f\n        /* \"contracts/dnssec-oracle/SHA1.sol\":4531:4580  0x80000000000000000000000000000000000000000000000 */\n      0x080000000000000000000000000000000000000000000000\n        /* \"contracts/dnssec-oracle/SHA1.sol\":4528:4529  x */\n      dup6\n        /* \"contracts/dnssec-oracle/SHA1.sol\":4524:4581  div(x, 0x80000000000000000000000000000000000000000000000) */\n      div\n        /* \"contracts/dnssec-oracle/SHA1.sol\":4520:4588  and(div(x, 0x80000000000000000000000000000000000000000000000), 0x1F) */\n      and\n        /* \"contracts/dnssec-oracle/SHA1.sol\":4688:4692  temp */\n      dup1\n        /* \"contracts/dnssec-oracle/SHA1.sol\":4675:4685  0xFFFFFFE0 */\n      0xffffffe0\n        /* \"contracts/dnssec-oracle/SHA1.sol\":4631:4672  0x800000000000000000000000000000000000000 */\n      0x0800000000000000000000000000000000000000\n        /* \"contracts/dnssec-oracle/SHA1.sol\":4628:4629  x */\n      dup8\n        /* \"contracts/dnssec-oracle/SHA1.sol\":4624:4673  div(x, 0x800000000000000000000000000000000000000) */\n      div\n        /* \"contracts/dnssec-oracle/SHA1.sol\":4620:4686  and(div(x, 0x800000000000000000000000000000000000000), 0xFFFFFFE0) */\n      and\n        /* \"contracts/dnssec-oracle/SHA1.sol\":4617:4693  or(and(div(x, 0x800000000000000000000000000000000000000), 0xFFFFFFE0), temp) */\n      or\n        /* \"contracts/dnssec-oracle/SHA1.sol\":4609:4693  temp := or(and(div(x, 0x800000000000000000000000000000000000000), 0xFFFFFFE0), temp) */\n      swap1\n      pop\n        /* \"contracts/dnssec-oracle/SHA1.sol\":4729:4733  temp */\n      dup1\n        /* \"contracts/dnssec-oracle/SHA1.sol\":4726:4727  f */\n      dup5\n        /* \"contracts/dnssec-oracle/SHA1.sol\":4722:4734  add(f, temp) */\n      add\n        /* \"contracts/dnssec-oracle/SHA1.sol\":4714:4734  temp := add(f, temp) */\n      swap1\n      pop\n        /* \"contracts/dnssec-oracle/SHA1.sol\":4787:4791  temp */\n      dup1\n        /* \"contracts/dnssec-oracle/SHA1.sol\":4774:4784  0xFFFFFFFF */\n      0xffffffff\n        /* \"contracts/dnssec-oracle/SHA1.sol\":4771:4772  x */\n      dup7\n        /* \"contracts/dnssec-oracle/SHA1.sol\":4767:4785  and(x, 0xFFFFFFFF) */\n      and\n        /* \"contracts/dnssec-oracle/SHA1.sol\":4763:4792  add(and(x, 0xFFFFFFFF), temp) */\n      add\n        /* \"contracts/dnssec-oracle/SHA1.sol\":4755:4792  temp := add(and(x, 0xFFFFFFFF), temp) */\n      swap1\n      pop\n        /* \"contracts/dnssec-oracle/SHA1.sol\":4828:4832  temp */\n      dup1\n        /* \"contracts/dnssec-oracle/SHA1.sol\":4825:4826  k */\n      dup4\n        /* \"contracts/dnssec-oracle/SHA1.sol\":4821:4833  add(k, temp) */\n      add\n        /* \"contracts/dnssec-oracle/SHA1.sol\":4813:4833  temp := add(k, temp) */\n      swap1\n      pop\n        /* \"contracts/dnssec-oracle/SHA1.sol\":4964:4968  temp */\n      dup1\n        /* \"contracts/dnssec-oracle/SHA1.sol\":4902:4961  0x100000000000000000000000000000000000000000000000000000000 */\n      0x0100000000000000000000000000000000000000000000000000000000\n        /* \"contracts/dnssec-oracle/SHA1.sol\":4896:4897  4 */\n      0x04\n        /* \"contracts/dnssec-oracle/SHA1.sol\":4893:4894  j */\n      dup5\n        /* \"contracts/dnssec-oracle/SHA1.sol\":4889:4898  mul(j, 4) */\n      mul\n        /* \"contracts/dnssec-oracle/SHA1.sol\":4880:4887  scratch */\n      dup13\n        /* \"contracts/dnssec-oracle/SHA1.sol\":4876:4899  add(scratch, mul(j, 4)) */\n      add\n        /* \"contracts/dnssec-oracle/SHA1.sol\":4870:4900  mload(add(scratch, mul(j, 4))) */\n      mload\n        /* \"contracts/dnssec-oracle/SHA1.sol\":4866:4962  div(mload(add(scratch, mul(j, 4))), 0x100000000000000000000000000000000000000000000000000000000) */\n      div\n        /* \"contracts/dnssec-oracle/SHA1.sol\":4862:4969  add(div(mload(add(scratch, mul(j, 4))), 0x100000000000000000000000000000000000000000000000000000000), temp) */\n      add\n        /* \"contracts/dnssec-oracle/SHA1.sol\":4854:4969  temp := add(div(mload(add(scratch, mul(j, 4))), 0x100000000000000000000000000000000000000000000000000000000), temp) */\n      swap1\n      pop\n        /* \"contracts/dnssec-oracle/SHA1.sol\":5031:5074  0x10000000000000000000000000000000000000000 */\n      0x010000000000000000000000000000000000000000\n        /* \"contracts/dnssec-oracle/SHA1.sol\":5025:5029  temp */\n      dup2\n        /* \"contracts/dnssec-oracle/SHA1.sol\":5021:5075  mul(temp, 0x10000000000000000000000000000000000000000) */\n      mul\n        /* \"contracts/dnssec-oracle/SHA1.sol\":5005:5018  0x10000000000 */\n      0x010000000000\n        /* \"contracts/dnssec-oracle/SHA1.sol\":5002:5003  x */\n      dup7\n        /* \"contracts/dnssec-oracle/SHA1.sol\":4998:5019  div(x, 0x10000000000) */\n      div\n        /* \"contracts/dnssec-oracle/SHA1.sol\":4995:5076  or(div(x, 0x10000000000), mul(temp, 0x10000000000000000000000000000000000000000)) */\n      or\n        /* \"contracts/dnssec-oracle/SHA1.sol\":4990:5076  x := or(div(x, 0x10000000000), mul(temp, 0x10000000000000000000000000000000000000000)) */\n      swap5\n      pop\n        /* \"contracts/dnssec-oracle/SHA1.sol\":5265:5288  0x100000000000000000000 */\n      0x0100000000000000000000\n        /* \"contracts/dnssec-oracle/SHA1.sol\":5251:5261  0x3FFFFFFF */\n      0x3fffffff\n        /* \"contracts/dnssec-oracle/SHA1.sol\":5225:5248  0x400000000000000000000 */\n      0x0400000000000000000000\n        /* \"contracts/dnssec-oracle/SHA1.sol\":5222:5223  x */\n      dup8\n        /* \"contracts/dnssec-oracle/SHA1.sol\":5218:5249  div(x, 0x400000000000000000000) */\n      div\n        /* \"contracts/dnssec-oracle/SHA1.sol\":5214:5262  and(div(x, 0x400000000000000000000), 0x3FFFFFFF) */\n      and\n        /* \"contracts/dnssec-oracle/SHA1.sol\":5201:5211  0xC0000000 */\n      0xc0000000\n        /* \"contracts/dnssec-oracle/SHA1.sol\":5183:5198  0x4000000000000 */\n      0x04000000000000\n        /* \"contracts/dnssec-oracle/SHA1.sol\":5180:5181  x */\n      dup9\n        /* \"contracts/dnssec-oracle/SHA1.sol\":5176:5199  div(x, 0x4000000000000) */\n      div\n        /* \"contracts/dnssec-oracle/SHA1.sol\":5172:5212  and(div(x, 0x4000000000000), 0xC0000000) */\n      and\n        /* \"contracts/dnssec-oracle/SHA1.sol\":5169:5263  or(and(div(x, 0x4000000000000), 0xC0000000), and(div(x, 0x400000000000000000000), 0x3FFFFFFF)) */\n      or\n        /* \"contracts/dnssec-oracle/SHA1.sol\":5165:5289  mul(or(and(div(x, 0x4000000000000), 0xC0000000), and(div(x, 0x400000000000000000000), 0x3FFFFFFF)), 0x100000000000000000000) */\n      mul\n        /* \"contracts/dnssec-oracle/SHA1.sol\":5112:5162  0xFFFFFFFF00FFFFFFFF000000000000FFFFFFFF00FFFFFFFF */\n      0xffffffff00ffffffff000000000000ffffffff00ffffffff\n        /* \"contracts/dnssec-oracle/SHA1.sol\":5109:5110  x */\n      dup7\n        /* \"contracts/dnssec-oracle/SHA1.sol\":5105:5163  and(x, 0xFFFFFFFF00FFFFFFFF000000000000FFFFFFFF00FFFFFFFF) */\n      and\n        /* \"contracts/dnssec-oracle/SHA1.sol\":5102:5290  or(and(x, 0xFFFFFFFF00FFFFFFFF000000000000FFFFFFFF00FFFFFFFF), mul(or(and(div(x, 0x4000000000000), 0xC0000000), and(div(x, 0x400000000000000000000), 0x3FFFFFFF)), 0x100000000000000000000)) */\n      or\n        /* \"contracts/dnssec-oracle/SHA1.sol\":5097:5290  x := or(and(x, 0xFFFFFFFF00FFFFFFFF000000000000FFFFFFFF00FFFFFFFF), mul(or(and(div(x, 0x4000000000000), 0xC0000000), and(div(x, 0x400000000000000000000), 0x3FFFFFFF)), 0x100000000000000000000)) */\n      swap5\n      pop\n        /* \"contracts/dnssec-oracle/SHA1.sol\":2967:5308  {... */\n      pop\n        /* \"contracts/dnssec-oracle/SHA1.sol\":2962:2963  1 */\n      0x01\n        /* \"contracts/dnssec-oracle/SHA1.sol\":2959:2960  j */\n      dup2\n        /* \"contracts/dnssec-oracle/SHA1.sol\":2955:2964  add(j, 1) */\n      add\n        /* \"contracts/dnssec-oracle/SHA1.sol\":2950:2964  j := add(j, 1) */\n      swap1\n      pop\n        /* \"contracts/dnssec-oracle/SHA1.sol\":2919:5308  for { let j := 0 } lt(j, 80) { j := add(j, 1) } {... */\n      jump(tag_71)\n    tag_73:\n        /* \"contracts/dnssec-oracle/SHA1.sol\":2923:2937  { let j := 0 } */\n      pop\n        /* \"contracts/dnssec-oracle/SHA1.sol\":5346:5396  0xFFFFFFFF00FFFFFFFF00FFFFFFFF00FFFFFFFF00FFFFFFFF */\n      0xffffffff00ffffffff00ffffffff00ffffffff00ffffffff\n        /* \"contracts/dnssec-oracle/SHA1.sol\":5342:5343  x */\n      dup4\n        /* \"contracts/dnssec-oracle/SHA1.sol\":5339:5340  h */\n      dup7\n        /* \"contracts/dnssec-oracle/SHA1.sol\":5335:5344  add(h, x) */\n      add\n        /* \"contracts/dnssec-oracle/SHA1.sol\":5331:5397  and(add(h, x), 0xFFFFFFFF00FFFFFFFF00FFFFFFFF00FFFFFFFF00FFFFFFFF) */\n      and\n        /* \"contracts/dnssec-oracle/SHA1.sol\":5326:5397  h := and(add(h, x), 0xFFFFFFFF00FFFFFFFF00FFFFFFFF00FFFFFFFF00FFFFFFFF) */\n      swap5\n      pop\n        /* \"contracts/dnssec-oracle/SHA1.sol\":1182:5411  {... */\n      pop\n      pop\n      pop\n        /* \"contracts/dnssec-oracle/SHA1.sol\":1176:1178  64 */\n      0x40\n        /* \"contracts/dnssec-oracle/SHA1.sol\":1173:1174  i */\n      dup2\n        /* \"contracts/dnssec-oracle/SHA1.sol\":1169:1179  add(i, 64) */\n      add\n        /* \"contracts/dnssec-oracle/SHA1.sol\":1164:1179  i := add(i, 64) */\n      swap1\n      pop\n        /* \"contracts/dnssec-oracle/SHA1.sol\":1127:5411  for { let i := 0 } lt(i, totallen) { i := add(i, 64) } {... */\n      jump(tag_56)\n    tag_58:\n        /* \"contracts/dnssec-oracle/SHA1.sol\":1131:1145  { let i := 0 } */\n      pop\n        /* \"contracts/dnssec-oracle/SHA1.sol\":5691:5718  0x1000000000000000000000000 */\n      0x01000000000000000000000000\n        /* \"contracts/dnssec-oracle/SHA1.sol\":5677:5687  0xFFFFFFFF */\n      0xffffffff\n        /* \"contracts/dnssec-oracle/SHA1.sol\":5674:5675  h */\n      dup3\n        /* \"contracts/dnssec-oracle/SHA1.sol\":5670:5688  and(h, 0xFFFFFFFF) */\n      and\n        /* \"contracts/dnssec-oracle/SHA1.sol\":5648:5666  0xFFFFFFFF00000000 */\n      0xffffffff00000000\n        /* \"contracts/dnssec-oracle/SHA1.sol\":5640:5645  0x100 */\n      0x0100\n        /* \"contracts/dnssec-oracle/SHA1.sol\":5637:5638  h */\n      dup5\n        /* \"contracts/dnssec-oracle/SHA1.sol\":5633:5646  div(h, 0x100) */\n      div\n        /* \"contracts/dnssec-oracle/SHA1.sol\":5629:5667  and(div(h, 0x100), 0xFFFFFFFF00000000) */\n      and\n        /* \"contracts/dnssec-oracle/SHA1.sol\":5599:5625  0xFFFFFFFF0000000000000000 */\n      0xffffffff0000000000000000\n        /* \"contracts/dnssec-oracle/SHA1.sol\":5589:5596  0x10000 */\n      0x010000\n        /* \"contracts/dnssec-oracle/SHA1.sol\":5586:5587  h */\n      dup6\n        /* \"contracts/dnssec-oracle/SHA1.sol\":5582:5597  div(h, 0x10000) */\n      div\n        /* \"contracts/dnssec-oracle/SHA1.sol\":5578:5626  and(div(h, 0x10000), 0xFFFFFFFF0000000000000000) */\n      and\n        /* \"contracts/dnssec-oracle/SHA1.sol\":5540:5574  0xFFFFFFFF000000000000000000000000 */\n      0xffffffff000000000000000000000000\n        /* \"contracts/dnssec-oracle/SHA1.sol\":5528:5537  0x1000000 */\n      0x01000000\n        /* \"contracts/dnssec-oracle/SHA1.sol\":5525:5526  h */\n      dup7\n        /* \"contracts/dnssec-oracle/SHA1.sol\":5521:5538  div(h, 0x1000000) */\n      div\n        /* \"contracts/dnssec-oracle/SHA1.sol\":5517:5575  and(div(h, 0x1000000), 0xFFFFFFFF000000000000000000000000) */\n      and\n        /* \"contracts/dnssec-oracle/SHA1.sol\":5472:5514  0xFFFFFFFF00000000000000000000000000000000 */\n      0xffffffff00000000000000000000000000000000\n        /* \"contracts/dnssec-oracle/SHA1.sol\":5458:5469  0x100000000 */\n      0x0100000000\n        /* \"contracts/dnssec-oracle/SHA1.sol\":5455:5456  h */\n      dup8\n        /* \"contracts/dnssec-oracle/SHA1.sol\":5451:5470  div(h, 0x100000000) */\n      div\n        /* \"contracts/dnssec-oracle/SHA1.sol\":5447:5515  and(div(h, 0x100000000), 0xFFFFFFFF00000000000000000000000000000000) */\n      and\n        /* \"contracts/dnssec-oracle/SHA1.sol\":5444:5576  or(and(div(h, 0x100000000), 0xFFFFFFFF00000000000000000000000000000000), and(div(h, 0x1000000), 0xFFFFFFFF000000000000000000000000)) */\n      or\n        /* \"contracts/dnssec-oracle/SHA1.sol\":5441:5627  or(or(and(div(h, 0x100000000), 0xFFFFFFFF00000000000000000000000000000000), and(div(h, 0x1000000), 0xFFFFFFFF000000000000000000000000)), and(div(h, 0x10000), 0xFFFFFFFF0000000000000000)) */\n      or\n        /* \"contracts/dnssec-oracle/SHA1.sol\":5438:5668  or(or(or(and(div(h, 0x100000000), 0xFFFFFFFF00000000000000000000000000000000), and(div(h, 0x1000000), 0xFFFFFFFF000000000000000000000000)), and(div(h, 0x10000), 0xFFFFFFFF0000000000000000)), and(div(h, 0x100), 0xFFFFFFFF00000000)) */\n      or\n        /* \"contracts/dnssec-oracle/SHA1.sol\":5435:5689  or(or(or(or(and(div(h, 0x100000000), 0xFFFFFFFF00000000000000000000000000000000), and(div(h, 0x1000000), 0xFFFFFFFF000000000000000000000000)), and(div(h, 0x10000), 0xFFFFFFFF0000000000000000)), and(div(h, 0x100), 0xFFFFFFFF00000000)), and(h, 0xFFFFFFFF)) */\n      or\n        /* \"contracts/dnssec-oracle/SHA1.sol\":5431:5719  mul(or(or(or(or(and(div(h, 0x100000000), 0xFFFFFFFF00000000000000000000000000000000), and(div(h, 0x1000000), 0xFFFFFFFF000000000000000000000000)), and(div(h, 0x10000), 0xFFFFFFFF0000000000000000)), and(div(h, 0x100), 0xFFFFFFFF00000000)), and(h, 0xFFFFFFFF)), 0x1000000000000000000000000) */\n      mul\n        /* \"contracts/dnssec-oracle/SHA1.sol\":5424:5719  ret := mul(or(or(or(or(and(div(h, 0x100000000), 0xFFFFFFFF00000000000000000000000000000000), and(div(h, 0x1000000), 0xFFFFFFFF000000000000000000000000)), and(div(h, 0x10000), 0xFFFFFFFF0000000000000000)), and(div(h, 0x100), 0xFFFFFFFF00000000)), and(h, 0xFFFFFFFF)), 0x1000000000000000000000000) */\n      swap5\n      pop\n        /* \"contracts/dnssec-oracle/SHA1.sol\":161:5729  {... */\n      pop\n      pop\n      pop\n      pop\n        /* \"contracts/dnssec-oracle/SHA1.sol\":74:5735  function sha1(bytes memory data) internal pure returns(bytes20 ret) {... */\n      swap2\n      swap1\n      pop\n      jump\t// out\n        /* \"contracts/Buffer.sol\":2316:2514  function truncate(buffer memory buf) internal pure returns (buffer memory) {... */\n    tag_25:\n        /* \"contracts/Buffer.sol\":2376:2389  buffer memory */\n      tag_79\n      tag_12\n      jump\t// in\n    tag_79:\n        /* \"contracts/Buffer.sol\":2444:2447  buf */\n      dup2\n        /* \"contracts/Buffer.sol\":2438:2448  mload(buf) */\n      mload\n        /* \"contracts/Buffer.sol\":2476:2477  0 */\n      0x00\n        /* \"contracts/Buffer.sol\":2468:2474  bufptr */\n      dup2\n        /* \"contracts/Buffer.sol\":2461:2478  mstore(bufptr, 0) */\n      mstore\n        /* \"contracts/Buffer.sol\":2410:2488  {... */\n      pop\n        /* \"contracts/Buffer.sol\":2504:2507  buf */\n      dup2\n        /* \"contracts/Buffer.sol\":2497:2507  return buf */\n      swap1\n      pop\n        /* \"contracts/Buffer.sol\":2316:2514  function truncate(buffer memory buf) internal pure returns (buffer memory) {... */\n      swap2\n      swap1\n      pop\n      jump\t// out\n        /* \"contracts/Buffer.sol\":8596:8759  function appendBytes20(buffer memory buf, bytes20 data) internal pure returns (buffer memory) {... */\n    tag_27:\n        /* \"contracts/Buffer.sol\":8675:8688  buffer memory */\n      tag_81\n      tag_12\n      jump\t// in\n    tag_81:\n        /* \"contracts/Buffer.sol\":8707:8752  write(buf, buf.buf.length, bytes32(data), 20) */\n      tag_83\n        /* \"contracts/Buffer.sol\":8713:8716  buf */\n      dup4\n        /* \"contracts/Buffer.sol\":8718:8721  buf */\n      dup5\n        /* \"contracts/Buffer.sol\":8718:8725  buf.buf */\n      0x00\n      add\n      mload\n        /* \"contracts/Buffer.sol\":8718:8732  buf.buf.length */\n      mload\n        /* \"contracts/Buffer.sol\":8742:8746  data */\n      dup5\n        /* \"contracts/Buffer.sol\":8734:8747  bytes32(data) */\n      not(0xffffffffffffffffffffffff)\n      and\n        /* \"contracts/Buffer.sol\":8749:8751  20 */\n      0x14\n        /* \"contracts/Buffer.sol\":8707:8712  write */\n      tag_84\n        /* \"contracts/Buffer.sol\":8707:8752  write(buf, buf.buf.length, bytes32(data), 20) */\n      jump\t// in\n    tag_83:\n        /* \"contracts/Buffer.sol\":8700:8752  return write(buf, buf.buf.length, bytes32(data), 20) */\n      swap1\n      pop\n        /* \"contracts/Buffer.sol\":8596:8759  function appendBytes20(buffer memory buf, bytes20 data) internal pure returns (buffer memory) {... */\n      swap3\n      swap2\n      pop\n      pop\n      jump\t// out\n        /* \"contracts/Buffer.sol\":8168:8329  function writeBytes20(buffer memory buf, uint off, bytes20 data) internal pure returns (buffer memory) {... */\n    tag_33:\n        /* \"contracts/Buffer.sol\":8256:8269  buffer memory */\n      tag_85\n      tag_12\n      jump\t// in\n    tag_85:\n        /* \"contracts/Buffer.sol\":8288:8322  write(buf, off, bytes32(data), 20) */\n      tag_87\n        /* \"contracts/Buffer.sol\":8294:8297  buf */\n      dup5\n        /* \"contracts/Buffer.sol\":8299:8302  off */\n      dup5\n        /* \"contracts/Buffer.sol\":8312:8316  data */\n      dup5\n        /* \"contracts/Buffer.sol\":8304:8317  bytes32(data) */\n      not(0xffffffffffffffffffffffff)\n      and\n        /* \"contracts/Buffer.sol\":8319:8321  20 */\n      0x14\n        /* \"contracts/Buffer.sol\":8288:8293  write */\n      tag_84\n        /* \"contracts/Buffer.sol\":8288:8322  write(buf, off, bytes32(data), 20) */\n      jump\t// in\n    tag_87:\n        /* \"contracts/Buffer.sol\":8281:8322  return write(buf, off, bytes32(data), 20) */\n      swap1\n      pop\n        /* \"contracts/Buffer.sol\":8168:8329  function writeBytes20(buffer memory buf, uint off, bytes20 data) internal pure returns (buffer memory) {... */\n      swap4\n      swap3\n      pop\n      pop\n      pop\n      jump\t// out\n        /* \"contracts/Buffer.sol\":2874:4256  function write(buffer memory buf, uint off, bytes memory data, uint len) internal pure returns(buffer memory) {... */\n    tag_47:\n        /* \"contracts/Buffer.sol\":2969:2982  buffer memory */\n      tag_88\n      tag_12\n      jump\t// in\n    tag_88:\n        /* \"contracts/Buffer.sol\":3009:3013  data */\n      dup3\n        /* \"contracts/Buffer.sol\":3009:3020  data.length */\n      mload\n        /* \"contracts/Buffer.sol\":3002:3005  len */\n      dup3\n        /* \"contracts/Buffer.sol\":3002:3020  len <= data.length */\n      gt\n      iszero\n        /* \"contracts/Buffer.sol\":2994:3021  require(len <= data.length) */\n      tag_90\n      jumpi\n      0x00\n      dup1\n      revert\n    tag_90:\n        /* \"contracts/Buffer.sol\":3048:3051  buf */\n      dup5\n        /* \"contracts/Buffer.sol\":3048:3060  buf.capacity */\n      0x20\n      add\n      mload\n        /* \"contracts/Buffer.sol\":3042:3045  len */\n      dup3\n        /* \"contracts/Buffer.sol\":3036:3039  off */\n      dup6\n        /* \"contracts/Buffer.sol\":3036:3045  off + len */\n      tag_91\n      swap2\n      swap1\n      tag_15\n      jump\t// in\n    tag_91:\n        /* \"contracts/Buffer.sol\":3036:3060  off + len > buf.capacity */\n      gt\n        /* \"contracts/Buffer.sol\":3032:3132  if (off + len > buf.capacity) {... */\n      iszero\n      tag_92\n      jumpi\n        /* \"contracts/Buffer.sol\":3076:3121  resize(buf, max(buf.capacity, len + off) * 2) */\n      tag_93\n        /* \"contracts/Buffer.sol\":3083:3086  buf */\n      dup6\n        /* \"contracts/Buffer.sol\":3119:3120  2 */\n      0x02\n        /* \"contracts/Buffer.sol\":3088:3116  max(buf.capacity, len + off) */\n      tag_94\n        /* \"contracts/Buffer.sol\":3092:3095  buf */\n      dup9\n        /* \"contracts/Buffer.sol\":3092:3104  buf.capacity */\n      0x20\n      add\n      mload\n        /* \"contracts/Buffer.sol\":3112:3115  off */\n      dup9\n        /* \"contracts/Buffer.sol\":3106:3109  len */\n      dup8\n        /* \"contracts/Buffer.sol\":3106:3115  len + off */\n      tag_95\n      swap2\n      swap1\n      tag_15\n      jump\t// in\n    tag_95:\n        /* \"contracts/Buffer.sol\":3088:3091  max */\n      tag_96\n        /* \"contracts/Buffer.sol\":3088:3116  max(buf.capacity, len + off) */\n      jump\t// in\n    tag_94:\n        /* \"contracts/Buffer.sol\":3088:3120  max(buf.capacity, len + off) * 2 */\n      tag_97\n      swap2\n      swap1\n      tag_98\n      jump\t// in\n    tag_97:\n        /* \"contracts/Buffer.sol\":3076:3082  resize */\n      tag_99\n        /* \"contracts/Buffer.sol\":3076:3121  resize(buf, max(buf.capacity, len + off) * 2) */\n      jump\t// in\n    tag_93:\n        /* \"contracts/Buffer.sol\":3032:3132  if (off + len > buf.capacity) {... */\n    tag_92:\n        /* \"contracts/Buffer.sol\":3142:3151  uint dest */\n      0x00\n        /* \"contracts/Buffer.sol\":3161:3169  uint src */\n      dup1\n        /* \"contracts/Buffer.sol\":3271:3274  buf */\n      dup7\n        /* \"contracts/Buffer.sol\":3265:3275  mload(buf) */\n      mload\n        /* \"contracts/Buffer.sol\":3354:3360  bufptr */\n      dup1\n        /* \"contracts/Buffer.sol\":3348:3361  mload(bufptr) */\n      mload\n        /* \"contracts/Buffer.sol\":3482:3485  off */\n      dup8\n        /* \"contracts/Buffer.sol\":3477:3479  32 */\n      0x20\n        /* \"contracts/Buffer.sol\":3469:3475  bufptr */\n      dup4\n        /* \"contracts/Buffer.sol\":3465:3480  add(bufptr, 32) */\n      add\n        /* \"contracts/Buffer.sol\":3461:3486  add(add(bufptr, 32), off) */\n      add\n        /* \"contracts/Buffer.sol\":3453:3486  dest := add(add(bufptr, 32), off) */\n      swap4\n      pop\n        /* \"contracts/Buffer.sol\":3578:3584  buflen */\n      dup1\n        /* \"contracts/Buffer.sol\":3572:3575  off */\n      dup9\n        /* \"contracts/Buffer.sol\":3567:3570  len */\n      dup8\n        /* \"contracts/Buffer.sol\":3563:3576  add(len, off) */\n      add\n        /* \"contracts/Buffer.sol\":3560:3585  gt(add(len, off), buflen) */\n      gt\n        /* \"contracts/Buffer.sol\":3557:3647  if gt(add(len, off), buflen) {... */\n      iszero\n      tag_100\n      jumpi\n        /* \"contracts/Buffer.sol\":3628:3631  off */\n      dup8\n        /* \"contracts/Buffer.sol\":3623:3626  len */\n      dup7\n        /* \"contracts/Buffer.sol\":3619:3632  add(len, off) */\n      add\n        /* \"contracts/Buffer.sol\":3611:3617  bufptr */\n      dup3\n        /* \"contracts/Buffer.sol\":3604:3633  mstore(bufptr, add(len, off)) */\n      mstore\n        /* \"contracts/Buffer.sol\":3557:3647  if gt(add(len, off), buflen) {... */\n    tag_100:\n        /* \"contracts/Buffer.sol\":3677:3679  32 */\n      0x20\n        /* \"contracts/Buffer.sol\":3671:3675  data */\n      dup8\n        /* \"contracts/Buffer.sol\":3667:3680  add(data, 32) */\n      add\n        /* \"contracts/Buffer.sol\":3660:3680  src := add(data, 32) */\n      swap3\n      pop\n        /* \"contracts/Buffer.sol\":3188:3690  {... */\n      pop\n      pop\n        /* \"contracts/Buffer.sol\":3750:3915  for (; len >= 32; len -= 32) {... */\n    tag_101:\n        /* \"contracts/Buffer.sol\":3764:3766  32 */\n      0x20\n        /* \"contracts/Buffer.sol\":3757:3760  len */\n      dup5\n        /* \"contracts/Buffer.sol\":3757:3766  len >= 32 */\n      lt\n        /* \"contracts/Buffer.sol\":3750:3915  for (; len >= 32; len -= 32) {... */\n      tag_102\n      jumpi\n        /* \"contracts/Buffer.sol\":3839:3842  src */\n      dup1\n        /* \"contracts/Buffer.sol\":3833:3843  mload(src) */\n      mload\n        /* \"contracts/Buffer.sol\":3827:3831  dest */\n      dup3\n        /* \"contracts/Buffer.sol\":3820:3844  mstore(dest, mload(src)) */\n      mstore\n        /* \"contracts/Buffer.sol\":3879:3881  32 */\n      0x20\n        /* \"contracts/Buffer.sol\":3871:3881  dest += 32 */\n      dup3\n      tag_104\n      swap2\n      swap1\n      tag_15\n      jump\t// in\n    tag_104:\n      swap2\n      pop\n        /* \"contracts/Buffer.sol\":3902:3904  32 */\n      0x20\n        /* \"contracts/Buffer.sol\":3895:3904  src += 32 */\n      dup2\n      tag_105\n      swap2\n      swap1\n      tag_15\n      jump\t// in\n    tag_105:\n      swap1\n      pop\n        /* \"contracts/Buffer.sol\":3775:3777  32 */\n      0x20\n        /* \"contracts/Buffer.sol\":3768:3777  len -= 32 */\n      dup5\n      tag_106\n      swap2\n      swap1\n      tag_42\n      jump\t// in\n    tag_106:\n      swap4\n      pop\n        /* \"contracts/Buffer.sol\":3750:3915  for (; len >= 32; len -= 32) {... */\n      jump(tag_101)\n    tag_102:\n        /* \"contracts/Buffer.sol\":3981:3990  uint mask */\n      0x00\n        /* \"contracts/Buffer.sol\":4015:4016  1 */\n      0x01\n        /* \"contracts/Buffer.sol\":4007:4010  len */\n      dup6\n        /* \"contracts/Buffer.sol\":4002:4004  32 */\n      0x20\n        /* \"contracts/Buffer.sol\":4002:4010  32 - len */\n      sub\n        /* \"contracts/Buffer.sol\":3994:3997  256 */\n      0x0100\n        /* \"contracts/Buffer.sol\":3994:4011  256 ** (32 - len) */\n      exp\n        /* \"contracts/Buffer.sol\":3993:4016  (256 ** (32 - len)) - 1 */\n      sub\n        /* \"contracts/Buffer.sol\":3981:4016  uint mask = (256 ** (32 - len)) - 1 */\n      swap1\n      pop\n        /* \"contracts/Buffer.sol\":4092:4096  mask */\n      dup1\n        /* \"contracts/Buffer.sol\":4088:4097  not(mask) */\n      not\n        /* \"contracts/Buffer.sol\":4082:4085  src */\n      dup3\n        /* \"contracts/Buffer.sol\":4076:4086  mload(src) */\n      mload\n        /* \"contracts/Buffer.sol\":4072:4098  and(mload(src), not(mask)) */\n      and\n        /* \"contracts/Buffer.sol\":4148:4152  mask */\n      dup2\n        /* \"contracts/Buffer.sol\":4141:4145  dest */\n      dup5\n        /* \"contracts/Buffer.sol\":4135:4146  mload(dest) */\n      mload\n        /* \"contracts/Buffer.sol\":4131:4153  and(mload(dest), mask) */\n      and\n        /* \"contracts/Buffer.sol\":4196:4203  srcpart */\n      dup2\n        /* \"contracts/Buffer.sol\":4186:4194  destpart */\n      dup2\n        /* \"contracts/Buffer.sol\":4183:4204  or(destpart, srcpart) */\n      or\n        /* \"contracts/Buffer.sol\":4177:4181  dest */\n      dup6\n        /* \"contracts/Buffer.sol\":4170:4205  mstore(dest, or(destpart, srcpart)) */\n      mstore\n        /* \"contracts/Buffer.sol\":4039:4219  {... */\n      pop\n      pop\n      pop\n        /* \"contracts/Buffer.sol\":4246:4249  buf */\n      dup7\n        /* \"contracts/Buffer.sol\":4239:4249  return buf */\n      swap3\n      pop\n      pop\n      pop\n        /* \"contracts/Buffer.sol\":2874:4256  function write(buffer memory buf, uint off, bytes memory data, uint len) internal pure returns(buffer memory) {... */\n      swap5\n      swap4\n      pop\n      pop\n      pop\n      pop\n      jump\t// out\n        /* \"contracts/Buffer.sol\":6975:7862  function write(buffer memory buf, uint off, bytes32 data, uint len) private pure returns(buffer memory) {... */\n    tag_84:\n        /* \"contracts/Buffer.sol\":7064:7077  buffer memory */\n      tag_107\n      tag_12\n      jump\t// in\n    tag_107:\n        /* \"contracts/Buffer.sol\":7105:7108  buf */\n      dup5\n        /* \"contracts/Buffer.sol\":7105:7117  buf.capacity */\n      0x20\n      add\n      mload\n        /* \"contracts/Buffer.sol\":7099:7102  off */\n      dup5\n        /* \"contracts/Buffer.sol\":7093:7096  len */\n      dup4\n        /* \"contracts/Buffer.sol\":7093:7102  len + off */\n      tag_109\n      swap2\n      swap1\n      tag_15\n      jump\t// in\n    tag_109:\n        /* \"contracts/Buffer.sol\":7093:7117  len + off > buf.capacity */\n      gt\n        /* \"contracts/Buffer.sol\":7089:7172  if (len + off > buf.capacity) {... */\n      iszero\n      tag_110\n      jumpi\n        /* \"contracts/Buffer.sol\":7133:7161  resize(buf, (len + off) * 2) */\n      tag_111\n        /* \"contracts/Buffer.sol\":7140:7143  buf */\n      dup6\n        /* \"contracts/Buffer.sol\":7159:7160  2 */\n      0x02\n        /* \"contracts/Buffer.sol\":7152:7155  off */\n      dup7\n        /* \"contracts/Buffer.sol\":7146:7149  len */\n      dup6\n        /* \"contracts/Buffer.sol\":7146:7155  len + off */\n      tag_112\n      swap2\n      swap1\n      tag_15\n      jump\t// in\n    tag_112:\n        /* \"contracts/Buffer.sol\":7145:7160  (len + off) * 2 */\n      tag_113\n      swap2\n      swap1\n      tag_98\n      jump\t// in\n    tag_113:\n        /* \"contracts/Buffer.sol\":7133:7139  resize */\n      tag_99\n        /* \"contracts/Buffer.sol\":7133:7161  resize(buf, (len + off) * 2) */\n      jump\t// in\n    tag_111:\n        /* \"contracts/Buffer.sol\":7089:7172  if (len + off > buf.capacity) {... */\n    tag_110:\n        /* \"contracts/Buffer.sol\":7206:7215  uint mask */\n      0x00\n        /* \"contracts/Buffer.sol\":7233:7234  1 */\n      0x01\n        /* \"contracts/Buffer.sol\":7226:7229  len */\n      dup4\n        /* \"contracts/Buffer.sol\":7219:7222  256 */\n      0x0100\n        /* \"contracts/Buffer.sol\":7219:7229  256 ** len */\n      exp\n        /* \"contracts/Buffer.sol\":7218:7234  (256 ** len) - 1 */\n      sub\n        /* \"contracts/Buffer.sol\":7206:7234  uint mask = (256 ** len) - 1 */\n      swap1\n      pop\n        /* \"contracts/Buffer.sol\":7306:7309  len */\n      dup3\n        /* \"contracts/Buffer.sol\":7301:7303  32 */\n      0x20\n        /* \"contracts/Buffer.sol\":7301:7309  32 - len */\n      sub\n        /* \"contracts/Buffer.sol\":7296:7297  8 */\n      0x08\n        /* \"contracts/Buffer.sol\":7296:7310  8 * (32 - len) */\n      mul\n        /* \"contracts/Buffer.sol\":7287:7291  data */\n      dup5\n        /* \"contracts/Buffer.sol\":7287:7311  data >> (8 * (32 - len)) */\n      swap1\n      shr\n        /* \"contracts/Buffer.sol\":7280:7311  data = data >> (8 * (32 - len)) */\n      swap4\n      pop\n        /* \"contracts/Buffer.sol\":7425:7428  buf */\n      dup6\n        /* \"contracts/Buffer.sol\":7419:7429  mload(buf) */\n      mload\n        /* \"contracts/Buffer.sol\":7560:7563  len */\n      dup4\n        /* \"contracts/Buffer.sol\":7554:7557  off */\n      dup7\n        /* \"contracts/Buffer.sol\":7546:7552  bufptr */\n      dup3\n        /* \"contracts/Buffer.sol\":7542:7558  add(bufptr, off) */\n      add\n        /* \"contracts/Buffer.sol\":7538:7564  add(add(bufptr, off), len) */\n      add\n        /* \"contracts/Buffer.sol\":7626:7630  data */\n      dup6\n        /* \"contracts/Buffer.sol\":7618:7622  mask */\n      dup4\n        /* \"contracts/Buffer.sol\":7614:7623  not(mask) */\n      not\n        /* \"contracts/Buffer.sol\":7607:7611  dest */\n      dup3\n        /* \"contracts/Buffer.sol\":7601:7612  mload(dest) */\n      mload\n        /* \"contracts/Buffer.sol\":7597:7624  and(mload(dest), not(mask)) */\n      and\n        /* \"contracts/Buffer.sol\":7594:7631  or(and(mload(dest), not(mask)), data) */\n      or\n        /* \"contracts/Buffer.sol\":7588:7592  dest */\n      dup2\n        /* \"contracts/Buffer.sol\":7581:7632  mstore(dest, or(and(mload(dest), not(mask)), data)) */\n      mstore\n        /* \"contracts/Buffer.sol\":7734:7740  bufptr */\n      dup2\n        /* \"contracts/Buffer.sol\":7728:7741  mload(bufptr) */\n      mload\n        /* \"contracts/Buffer.sol\":7722:7725  len */\n      dup6\n        /* \"contracts/Buffer.sol\":7717:7720  off */\n      dup9\n        /* \"contracts/Buffer.sol\":7713:7726  add(off, len) */\n      add\n        /* \"contracts/Buffer.sol\":7710:7742  gt(add(off, len), mload(bufptr)) */\n      gt\n        /* \"contracts/Buffer.sol\":7707:7812  if gt(add(off, len), mload(bufptr)) {... */\n      iszero\n      tag_114\n      jumpi\n        /* \"contracts/Buffer.sol\":7789:7792  len */\n      dup5\n        /* \"contracts/Buffer.sol\":7784:7787  off */\n      dup8\n        /* \"contracts/Buffer.sol\":7780:7793  add(off, len) */\n      add\n        /* \"contracts/Buffer.sol\":7772:7778  bufptr */\n      dup3\n        /* \"contracts/Buffer.sol\":7765:7794  mstore(bufptr, add(off, len)) */\n      mstore\n        /* \"contracts/Buffer.sol\":7707:7812  if gt(add(off, len), mload(bufptr)) {... */\n    tag_114:\n        /* \"contracts/Buffer.sol\":7334:7826  {... */\n      pop\n      pop\n      pop\n        /* \"contracts/Buffer.sol\":7852:7855  buf */\n      dup5\n        /* \"contracts/Buffer.sol\":7845:7855  return buf */\n      swap1\n      pop\n        /* \"contracts/Buffer.sol\":6975:7862  function write(buffer memory buf, uint off, bytes32 data, uint len) private pure returns(buffer memory) {... */\n      swap5\n      swap4\n      pop\n      pop\n      pop\n      pop\n      jump\t// out\n        /* \"contracts/Buffer.sol\":2034:2168  function max(uint a, uint b) private pure returns(uint) {... */\n    tag_96:\n        /* \"contracts/Buffer.sol\":2084:2088  uint */\n      0x00\n        /* \"contracts/Buffer.sol\":2108:2109  b */\n      dup2\n        /* \"contracts/Buffer.sol\":2104:2105  a */\n      dup4\n        /* \"contracts/Buffer.sol\":2104:2109  a > b */\n      gt\n        /* \"contracts/Buffer.sol\":2100:2144  if (a > b) {... */\n      iszero\n      tag_116\n      jumpi\n        /* \"contracts/Buffer.sol\":2132:2133  a */\n      dup3\n        /* \"contracts/Buffer.sol\":2125:2133  return a */\n      swap1\n      pop\n      jump(tag_115)\n        /* \"contracts/Buffer.sol\":2100:2144  if (a > b) {... */\n    tag_116:\n        /* \"contracts/Buffer.sol\":2160:2161  b */\n      dup2\n        /* \"contracts/Buffer.sol\":2153:2161  return b */\n      swap1\n      pop\n        /* \"contracts/Buffer.sol\":2034:2168  function max(uint a, uint b) private pure returns(uint) {... */\n    tag_115:\n      swap3\n      swap2\n      pop\n      pop\n      jump\t// out\n        /* \"contracts/Buffer.sol\":1861:2028  function resize(buffer memory buf, uint capacity) private pure {... */\n    tag_99:\n        /* \"contracts/Buffer.sol\":1934:1953  bytes memory oldbuf */\n      0x00\n        /* \"contracts/Buffer.sol\":1956:1959  buf */\n      dup3\n        /* \"contracts/Buffer.sol\":1956:1963  buf.buf */\n      0x00\n      add\n      mload\n        /* \"contracts/Buffer.sol\":1934:1963  bytes memory oldbuf = buf.buf */\n      swap1\n      pop\n        /* \"contracts/Buffer.sol\":1973:1992  init(buf, capacity) */\n      tag_118\n        /* \"contracts/Buffer.sol\":1978:1981  buf */\n      dup4\n        /* \"contracts/Buffer.sol\":1983:1991  capacity */\n      dup4\n        /* \"contracts/Buffer.sol\":1973:1977  init */\n      tag_17\n        /* \"contracts/Buffer.sol\":1973:1992  init(buf, capacity) */\n      jump\t// in\n    tag_118:\n      pop\n        /* \"contracts/Buffer.sol\":2002:2021  append(buf, oldbuf) */\n      tag_119\n        /* \"contracts/Buffer.sol\":2009:2012  buf */\n      dup4\n        /* \"contracts/Buffer.sol\":2014:2020  oldbuf */\n      dup3\n        /* \"contracts/Buffer.sol\":2002:2008  append */\n      tag_19\n        /* \"contracts/Buffer.sol\":2002:2021  append(buf, oldbuf) */\n      jump\t// in\n    tag_119:\n      pop\n        /* \"contracts/Buffer.sol\":1924:2028  {... */\n      pop\n        /* \"contracts/Buffer.sol\":1861:2028  function resize(buffer memory buf, uint capacity) private pure {... */\n      pop\n      pop\n      jump\t// out\n    tag_12:\n      mload(0x40)\n      dup1\n      0x40\n      add\n      0x40\n      mstore\n      dup1\n      0x60\n      dup2\n      mstore\n      0x20\n      add\n      0x00\n      dup2\n      mstore\n      pop\n      swap1\n      jump\t// out\n        /* \"#utility.yul\":88:205   */\n    tag_121:\n        /* \"#utility.yul\":197:198   */\n      0x00\n        /* \"#utility.yul\":194:195   */\n      dup1\n        /* \"#utility.yul\":187:199   */\n      revert\n        /* \"#utility.yul\":211:328   */\n    tag_122:\n        /* \"#utility.yul\":320:321   */\n      0x00\n        /* \"#utility.yul\":317:318   */\n      dup1\n        /* \"#utility.yul\":310:322   */\n      revert\n        /* \"#utility.yul\":334:451   */\n    tag_123:\n        /* \"#utility.yul\":443:444   */\n      0x00\n        /* \"#utility.yul\":440:441   */\n      dup1\n        /* \"#utility.yul\":433:445   */\n      revert\n        /* \"#utility.yul\":457:574   */\n    tag_124:\n        /* \"#utility.yul\":566:567   */\n      0x00\n        /* \"#utility.yul\":563:564   */\n      dup1\n        /* \"#utility.yul\":556:568   */\n      revert\n        /* \"#utility.yul\":580:697   */\n    tag_125:\n        /* \"#utility.yul\":689:690   */\n      0x00\n        /* \"#utility.yul\":686:687   */\n      dup1\n        /* \"#utility.yul\":679:691   */\n      revert\n        /* \"#utility.yul\":716:1268   */\n    tag_126:\n        /* \"#utility.yul\":773:781   */\n      0x00\n        /* \"#utility.yul\":783:789   */\n      dup1\n        /* \"#utility.yul\":833:836   */\n      dup4\n        /* \"#utility.yul\":826:830   */\n      0x1f\n        /* \"#utility.yul\":818:824   */\n      dup5\n        /* \"#utility.yul\":814:831   */\n      add\n        /* \"#utility.yul\":810:837   */\n      slt\n        /* \"#utility.yul\":800:922   */\n      tag_142\n      jumpi\n        /* \"#utility.yul\":841:920   */\n      tag_143\n      tag_123\n      jump\t// in\n    tag_143:\n        /* \"#utility.yul\":800:922   */\n    tag_142:\n        /* \"#utility.yul\":954:960   */\n      dup3\n        /* \"#utility.yul\":941:961   */\n      calldataload\n        /* \"#utility.yul\":931:961   */\n      swap1\n      pop\n        /* \"#utility.yul\":984:1002   */\n      0xffffffffffffffff\n        /* \"#utility.yul\":976:982   */\n      dup2\n        /* \"#utility.yul\":973:1003   */\n      gt\n        /* \"#utility.yul\":970:1087   */\n      iszero\n      tag_144\n      jumpi\n        /* \"#utility.yul\":1006:1085   */\n      tag_145\n      tag_124\n      jump\t// in\n    tag_145:\n        /* \"#utility.yul\":970:1087   */\n    tag_144:\n        /* \"#utility.yul\":1120:1124   */\n      0x20\n        /* \"#utility.yul\":1112:1118   */\n      dup4\n        /* \"#utility.yul\":1108:1125   */\n      add\n        /* \"#utility.yul\":1096:1125   */\n      swap2\n      pop\n        /* \"#utility.yul\":1174:1177   */\n      dup4\n        /* \"#utility.yul\":1166:1170   */\n      0x01\n        /* \"#utility.yul\":1158:1164   */\n      dup3\n        /* \"#utility.yul\":1154:1171   */\n      mul\n        /* \"#utility.yul\":1144:1152   */\n      dup4\n        /* \"#utility.yul\":1140:1172   */\n      add\n        /* \"#utility.yul\":1137:1178   */\n      gt\n        /* \"#utility.yul\":1134:1262   */\n      iszero\n      tag_146\n      jumpi\n        /* \"#utility.yul\":1181:1260   */\n      tag_147\n      tag_125\n      jump\t// in\n    tag_147:\n        /* \"#utility.yul\":1134:1262   */\n    tag_146:\n        /* \"#utility.yul\":716:1268   */\n      swap3\n      pop\n      swap3\n      swap1\n      pop\n      jump\t// out\n        /* \"#utility.yul\":1274:1351   */\n    tag_127:\n        /* \"#utility.yul\":1311:1318   */\n      0x00\n        /* \"#utility.yul\":1340:1345   */\n      dup2\n        /* \"#utility.yul\":1329:1345   */\n      swap1\n      pop\n        /* \"#utility.yul\":1274:1351   */\n      swap2\n      swap1\n      pop\n      jump\t// out\n        /* \"#utility.yul\":1357:1479   */\n    tag_128:\n        /* \"#utility.yul\":1430:1454   */\n      tag_150\n        /* \"#utility.yul\":1448:1453   */\n      dup2\n        /* \"#utility.yul\":1430:1454   */\n      tag_127\n      jump\t// in\n    tag_150:\n        /* \"#utility.yul\":1423:1428   */\n      dup2\n        /* \"#utility.yul\":1420:1455   */\n      eq\n        /* \"#utility.yul\":1410:1473   */\n      tag_151\n      jumpi\n        /* \"#utility.yul\":1469:1470   */\n      0x00\n        /* \"#utility.yul\":1466:1467   */\n      dup1\n        /* \"#utility.yul\":1459:1471   */\n      revert\n        /* \"#utility.yul\":1410:1473   */\n    tag_151:\n        /* \"#utility.yul\":1357:1479   */\n      pop\n      jump\t// out\n        /* \"#utility.yul\":1485:1624   */\n    tag_129:\n        /* \"#utility.yul\":1531:1536   */\n      0x00\n        /* \"#utility.yul\":1569:1575   */\n      dup2\n        /* \"#utility.yul\":1556:1576   */\n      calldataload\n        /* \"#utility.yul\":1547:1576   */\n      swap1\n      pop\n        /* \"#utility.yul\":1585:1618   */\n      tag_153\n        /* \"#utility.yul\":1612:1617   */\n      dup2\n        /* \"#utility.yul\":1585:1618   */\n      tag_128\n      jump\t// in\n    tag_153:\n        /* \"#utility.yul\":1485:1624   */\n      swap3\n      swap2\n      pop\n      pop\n      jump\t// out\n        /* \"#utility.yul\":1630:2645   */\n    tag_6:\n        /* \"#utility.yul\":1729:1735   */\n      0x00\n        /* \"#utility.yul\":1737:1743   */\n      dup1\n        /* \"#utility.yul\":1745:1751   */\n      0x00\n        /* \"#utility.yul\":1753:1759   */\n      dup1\n        /* \"#utility.yul\":1761:1767   */\n      0x00\n        /* \"#utility.yul\":1810:1812   */\n      0x60\n        /* \"#utility.yul\":1798:1807   */\n      dup7\n        /* \"#utility.yul\":1789:1796   */\n      dup9\n        /* \"#utility.yul\":1785:1808   */\n      sub\n        /* \"#utility.yul\":1781:1813   */\n      slt\n        /* \"#utility.yul\":1778:1897   */\n      iszero\n      tag_155\n      jumpi\n        /* \"#utility.yul\":1816:1895   */\n      tag_156\n      tag_121\n      jump\t// in\n    tag_156:\n        /* \"#utility.yul\":1778:1897   */\n    tag_155:\n        /* \"#utility.yul\":1964:1965   */\n      0x00\n        /* \"#utility.yul\":1953:1962   */\n      dup7\n        /* \"#utility.yul\":1949:1966   */\n      add\n        /* \"#utility.yul\":1936:1967   */\n      calldataload\n        /* \"#utility.yul\":1994:2012   */\n      0xffffffffffffffff\n        /* \"#utility.yul\":1986:1992   */\n      dup2\n        /* \"#utility.yul\":1983:2013   */\n      gt\n        /* \"#utility.yul\":1980:2097   */\n      iszero\n      tag_157\n      jumpi\n        /* \"#utility.yul\":2016:2095   */\n      tag_158\n      tag_122\n      jump\t// in\n    tag_158:\n        /* \"#utility.yul\":1980:2097   */\n    tag_157:\n        /* \"#utility.yul\":2129:2193   */\n      tag_159\n        /* \"#utility.yul\":2185:2192   */\n      dup9\n        /* \"#utility.yul\":2176:2182   */\n      dup3\n        /* \"#utility.yul\":2165:2174   */\n      dup10\n        /* \"#utility.yul\":2161:2183   */\n      add\n        /* \"#utility.yul\":2129:2193   */\n      tag_126\n      jump\t// in\n    tag_159:\n        /* \"#utility.yul\":2111:2193   */\n      swap6\n      pop\n      swap6\n      pop\n        /* \"#utility.yul\":1907:2203   */\n      pop\n        /* \"#utility.yul\":2270:2272   */\n      0x20\n        /* \"#utility.yul\":2259:2268   */\n      dup7\n        /* \"#utility.yul\":2255:2273   */\n      add\n        /* \"#utility.yul\":2242:2274   */\n      calldataload\n        /* \"#utility.yul\":2301:2319   */\n      0xffffffffffffffff\n        /* \"#utility.yul\":2293:2299   */\n      dup2\n        /* \"#utility.yul\":2290:2320   */\n      gt\n        /* \"#utility.yul\":2287:2404   */\n      iszero\n      tag_160\n      jumpi\n        /* \"#utility.yul\":2323:2402   */\n      tag_161\n      tag_122\n      jump\t// in\n    tag_161:\n        /* \"#utility.yul\":2287:2404   */\n    tag_160:\n        /* \"#utility.yul\":2436:2500   */\n      tag_162\n        /* \"#utility.yul\":2492:2499   */\n      dup9\n        /* \"#utility.yul\":2483:2489   */\n      dup3\n        /* \"#utility.yul\":2472:2481   */\n      dup10\n        /* \"#utility.yul\":2468:2490   */\n      add\n        /* \"#utility.yul\":2436:2500   */\n      tag_126\n      jump\t// in\n    tag_162:\n        /* \"#utility.yul\":2418:2500   */\n      swap4\n      pop\n      swap4\n      pop\n        /* \"#utility.yul\":2213:2510   */\n      pop\n        /* \"#utility.yul\":2549:2551   */\n      0x40\n        /* \"#utility.yul\":2575:2628   */\n      tag_163\n        /* \"#utility.yul\":2620:2627   */\n      dup9\n        /* \"#utility.yul\":2611:2617   */\n      dup3\n        /* \"#utility.yul\":2600:2609   */\n      dup10\n        /* \"#utility.yul\":2596:2618   */\n      add\n        /* \"#utility.yul\":2575:2628   */\n      tag_129\n      jump\t// in\n    tag_163:\n        /* \"#utility.yul\":2565:2628   */\n      swap2\n      pop\n        /* \"#utility.yul\":2520:2638   */\n      pop\n        /* \"#utility.yul\":1630:2645   */\n      swap3\n      swap6\n      pop\n      swap3\n      swap6\n      swap1\n      swap4\n      pop\n      jump\t// out\n        /* \"#utility.yul\":2651:2728   */\n    tag_130:\n        /* \"#utility.yul\":2688:2695   */\n      0x00\n        /* \"#utility.yul\":2717:2722   */\n      dup2\n        /* \"#utility.yul\":2706:2722   */\n      swap1\n      pop\n        /* \"#utility.yul\":2651:2728   */\n      swap2\n      swap1\n      pop\n      jump\t// out\n        /* \"#utility.yul\":2734:2852   */\n    tag_131:\n        /* \"#utility.yul\":2821:2845   */\n      tag_166\n        /* \"#utility.yul\":2839:2844   */\n      dup2\n        /* \"#utility.yul\":2821:2845   */\n      tag_130\n      jump\t// in\n    tag_166:\n        /* \"#utility.yul\":2816:2819   */\n      dup3\n        /* \"#utility.yul\":2809:2846   */\n      mstore\n        /* \"#utility.yul\":2734:2852   */\n      pop\n      pop\n      jump\t// out\n        /* \"#utility.yul\":2858:3080   */\n    tag_9:\n        /* \"#utility.yul\":2951:2955   */\n      0x00\n        /* \"#utility.yul\":2989:2991   */\n      0x20\n        /* \"#utility.yul\":2978:2987   */\n      dup3\n        /* \"#utility.yul\":2974:2992   */\n      add\n        /* \"#utility.yul\":2966:2992   */\n      swap1\n      pop\n        /* \"#utility.yul\":3002:3073   */\n      tag_168\n        /* \"#utility.yul\":3070:3071   */\n      0x00\n        /* \"#utility.yul\":3059:3068   */\n      dup4\n        /* \"#utility.yul\":3055:3072   */\n      add\n        /* \"#utility.yul\":3046:3052   */\n      dup5\n        /* \"#utility.yul\":3002:3073   */\n      tag_131\n      jump\t// in\n    tag_168:\n        /* \"#utility.yul\":2858:3080   */\n      swap3\n      swap2\n      pop\n      pop\n      jump\t// out\n        /* \"#utility.yul\":3086:3266   */\n    tag_132:\n        /* \"#utility.yul\":3134:3211   */\n      0x4e487b7100000000000000000000000000000000000000000000000000000000\n        /* \"#utility.yul\":3131:3132   */\n      0x00\n        /* \"#utility.yul\":3124:3212   */\n      mstore\n        /* \"#utility.yul\":3231:3235   */\n      0x11\n        /* \"#utility.yul\":3228:3229   */\n      0x04\n        /* \"#utility.yul\":3221:3236   */\n      mstore\n        /* \"#utility.yul\":3255:3259   */\n      0x24\n        /* \"#utility.yul\":3252:3253   */\n      0x00\n        /* \"#utility.yul\":3245:3260   */\n      revert\n        /* \"#utility.yul\":3272:3463   */\n    tag_15:\n        /* \"#utility.yul\":3312:3315   */\n      0x00\n        /* \"#utility.yul\":3331:3351   */\n      tag_171\n        /* \"#utility.yul\":3349:3350   */\n      dup3\n        /* \"#utility.yul\":3331:3351   */\n      tag_127\n      jump\t// in\n    tag_171:\n        /* \"#utility.yul\":3326:3351   */\n      swap2\n      pop\n        /* \"#utility.yul\":3365:3385   */\n      tag_172\n        /* \"#utility.yul\":3383:3384   */\n      dup4\n        /* \"#utility.yul\":3365:3385   */\n      tag_127\n      jump\t// in\n    tag_172:\n        /* \"#utility.yul\":3360:3385   */\n      swap3\n      pop\n        /* \"#utility.yul\":3408:3409   */\n      dup3\n        /* \"#utility.yul\":3405:3406   */\n      dup3\n        /* \"#utility.yul\":3401:3410   */\n      add\n        /* \"#utility.yul\":3394:3410   */\n      swap1\n      pop\n        /* \"#utility.yul\":3429:3432   */\n      dup1\n        /* \"#utility.yul\":3426:3427   */\n      dup3\n        /* \"#utility.yul\":3423:3433   */\n      gt\n        /* \"#utility.yul\":3420:3456   */\n      iszero\n      tag_173\n      jumpi\n        /* \"#utility.yul\":3436:3454   */\n      tag_174\n      tag_132\n      jump\t// in\n    tag_174:\n        /* \"#utility.yul\":3420:3456   */\n    tag_173:\n        /* \"#utility.yul\":3272:3463   */\n      swap3\n      swap2\n      pop\n      pop\n      jump\t// out\n        /* \"#utility.yul\":3469:3649   */\n    tag_133:\n        /* \"#utility.yul\":3517:3594   */\n      0x4e487b7100000000000000000000000000000000000000000000000000000000\n        /* \"#utility.yul\":3514:3515   */\n      0x00\n        /* \"#utility.yul\":3507:3595   */\n      mstore\n        /* \"#utility.yul\":3614:3618   */\n      0x12\n        /* \"#utility.yul\":3611:3612   */\n      0x04\n        /* \"#utility.yul\":3604:3619   */\n      mstore\n        /* \"#utility.yul\":3638:3642   */\n      0x24\n        /* \"#utility.yul\":3635:3636   */\n      0x00\n        /* \"#utility.yul\":3628:3643   */\n      revert\n        /* \"#utility.yul\":3655:3831   */\n    tag_38:\n        /* \"#utility.yul\":3687:3688   */\n      0x00\n        /* \"#utility.yul\":3704:3724   */\n      tag_177\n        /* \"#utility.yul\":3722:3723   */\n      dup3\n        /* \"#utility.yul\":3704:3724   */\n      tag_127\n      jump\t// in\n    tag_177:\n        /* \"#utility.yul\":3699:3724   */\n      swap2\n      pop\n        /* \"#utility.yul\":3738:3758   */\n      tag_178\n        /* \"#utility.yul\":3756:3757   */\n      dup4\n        /* \"#utility.yul\":3738:3758   */\n      tag_127\n      jump\t// in\n    tag_178:\n        /* \"#utility.yul\":3733:3758   */\n      swap3\n      pop\n        /* \"#utility.yul\":3777:3778   */\n      dup3\n        /* \"#utility.yul\":3767:3802   */\n      tag_179\n      jumpi\n        /* \"#utility.yul\":3782:3800   */\n      tag_180\n      tag_133\n      jump\t// in\n    tag_180:\n        /* \"#utility.yul\":3767:3802   */\n    tag_179:\n        /* \"#utility.yul\":3823:3824   */\n      dup3\n        /* \"#utility.yul\":3820:3821   */\n      dup3\n        /* \"#utility.yul\":3816:3825   */\n      mod\n        /* \"#utility.yul\":3811:3825   */\n      swap1\n      pop\n        /* \"#utility.yul\":3655:3831   */\n      swap3\n      swap2\n      pop\n      pop\n      jump\t// out\n        /* \"#utility.yul\":3837:4031   */\n    tag_42:\n        /* \"#utility.yul\":3877:3881   */\n      0x00\n        /* \"#utility.yul\":3897:3917   */\n      tag_182\n        /* \"#utility.yul\":3915:3916   */\n      dup3\n        /* \"#utility.yul\":3897:3917   */\n      tag_127\n      jump\t// in\n    tag_182:\n        /* \"#utility.yul\":3892:3917   */\n      swap2\n      pop\n        /* \"#utility.yul\":3931:3951   */\n      tag_183\n        /* \"#utility.yul\":3949:3950   */\n      dup4\n        /* \"#utility.yul\":3931:3951   */\n      tag_127\n      jump\t// in\n    tag_183:\n        /* \"#utility.yul\":3926:3951   */\n      swap3\n      pop\n        /* \"#utility.yul\":3975:3976   */\n      dup3\n        /* \"#utility.yul\":3972:3973   */\n      dup3\n        /* \"#utility.yul\":3968:3977   */\n      sub\n        /* \"#utility.yul\":3960:3977   */\n      swap1\n      pop\n        /* \"#utility.yul\":3999:4000   */\n      dup2\n        /* \"#utility.yul\":3993:3997   */\n      dup2\n        /* \"#utility.yul\":3990:4001   */\n      gt\n        /* \"#utility.yul\":3987:4024   */\n      iszero\n      tag_184\n      jumpi\n        /* \"#utility.yul\":4004:4022   */\n      tag_185\n      tag_132\n      jump\t// in\n    tag_185:\n        /* \"#utility.yul\":3987:4024   */\n    tag_184:\n        /* \"#utility.yul\":3837:4031   */\n      swap3\n      swap2\n      pop\n      pop\n      jump\t// out\n        /* \"#utility.yul\":4037:4447   */\n    tag_98:\n        /* \"#utility.yul\":4077:4084   */\n      0x00\n        /* \"#utility.yul\":4100:4120   */\n      tag_187\n        /* \"#utility.yul\":4118:4119   */\n      dup3\n        /* \"#utility.yul\":4100:4120   */\n      tag_127\n      jump\t// in\n    tag_187:\n        /* \"#utility.yul\":4095:4120   */\n      swap2\n      pop\n        /* \"#utility.yul\":4134:4154   */\n      tag_188\n        /* \"#utility.yul\":4152:4153   */\n      dup4\n        /* \"#utility.yul\":4134:4154   */\n      tag_127\n      jump\t// in\n    tag_188:\n        /* \"#utility.yul\":4129:4154   */\n      swap3\n      pop\n        /* \"#utility.yul\":4189:4190   */\n      dup3\n        /* \"#utility.yul\":4186:4187   */\n      dup3\n        /* \"#utility.yul\":4182:4191   */\n      mul\n        /* \"#utility.yul\":4211:4241   */\n      tag_189\n        /* \"#utility.yul\":4229:4240   */\n      dup2\n        /* \"#utility.yul\":4211:4241   */\n      tag_127\n      jump\t// in\n    tag_189:\n        /* \"#utility.yul\":4200:4241   */\n      swap2\n      pop\n        /* \"#utility.yul\":4390:4391   */\n      dup3\n        /* \"#utility.yul\":4381:4388   */\n      dup3\n        /* \"#utility.yul\":4377:4392   */\n      div\n        /* \"#utility.yul\":4374:4375   */\n      dup5\n        /* \"#utility.yul\":4371:4393   */\n      eq\n        /* \"#utility.yul\":4351:4352   */\n      dup4\n        /* \"#utility.yul\":4344:4353   */\n      iszero\n        /* \"#utility.yul\":4324:4407   */\n      or\n        /* \"#utility.yul\":4301:4440   */\n      tag_190\n      jumpi\n        /* \"#utility.yul\":4420:4438   */\n      tag_191\n      tag_132\n      jump\t// in\n    tag_191:\n        /* \"#utility.yul\":4301:4440   */\n    tag_190:\n        /* \"#utility.yul\":4085:4447   */\n      pop\n        /* \"#utility.yul\":4037:4447   */\n      swap3\n      swap2\n      pop\n      pop\n      jump\t// out\n\n    auxdata: 0xa264697066735822122079f3da78405e5c1155b2bec553f77db43202c89576aeab1f40f245f3a788a0d364736f6c63430008180033\n}\n",
				"bytecode": {
					"linkReferences": {},
					"object": "608060405234801561000f575f80fd5b50610cc18061001d5f395ff3fe608060405234801561000f575f80fd5b5060043610610029575f3560e01c806368f9dab21461002d575b5f80fd5b61004760048036038101906100429190610a98565b61005d565b6040516100549190610b41565b60405180910390f35b5f6100666109e3565b6100966010868690508989905061007d9190610b87565b6100879190610b87565b8261022e90919063ffffffff16565b506100ed85858080601f0160208091040260200160405190810160405280939291908181526020018383808284375f81840152601f19601f820116905080830192505050505050508261029690919063ffffffff16565b5061014487878080601f0160208091040260200160405190810160405280939291908181526020018383808284375f81840152601f19601f820116905080830192505050505050508261029690919063ffffffff16565b505f610152825f01516102b7565b90505f84111561021157610165826107c0565b5061017c5f60601b836107d690919063ffffffff16565b506101d388888080601f0160208091040260200160405190810160405280939291908181526020018383808284375f81840152601f19601f820116905080830192505050505050508361029690919063ffffffff16565b505f5b8481101561020f576101f35f83856108069092919063ffffffff16565b50610200835f01516102b7565b915080806001019150506101d6565b505b806bffffffffffffffffffffffff19169250505095945050505050565b6102366109e3565b5f6020836102449190610be7565b14610270576020826102569190610be7565b60206102629190610c17565b8261026d9190610b87565b91505b818360200181815250506040518084525f81528281016020016040525082905092915050565b61029e6109e3565b6102af83845f015151848551610833565b905092915050565b5f6040518251602084019350604067ffffffffffffffc0600183011601600982820310600181036102e9576040820191505b50776745230100efcdab890098badcfe001032547600c3d2e1f0610340565b5f838310156103395782820151905082840393506020841015610338576001846020036101000a03198082169150505b5b9392505050565b5f5b8281101561074057610355848289610308565b8552610365846020830189610308565b6020860152604081850310600181036103815760808286038701535b50604083038114600181036103a0576008850260208701511760208701525b5060405b608081101561042c5760408103860151603882038701511860208203870151600c830388015118187c010000000100000001000000010000000100000001000000010000000163800000008204167ffffffffefffffffefffffffefffffffefffffffefffffffefffffffefffffffe6002830216179050808288015250600c810190506103a4565b5060805b6101408110156104b957608081038601516070820387015118604082038701516018830388015118187c030000000300000003000000030000000300000003000000030000000363400000008204167ffffffffcfffffffcfffffffcfffffffcfffffffcfffffffcfffffffcfffffffc6004830216179050808288015250601881019050610430565b50815f805f5b605081101561071257601481045f81146104f0576001811461053a576002811461057757600381146105da57610613565b6501000000000085046a01000000000000000000008604189350836f01000000000000000000000000000000860416935083650100000000008604189350635a8279999250610613565b6a010000000000000000000085046f01000000000000000000000000000000860418935083650100000000008604189350636ed9eba19250610613565b6a010000000000000000000085046f01000000000000000000000000000000860417935083650100000000008604169350836a010000000000000000000086046f01000000000000000000000000000000870416179350638f1bbcdc9250610613565b6a010000000000000000000085046f0100000000000000000000000000000086041893508365010000000000860418935063ca62c1d692505b50601f770800000000000000000000000000000000000000000000008504168063ffffffe073080000000000000000000000000000000000000087041617905080840190508063ffffffff86160190508083019050807c0100000000000000000000000000000000000000000000000000000000600484028c0151040190507401000000000000000000000000000000000000000081026501000000000086041794506a0100000000000000000000633fffffff6a040000000000000000000087041663c00000006604000000000000880416170277ffffffff00ffffffff000000000000ffffffff00ffffffff8616179450506001810190506104bf565b5077ffffffff00ffffffff00ffffffff00ffffffff00ffffffff838601169450505050604081019050610342565b506c0100000000000000000000000063ffffffff821667ffffffff000000006101008404166bffffffff0000000000000000620100008504166fffffffff000000000000000000000000630100000086041673ffffffff000000000000000000000000000000006401000000008704161717171702945050505050919050565b6107c86109e3565b81515f815250819050919050565b6107de6109e3565b6107fe83845f015151846bffffffffffffffffffffffff1916601461091f565b905092915050565b61080e6109e3565b61082a8484846bffffffffffffffffffffffff1916601461091f565b90509392505050565b61083b6109e3565b8251821115610848575f80fd5b846020015182856108599190610b87565b111561088e5761088d85600261087e886020015188876108799190610b87565b6109a6565b6108889190610c4a565b6109c1565b5b5f808651805187602083010193508088870111156108ac5787860182525b60208701925050505b602084106108f357805182526020826108ce9190610b87565b91506020816108dd9190610b87565b90506020846108ec9190610c17565b93506108b5565b5f6001856020036101000a03905080198251168184511681811785525050508692505050949350505050565b6109276109e3565b846020015184836109389190610b87565b11156109605761095f85600286856109509190610b87565b61095a9190610c4a565b6109c1565b5b5f6001836101000a0390508260200360080284901c935085518386820101858319825116178152815185880111156109985784870182525b505050849050949350505050565b5f818311156109b7578290506109bb565b8190505b92915050565b5f825f015190506109d2838361022e565b506109dd8382610296565b50505050565b6040518060400160405280606081526020015f81525090565b5f80fd5b5f80fd5b5f80fd5b5f80fd5b5f80fd5b5f8083601f840112610a2557610a24610a04565b5b8235905067ffffffffffffffff811115610a4257610a41610a08565b5b602083019150836001820283011115610a5e57610a5d610a0c565b5b9250929050565b5f819050919050565b610a7781610a65565b8114610a81575f80fd5b50565b5f81359050610a9281610a6e565b92915050565b5f805f805f60608688031215610ab157610ab06109fc565b5b5f86013567ffffffffffffffff811115610ace57610acd610a00565b5b610ada88828901610a10565b9550955050602086013567ffffffffffffffff811115610afd57610afc610a00565b5b610b0988828901610a10565b93509350506040610b1c88828901610a84565b9150509295509295909350565b5f819050919050565b610b3b81610b29565b82525050565b5f602082019050610b545f830184610b32565b92915050565b7f4e487b71000000000000000000000000000000000000000000000000000000005f52601160045260245ffd5b5f610b9182610a65565b9150610b9c83610a65565b9250828201905080821115610bb457610bb3610b5a565b5b92915050565b7f4e487b71000000000000000000000000000000000000000000000000000000005f52601260045260245ffd5b5f610bf182610a65565b9150610bfc83610a65565b925082610c0c57610c0b610bba565b5b828206905092915050565b5f610c2182610a65565b9150610c2c83610a65565b9250828203905081811115610c4457610c43610b5a565b5b92915050565b5f610c5482610a65565b9150610c5f83610a65565b9250828202610c6d81610a65565b91508282048414831517610c8457610c83610b5a565b5b509291505056fea264697066735822122079f3da78405e5c1155b2bec553f77db43202c89576aeab1f40f245f3a788a0d364736f6c63430008180033",
					"opcodes": "PUSH1 0x80 PUSH1 0x40 MSTORE CALLVALUE DUP1 ISZERO PUSH2 0xF JUMPI PUSH0 DUP1 REVERT JUMPDEST POP PUSH2 0xCC1 DUP1 PUSH2 0x1D PUSH0 CODECOPY PUSH0 RETURN INVALID PUSH1 0x80 PUSH1 0x40 MSTORE CALLVALUE DUP1 ISZERO PUSH2 0xF JUMPI PUSH0 DUP1 REVERT JUMPDEST POP PUSH1 0x4 CALLDATASIZE LT PUSH2 0x29 JUMPI PUSH0 CALLDATALOAD PUSH1 0xE0 SHR DUP1 PUSH4 0x68F9DAB2 EQ PUSH2 0x2D JUMPI JUMPDEST PUSH0 DUP1 REVERT JUMPDEST PUSH2 0x47 PUSH1 0x4 DUP1 CALLDATASIZE SUB DUP2 ADD SWAP1 PUSH2 0x42 SWAP2 SWAP1 PUSH2 0xA98 JUMP JUMPDEST PUSH2 0x5D JUMP JUMPDEST PUSH1 0x40 MLOAD PUSH2 0x54 SWAP2 SWAP1 PUSH2 0xB41 JUMP JUMPDEST PUSH1 0x40 MLOAD DUP1 SWAP2 SUB SWAP1 RETURN JUMPDEST PUSH0 PUSH2 0x66 PUSH2 0x9E3 JUMP JUMPDEST PUSH2 0x96 PUSH1 0x10 DUP7 DUP7 SWAP1 POP DUP10 DUP10 SWAP1 POP PUSH2 0x7D SWAP2 SWAP1 PUSH2 0xB87 JUMP JUMPDEST PUSH2 0x87 SWAP2 SWAP1 PUSH2 0xB87 JUMP JUMPDEST DUP3 PUSH2 0x22E SWAP1 SWAP2 SWAP1 PUSH4 0xFFFFFFFF AND JUMP JUMPDEST POP PUSH2 0xED DUP6 DUP6 DUP1 DUP1 PUSH1 0x1F ADD PUSH1 0x20 DUP1 SWAP2 DIV MUL PUSH1 0x20 ADD PUSH1 0x40 MLOAD SWAP1 DUP2 ADD PUSH1 0x40 MSTORE DUP1 SWAP4 SWAP3 SWAP2 SWAP1 DUP2 DUP2 MSTORE PUSH1 0x20 ADD DUP4 DUP4 DUP1 DUP3 DUP5 CALLDATACOPY PUSH0 DUP2 DUP5 ADD MSTORE PUSH1 0x1F NOT PUSH1 0x1F DUP3 ADD AND SWAP1 POP DUP1 DUP4 ADD SWAP3 POP POP POP POP POP POP POP DUP3 PUSH2 0x296 SWAP1 SWAP2 SWAP1 PUSH4 0xFFFFFFFF AND JUMP JUMPDEST POP PUSH2 0x144 DUP8 DUP8 DUP1 DUP1 PUSH1 0x1F ADD PUSH1 0x20 DUP1 SWAP2 DIV MUL PUSH1 0x20 ADD PUSH1 0x40 MLOAD SWAP1 DUP2 ADD PUSH1 0x40 MSTORE DUP1 SWAP4 SWAP3 SWAP2 SWAP1 DUP2 DUP2 MSTORE PUSH1 0x20 ADD DUP4 DUP4 DUP1 DUP3 DUP5 CALLDATACOPY PUSH0 DUP2 DUP5 ADD MSTORE PUSH1 0x1F NOT PUSH1 0x1F DUP3 ADD AND SWAP1 POP DUP1 DUP4 ADD SWAP3 POP POP POP POP POP POP POP DUP3 PUSH2 0x296 SWAP1 SWAP2 SWAP1 PUSH4 0xFFFFFFFF AND JUMP JUMPDEST POP PUSH0 PUSH2 0x152 DUP3 PUSH0 ADD MLOAD PUSH2 0x2B7 JUMP JUMPDEST SWAP1 POP PUSH0 DUP5 GT ISZERO PUSH2 0x211 JUMPI PUSH2 0x165 DUP3 PUSH2 0x7C0 JUMP JUMPDEST POP PUSH2 0x17C PUSH0 PUSH1 0x60 SHL DUP4 PUSH2 0x7D6 SWAP1 SWAP2 SWAP1 PUSH4 0xFFFFFFFF AND JUMP JUMPDEST POP PUSH2 0x1D3 DUP9 DUP9 DUP1 DUP1 PUSH1 0x1F ADD PUSH1 0x20 DUP1 SWAP2 DIV MUL PUSH1 0x20 ADD PUSH1 0x40 MLOAD SWAP1 DUP2 ADD PUSH1 0x40 MSTORE DUP1 SWAP4 SWAP3 SWAP2 SWAP1 DUP2 DUP2 MSTORE PUSH1 0x20 ADD DUP4 DUP4 DUP1 DUP3 DUP5 CALLDATACOPY PUSH0 DUP2 DUP5 ADD MSTORE PUSH1 0x1F NOT PUSH1 0x1F DUP3 ADD AND SWAP1 POP DUP1 DUP4 ADD SWAP3 POP POP POP POP POP POP POP DUP4 PUSH2 0x296 SWAP1 SWAP2 SWAP1 PUSH4 0xFFFFFFFF AND JUMP JUMPDEST POP PUSH0 JUMPDEST DUP5 DUP2 LT ISZERO PUSH2 0x20F JUMPI PUSH2 0x1F3 PUSH0 DUP4 DUP6 PUSH2 0x806 SWAP1 SWAP3 SWAP2 SWAP1 PUSH4 0xFFFFFFFF AND JUMP JUMPDEST POP PUSH2 0x200 DUP4 PUSH0 ADD MLOAD PUSH2 0x2B7 JUMP JUMPDEST SWAP2 POP DUP1 DUP1 PUSH1 0x1 ADD SWAP2 POP POP PUSH2 0x1D6 JUMP JUMPDEST POP JUMPDEST DUP1 PUSH12 0xFFFFFFFFFFFFFFFFFFFFFFFF NOT AND SWAP3 POP POP POP SWAP6 SWAP5 POP POP POP POP POP JUMP JUMPDEST PUSH2 0x236 PUSH2 0x9E3 JUMP JUMPDEST PUSH0 PUSH1 0x20 DUP4 PUSH2 0x244 SWAP2 SWAP1 PUSH2 0xBE7 JUMP JUMPDEST EQ PUSH2 0x270 JUMPI PUSH1 0x20 DUP3 PUSH2 0x256 SWAP2 SWAP1 PUSH2 0xBE7 JUMP JUMPDEST PUSH1 0x20 PUSH2 0x262 SWAP2 SWAP1 PUSH2 0xC17 JUMP JUMPDEST DUP3 PUSH2 0x26D SWAP2 SWAP1 PUSH2 0xB87 JUMP JUMPDEST SWAP2 POP JUMPDEST DUP2 DUP4 PUSH1 0x20 ADD DUP2 DUP2 MSTORE POP POP PUSH1 0x40 MLOAD DUP1 DUP5 MSTORE PUSH0 DUP2 MSTORE DUP3 DUP2 ADD PUSH1 0x20 ADD PUSH1 0x40 MSTORE POP DUP3 SWAP1 POP SWAP3 SWAP2 POP POP JUMP JUMPDEST PUSH2 0x29E PUSH2 0x9E3 JUMP JUMPDEST PUSH2 0x2AF DUP4 DUP5 PUSH0 ADD MLOAD MLOAD DUP5 DUP6 MLOAD PUSH2 0x833 JUMP JUMPDEST SWAP1 POP SWAP3 SWAP2 POP POP JUMP JUMPDEST PUSH0 PUSH1 0x40 MLOAD DUP3 MLOAD PUSH1 0x20 DUP5 ADD SWAP4 POP PUSH1 0x40 PUSH8 0xFFFFFFFFFFFFFFC0 PUSH1 0x1 DUP4 ADD AND ADD PUSH1 0x9 DUP3 DUP3 SUB LT PUSH1 0x1 DUP2 SUB PUSH2 0x2E9 JUMPI PUSH1 0x40 DUP3 ADD SWAP2 POP JUMPDEST POP PUSH24 0x6745230100EFCDAB890098BADCFE001032547600C3D2E1F0 PUSH2 0x340 JUMP JUMPDEST PUSH0 DUP4 DUP4 LT ISZERO PUSH2 0x339 JUMPI DUP3 DUP3 ADD MLOAD SWAP1 POP DUP3 DUP5 SUB SWAP4 POP PUSH1 0x20 DUP5 LT ISZERO PUSH2 0x338 JUMPI PUSH1 0x1 DUP5 PUSH1 0x20 SUB PUSH2 0x100 EXP SUB NOT DUP1 DUP3 AND SWAP2 POP POP JUMPDEST JUMPDEST SWAP4 SWAP3 POP POP POP JUMP JUMPDEST PUSH0 JUMPDEST DUP3 DUP2 LT ISZERO PUSH2 0x740 JUMPI PUSH2 0x355 DUP5 DUP3 DUP10 PUSH2 0x308 JUMP JUMPDEST DUP6 MSTORE PUSH2 0x365 DUP5 PUSH1 0x20 DUP4 ADD DUP10 PUSH2 0x308 JUMP JUMPDEST PUSH1 0x20 DUP7 ADD MSTORE PUSH1 0x40 DUP2 DUP6 SUB LT PUSH1 0x1 DUP2 SUB PUSH2 0x381 JUMPI PUSH1 0x80 DUP3 DUP7 SUB DUP8 ADD MSTORE8 JUMPDEST POP PUSH1 0x40 DUP4 SUB DUP2 EQ PUSH1 0x1 DUP2 SUB PUSH2 0x3A0 JUMPI PUSH1 0x8 DUP6 MUL PUSH1 0x20 DUP8 ADD MLOAD OR PUSH1 0x20 DUP8 ADD MSTORE JUMPDEST POP PUSH1 0x40 JUMPDEST PUSH1 0x80 DUP2 LT ISZERO PUSH2 0x42C JUMPI PUSH1 0x40 DUP2 SUB DUP7 ADD MLOAD PUSH1 0x38 DUP3 SUB DUP8 ADD MLOAD XOR PUSH1 0x20 DUP3 SUB DUP8 ADD MLOAD PUSH1 0xC DUP4 SUB DUP9 ADD MLOAD XOR XOR PUSH29 0x100000001000000010000000100000001000000010000000100000001 PUSH4 0x80000000 DUP3 DIV AND PUSH32 0xFFFFFFFEFFFFFFFEFFFFFFFEFFFFFFFEFFFFFFFEFFFFFFFEFFFFFFFEFFFFFFFE PUSH1 0x2 DUP4 MUL AND OR SWAP1 POP DUP1 DUP3 DUP9 ADD MSTORE POP PUSH1 0xC DUP2 ADD SWAP1 POP PUSH2 0x3A4 JUMP JUMPDEST POP PUSH1 0x80 JUMPDEST PUSH2 0x140 DUP2 LT ISZERO PUSH2 0x4B9 JUMPI PUSH1 0x80 DUP2 SUB DUP7 ADD MLOAD PUSH1 0x70 DUP3 SUB DUP8 ADD MLOAD XOR PUSH1 0x40 DUP3 SUB DUP8 ADD MLOAD PUSH1 0x18 DUP4 SUB DUP9 ADD MLOAD XOR XOR PUSH29 0x300000003000000030000000300000003000000030000000300000003 PUSH4 0x40000000 DUP3 DIV AND PUSH32 0xFFFFFFFCFFFFFFFCFFFFFFFCFFFFFFFCFFFFFFFCFFFFFFFCFFFFFFFCFFFFFFFC PUSH1 0x4 DUP4 MUL AND OR SWAP1 POP DUP1 DUP3 DUP9 ADD MSTORE POP PUSH1 0x18 DUP2 ADD SWAP1 POP PUSH2 0x430 JUMP JUMPDEST POP DUP2 PUSH0 DUP1 PUSH0 JUMPDEST PUSH1 0x50 DUP2 LT ISZERO PUSH2 0x712 JUMPI PUSH1 0x14 DUP2 DIV PUSH0 DUP2 EQ PUSH2 0x4F0 JUMPI PUSH1 0x1 DUP2 EQ PUSH2 0x53A JUMPI PUSH1 0x2 DUP2 EQ PUSH2 0x577 JUMPI PUSH1 0x3 DUP2 EQ PUSH2 0x5DA JUMPI PUSH2 0x613 JUMP JUMPDEST PUSH6 0x10000000000 DUP6 DIV PUSH11 0x100000000000000000000 DUP7 DIV XOR SWAP4 POP DUP4 PUSH16 0x1000000000000000000000000000000 DUP7 DIV AND SWAP4 POP DUP4 PUSH6 0x10000000000 DUP7 DIV XOR SWAP4 POP PUSH4 0x5A827999 SWAP3 POP PUSH2 0x613 JUMP JUMPDEST PUSH11 0x100000000000000000000 DUP6 DIV PUSH16 0x1000000000000000000000000000000 DUP7 DIV XOR SWAP4 POP DUP4 PUSH6 0x10000000000 DUP7 DIV XOR SWAP4 POP PUSH4 0x6ED9EBA1 SWAP3 POP PUSH2 0x613 JUMP JUMPDEST PUSH11 0x100000000000000000000 DUP6 DIV PUSH16 0x1000000000000000000000000000000 DUP7 DIV OR SWAP4 POP DUP4 PUSH6 0x10000000000 DUP7 DIV AND SWAP4 POP DUP4 PUSH11 0x100000000000000000000 DUP7 DIV PUSH16 0x1000000000000000000000000000000 DUP8 DIV AND OR SWAP4 POP PUSH4 0x8F1BBCDC SWAP3 POP PUSH2 0x613 JUMP JUMPDEST PUSH11 0x100000000000000000000 DUP6 DIV PUSH16 0x1000000000000000000000000000000 DUP7 DIV XOR SWAP4 POP DUP4 PUSH6 0x10000000000 DUP7 DIV XOR SWAP4 POP PUSH4 0xCA62C1D6 SWAP3 POP JUMPDEST POP PUSH1 0x1F PUSH24 0x80000000000000000000000000000000000000000000000 DUP6 DIV AND DUP1 PUSH4 0xFFFFFFE0 PUSH20 0x800000000000000000000000000000000000000 DUP8 DIV AND OR SWAP1 POP DUP1 DUP5 ADD SWAP1 POP DUP1 PUSH4 0xFFFFFFFF DUP7 AND ADD SWAP1 POP DUP1 DUP4 ADD SWAP1 POP DUP1 PUSH29 0x100000000000000000000000000000000000000000000000000000000 PUSH1 0x4 DUP5 MUL DUP13 ADD MLOAD DIV ADD SWAP1 POP PUSH21 0x10000000000000000000000000000000000000000 DUP2 MUL PUSH6 0x10000000000 DUP7 DIV OR SWAP5 POP PUSH11 0x100000000000000000000 PUSH4 0x3FFFFFFF PUSH11 0x400000000000000000000 DUP8 DIV AND PUSH4 0xC0000000 PUSH7 0x4000000000000 DUP9 DIV AND OR MUL PUSH24 0xFFFFFFFF00FFFFFFFF000000000000FFFFFFFF00FFFFFFFF DUP7 AND OR SWAP5 POP POP PUSH1 0x1 DUP2 ADD SWAP1 POP PUSH2 0x4BF JUMP JUMPDEST POP PUSH24 0xFFFFFFFF00FFFFFFFF00FFFFFFFF00FFFFFFFF00FFFFFFFF DUP4 DUP7 ADD AND SWAP5 POP POP POP POP PUSH1 0x40 DUP2 ADD SWAP1 POP PUSH2 0x342 JUMP JUMPDEST POP PUSH13 0x1000000000000000000000000 PUSH4 0xFFFFFFFF DUP3 AND PUSH8 0xFFFFFFFF00000000 PUSH2 0x100 DUP5 DIV AND PUSH12 0xFFFFFFFF0000000000000000 PUSH3 0x10000 DUP6 DIV AND PUSH16 0xFFFFFFFF000000000000000000000000 PUSH4 0x1000000 DUP7 DIV AND PUSH20 0xFFFFFFFF00000000000000000000000000000000 PUSH5 0x100000000 DUP8 DIV AND OR OR OR OR MUL SWAP5 POP POP POP POP POP SWAP2 SWAP1 POP JUMP JUMPDEST PUSH2 0x7C8 PUSH2 0x9E3 JUMP JUMPDEST DUP2 MLOAD PUSH0 DUP2 MSTORE POP DUP2 SWAP1 POP SWAP2 SWAP1 POP JUMP JUMPDEST PUSH2 0x7DE PUSH2 0x9E3 JUMP JUMPDEST PUSH2 0x7FE DUP4 DUP5 PUSH0 ADD MLOAD MLOAD DUP5 PUSH12 0xFFFFFFFFFFFFFFFFFFFFFFFF NOT AND PUSH1 0x14 PUSH2 0x91F JUMP JUMPDEST SWAP1 POP SWAP3 SWAP2 POP POP JUMP JUMPDEST PUSH2 0x80E PUSH2 0x9E3 JUMP JUMPDEST PUSH2 0x82A DUP5 DUP5 DUP5 PUSH12 0xFFFFFFFFFFFFFFFFFFFFFFFF NOT AND PUSH1 0x14 PUSH2 0x91F JUMP JUMPDEST SWAP1 POP SWAP4 SWAP3 POP POP POP JUMP JUMPDEST PUSH2 0x83B PUSH2 0x9E3 JUMP JUMPDEST DUP3 MLOAD DUP3 GT ISZERO PUSH2 0x848 JUMPI PUSH0 DUP1 REVERT JUMPDEST DUP5 PUSH1 0x20 ADD MLOAD DUP3 DUP6 PUSH2 0x859 SWAP2 SWAP1 PUSH2 0xB87 JUMP JUMPDEST GT ISZERO PUSH2 0x88E JUMPI PUSH2 0x88D DUP6 PUSH1 0x2 PUSH2 0x87E DUP9 PUSH1 0x20 ADD MLOAD DUP9 DUP8 PUSH2 0x879 SWAP2 SWAP1 PUSH2 0xB87 JUMP JUMPDEST PUSH2 0x9A6 JUMP JUMPDEST PUSH2 0x888 SWAP2 SWAP1 PUSH2 0xC4A JUMP JUMPDEST PUSH2 0x9C1 JUMP JUMPDEST JUMPDEST PUSH0 DUP1 DUP7 MLOAD DUP1 MLOAD DUP8 PUSH1 0x20 DUP4 ADD ADD SWAP4 POP DUP1 DUP9 DUP8 ADD GT ISZERO PUSH2 0x8AC JUMPI DUP8 DUP7 ADD DUP3 MSTORE JUMPDEST PUSH1 0x20 DUP8 ADD SWAP3 POP POP POP JUMPDEST PUSH1 0x20 DUP5 LT PUSH2 0x8F3 JUMPI DUP1 MLOAD DUP3 MSTORE PUSH1 0x20 DUP3 PUSH2 0x8CE SWAP2 SWAP1 PUSH2 0xB87 JUMP JUMPDEST SWAP2 POP PUSH1 0x20 DUP2 PUSH2 0x8DD SWAP2 SWAP1 PUSH2 0xB87 JUMP JUMPDEST SWAP1 POP PUSH1 0x20 DUP5 PUSH2 0x8EC SWAP2 SWAP1 PUSH2 0xC17 JUMP JUMPDEST SWAP4 POP PUSH2 0x8B5 JUMP JUMPDEST PUSH0 PUSH1 0x1 DUP6 PUSH1 0x20 SUB PUSH2 0x100 EXP SUB SWAP1 POP DUP1 NOT DUP3 MLOAD AND DUP2 DUP5 MLOAD AND DUP2 DUP2 OR DUP6 MSTORE POP POP POP DUP7 SWAP3 POP POP POP SWAP5 SWAP4 POP POP POP POP JUMP JUMPDEST PUSH2 0x927 PUSH2 0x9E3 JUMP JUMPDEST DUP5 PUSH1 0x20 ADD MLOAD DUP5 DUP4 PUSH2 0x938 SWAP2 SWAP1 PUSH2 0xB87 JUMP JUMPDEST GT ISZERO PUSH2 0x960 JUMPI PUSH2 0x95F DUP6 PUSH1 0x2 DUP7 DUP6 PUSH2 0x950 SWAP2 SWAP1 PUSH2 0xB87 JUMP JUMPDEST PUSH2 0x95A SWAP2 SWAP1 PUSH2 0xC4A JUMP JUMPDEST PUSH2 0x9C1 JUMP JUMPDEST JUMPDEST PUSH0 PUSH1 0x1 DUP4 PUSH2 0x100 EXP SUB SWAP1 POP DUP3 PUSH1 0x20 SUB PUSH1 0x8 MUL DUP5 SWAP1 SHR SWAP4 POP DUP6 MLOAD DUP4 DUP7 DUP3 ADD ADD DUP6 DUP4 NOT DUP3 MLOAD AND OR DUP2 MSTORE DUP2 MLOAD DUP6 DUP9 ADD GT ISZERO PUSH2 0x998 JUMPI DUP5 DUP8 ADD DUP3 MSTORE JUMPDEST POP POP POP DUP5 SWAP1 POP SWAP5 SWAP4 POP POP POP POP JUMP JUMPDEST PUSH0 DUP2 DUP4 GT ISZERO PUSH2 0x9B7 JUMPI DUP3 SWAP1 POP PUSH2 0x9BB JUMP JUMPDEST DUP2 SWAP1 POP JUMPDEST SWAP3 SWAP2 POP POP JUMP JUMPDEST PUSH0 DUP3 PUSH0 ADD MLOAD SWAP1 POP PUSH2 0x9D2 DUP4 DUP4 PUSH2 0x22E JUMP JUMPDEST POP PUSH2 0x9DD DUP4 DUP3 PUSH2 0x296 JUMP JUMPDEST POP POP POP POP JUMP JUMPDEST PUSH1 0x40 MLOAD DUP1 PUSH1 0x40 ADD PUSH1 0x40 MSTORE DUP1 PUSH1 0x60 DUP2 MSTORE PUSH1 0x20 ADD PUSH0 DUP2 MSTORE POP SWAP1 JUMP JUMPDEST PUSH0 DUP1 REVERT JUMPDEST PUSH0 DUP1 REVERT JUMPDEST PUSH0 DUP1 REVERT JUMPDEST PUSH0 DUP1 REVERT JUMPDEST PUSH0 DUP1 REVERT JUMPDEST PUSH0 DUP1 DUP4 PUSH1 0x1F DUP5 ADD SLT PUSH2 0xA25 JUMPI PUSH2 0xA24 PUSH2 0xA04 JUMP JUMPDEST JUMPDEST DUP3 CALLDATALOAD SWAP1 POP PUSH8 0xFFFFFFFFFFFFFFFF DUP2 GT ISZERO PUSH2 0xA42 JUMPI PUSH2 0xA41 PUSH2 0xA08 JUMP JUMPDEST JUMPDEST PUSH1 0x20 DUP4 ADD SWAP2 POP DUP4 PUSH1 0x1 DUP3 MUL DUP4 ADD GT ISZERO PUSH2 0xA5E JUMPI PUSH2 0xA5D PUSH2 0xA0C JUMP JUMPDEST JUMPDEST SWAP3 POP SWAP3 SWAP1 POP JUMP JUMPDEST PUSH0 DUP2 SWAP1 POP SWAP2 SWAP1 POP JUMP JUMPDEST PUSH2 0xA77 DUP2 PUSH2 0xA65 JUMP JUMPDEST DUP2 EQ PUSH2 0xA81 JUMPI PUSH0 DUP1 REVERT JUMPDEST POP JUMP JUMPDEST PUSH0 DUP2 CALLDATALOAD SWAP1 POP PUSH2 0xA92 DUP2 PUSH2 0xA6E JUMP JUMPDEST SWAP3 SWAP2 POP POP JUMP JUMPDEST PUSH0 DUP1 PUSH0 DUP1 PUSH0 PUSH1 0x60 DUP7 DUP9 SUB SLT ISZERO PUSH2 0xAB1 JUMPI PUSH2 0xAB0 PUSH2 0x9FC JUMP JUMPDEST JUMPDEST PUSH0 DUP7 ADD CALLDATALOAD PUSH8 0xFFFFFFFFFFFFFFFF DUP2 GT ISZERO PUSH2 0xACE JUMPI PUSH2 0xACD PUSH2 0xA00 JUMP JUMPDEST JUMPDEST PUSH2 0xADA DUP9 DUP3 DUP10 ADD PUSH2 0xA10 JUMP JUMPDEST SWAP6 POP SWAP6 POP POP PUSH1 0x20 DUP7 ADD CALLDATALOAD PUSH8 0xFFFFFFFFFFFFFFFF DUP2 GT ISZERO PUSH2 0xAFD JUMPI PUSH2 0xAFC PUSH2 0xA00 JUMP JUMPDEST JUMPDEST PUSH2 0xB09 DUP9 DUP3 DUP10 ADD PUSH2 0xA10 JUMP JUMPDEST SWAP4 POP SWAP4 POP POP PUSH1 0x40 PUSH2 0xB1C DUP9 DUP3 DUP10 ADD PUSH2 0xA84 JUMP JUMPDEST SWAP2 POP POP SWAP3 SWAP6 POP SWAP3 SWAP6 SWAP1 SWAP4 POP JUMP JUMPDEST PUSH0 DUP2 SWAP1 POP SWAP2 SWAP1 POP JUMP JUMPDEST PUSH2 0xB3B DUP2 PUSH2 0xB29 JUMP JUMPDEST DUP3 MSTORE POP POP JUMP JUMPDEST PUSH0 PUSH1 0x20 DUP3 ADD SWAP1 POP PUSH2 0xB54 PUSH0 DUP4 ADD DUP5 PUSH2 0xB32 JUMP JUMPDEST SWAP3 SWAP2 POP POP JUMP JUMPDEST PUSH32 0x4E487B7100000000000000000000000000000000000000000000000000000000 PUSH0 MSTORE PUSH1 0x11 PUSH1 0x4 MSTORE PUSH1 0x24 PUSH0 REVERT JUMPDEST PUSH0 PUSH2 0xB91 DUP3 PUSH2 0xA65 JUMP JUMPDEST SWAP2 POP PUSH2 0xB9C DUP4 PUSH2 0xA65 JUMP JUMPDEST SWAP3 POP DUP3 DUP3 ADD SWAP1 POP DUP1 DUP3 GT ISZERO PUSH2 0xBB4 JUMPI PUSH2 0xBB3 PUSH2 0xB5A JUMP JUMPDEST JUMPDEST SWAP3 SWAP2 POP POP JUMP JUMPDEST PUSH32 0x4E487B7100000000000000000000000000000000000000000000000000000000 PUSH0 MSTORE PUSH1 0x12 PUSH1 0x4 MSTORE PUSH1 0x24 PUSH0 REVERT JUMPDEST PUSH0 PUSH2 0xBF1 DUP3 PUSH2 0xA65 JUMP JUMPDEST SWAP2 POP PUSH2 0xBFC DUP4 PUSH2 0xA65 JUMP JUMPDEST SWAP3 POP DUP3 PUSH2 0xC0C JUMPI PUSH2 0xC0B PUSH2 0xBBA JUMP JUMPDEST JUMPDEST DUP3 DUP3 MOD SWAP1 POP SWAP3 SWAP2 POP POP JUMP JUMPDEST PUSH0 PUSH2 0xC21 DUP3 PUSH2 0xA65 JUMP JUMPDEST SWAP2 POP PUSH2 0xC2C DUP4 PUSH2 0xA65 JUMP JUMPDEST SWAP3 POP DUP3 DUP3 SUB SWAP1 POP DUP2 DUP2 GT ISZERO PUSH2 0xC44 JUMPI PUSH2 0xC43 PUSH2 0xB5A JUMP JUMPDEST JUMPDEST SWAP3 SWAP2 POP POP JUMP JUMPDEST PUSH0 PUSH2 0xC54 DUP3 PUSH2 0xA65 JUMP JUMPDEST SWAP2 POP PUSH2 0xC5F DUP4 PUSH2 0xA65 JUMP JUMPDEST SWAP3 POP DUP3 DUP3 MUL PUSH2 0xC6D DUP2 PUSH2 0xA65 JUMP JUMPDEST SWAP2 POP DUP3 DUP3 DIV DUP5 EQ DUP4 ISZERO OR PUSH2 0xC84 JUMPI PUSH2 0xC83 PUSH2 0xB5A JUMP JUMPDEST JUMPDEST POP SWAP3 SWAP2 POP POP JUMP INVALID LOG2 PUSH5 0x6970667358 0x22 SLT KECCAK256 PUSH26 0xF3DA78405E5C1155B2BEC553F77DB43202C89576AEAB1F40F245 RETURN 0xA7 DUP9 LOG0 0xD3 PUSH5 0x736F6C6343 STOP ADDMOD XOR STOP CALLER "
				},
				"gasEstimates": {
					"creation": {
						"codeDepositCost": "653000",
						"executionCost": "687",
						"totalCost": "653687"
					},
					"external": {
						"hash(bytes,bytes,uint256)": "infinite"
					}
				},
				"methodIdentifiers": {
					"hash(bytes,bytes,uint256)": "68f9dab2"
				}
			},
			"storageLayout": {
				"storage": [],
				"types": null
			},
			"userdoc": {
				"kind": "user",
				"methods": {},
				"version": 1
			}
		}
	}
}