{
	"data": {
		"bytecode": {
			"linkReferences": {},
			"object": "608060405234801561000f575f80fd5b50610cc18061001d5f395ff3fe608060405234801561000f575f80fd5b5060043610610029575f3560e01c806368f9dab21461002d575b5f80fd5b61004760048036038101906100429190610a98565b61005d565b6040516100549190610b41565b60405180910390f35b5f6100666109e3565b6100966010868690508989905061007d9190610b87565b6100879190610b87565b8261022e90919063ffffffff16565b506100ed85858080601f0160208091040260200160405190810160405280939291908181526020018383808284375f81840152601f19601f820116905080830192505050505050508261029690919063ffffffff16565b5061014487878080601f0160208091040260200160405190810160405280939291908181526020018383808284375f81840152601f19601f820116905080830192505050505050508261029690919063ffffffff16565b505f610152825f01516102b7565b90505f84111561021157610165826107c0565b5061017c5f60601b836107d690919063ffffffff16565b506101d388888080601f0160208091040260200160405190810160405280939291908181526020018383808284375f81840152601f19601f820116905080830192505050505050508361029690919063ffffffff16565b505f5b8481101561020f576101f35f83856108069092919063ffffffff16565b50610200835f01516102b7565b915080806001019150506101d6565b505b806bffffffffffffffffffffffff19169250505095945050505050565b6102366109e3565b5f6020836102449190610be7565b14610270576020826102569190610be7565b60206102629190610c17565b8261026d9190610b87565b91505b818360200181815250506040518084525f81528281016020016040525082905092915050565b61029e6109e3565b6102af83845f015151848551610833565b905092915050565b5f6040518251602084019350604067ffffffffffffffc0600183011601600982820310600181036102e9576040820191505b50776745230100efcdab890098badcfe001032547600c3d2e1f0610340565b5f838310156103395782820151905082840393506020841015610338576001846020036101000a03198082169150505b5b9392505050565b5f5b8281101561074057610355848289610308565b8552610365846020830189610308565b6020860152604081850310600181036103815760808286038701535b50604083038114600181036103a0576008850260208701511760208701525b5060405b608081101561042c5760408103860151603882038701511860208203870151600c830388015118187c010000000100000001000000010000000100000001000000010000000163800000008204167ffffffffefffffffefffffffefffffffefffffffefffffffefffffffefffffffe6002830216179050808288015250600c810190506103a4565b5060805b6101408110156104b957608081038601516070820387015118604082038701516018830388015118187c030000000300000003000000030000000300000003000000030000000363400000008204167ffffffffcfffffffcfffffffcfffffffcfffffffcfffffffcfffffffcfffffffc6004830216179050808288015250601881019050610430565b50815f805f5b605081101561071257601481045f81146104f0576001811461053a576002811461057757600381146105da57610613565b6501000000000085046a01000000000000000000008604189350836f01000000000000000000000000000000860416935083650100000000008604189350635a8279999250610613565b6a010000000000000000000085046f01000000000000000000000000000000860418935083650100000000008604189350636ed9eba19250610613565b6a010000000000000000000085046f01000000000000000000000000000000860417935083650100000000008604169350836a010000000000000000000086046f01000000000000000000000000000000870416179350638f1bbcdc9250610613565b6a010000000000000000000085046f0100000000000000000000000000000086041893508365010000000000860418935063ca62c1d692505b50601f770800000000000000000000000000000000000000000000008504168063ffffffe073080000000000000000000000000000000000000087041617905080840190508063ffffffff86160190508083019050807c0100000000000000000000000000000000000000000000000000000000600484028c0151040190507401000000000000000000000000000000000000000081026501000000000086041794506a0100000000000000000000633fffffff6a040000000000000000000087041663c00000006604000000000000880416170277ffffffff00ffffffff000000000000ffffffff00ffffffff8616179450506001810190506104bf565b5077ffffffff00ffffffff00ffffffff00ffffffff00ffffffff838601169450505050604081019050610342565b506c0100000000000000000000000063ffffffff821667ffffffff000000006101008404166bffffffff0000000000000000620100008504166fffffffff000000000000000000000000630100000086041673ffffffff000000000000000000000000000000006401000000008704161717171702945050505050919050565b6107c86109e3565b81515f815250819050919050565b6107de6109e3565b6107fe83845f015151846bffffffffffffffffffffffff1916601461091f565b905092915050565b61080e6109e3565b61082a8484846bffffffffffffffffffffffff1916601461091f565b90509392505050565b61083b6109e3565b8251821115610848575f80fd5b846020015182856108599190610b87565b111561088e5761088d85600261087e886020015188876108799190610b87565b6109a6565b6108889190610c4a565b6109c1565b5b5f808651805187602083010193508088870111156108ac5787860182525b60208701925050505b602084106108f357805182526020826108ce9190610b87565b91506020816108dd9190610b87565b90506020846108ec9190610c17565b93506108b5565b5f6001856020036101000a03905080198251168184511681811785525050508692505050949350505050565b6109276109e3565b846020015184836109389190610b87565b11156109605761095f85600286856109509190610b87565b61095a9190610c4a565b6109c1565b5b5f6001836101000a0390508260200360080284901c935085518386820101858319825116178152815185880111156109985784870182525b505050849050949350505050565b5f818311156109b7578290506109bb565b8190505b92915050565b5f825f015190506109d2838361022e565b506109dd8382610296565b50505050565b6040518060400160405280606081526020015f81525090565b5f80fd5b5f80fd5b5f80fd5b5f80fd5b5f80fd5b5f8083601f840112610a2557610a24610a04565b5b8235905067ffffffffffffffff811115610a4257610a41610a08565b5b602083019150836001820283011115610a5e57610a5d610a0c565b5b9250929050565b5f819050919050565b610a7781610a65565b8114610a81575f80fd5b50565b5f81359050610a9281610a6e565b92915050565b5f805f805f60608688031215610ab157610ab06109fc565b5b5f86013567ffffffffffffffff811115610ace57610acd610a00565b5b610ada88828901610a10565b9550955050602086013567ffffffffffffffff811115610afd57610afc610a00565b5b610b0988828901610a10565b93509350506040610b1c88828901610a84565b9150509295509295909350565b5f819050919050565b610b3b81610b29565b82525050565b5f602082019050610b545f830184610b32565b92915050565b7f4e487b71000000000000000000000000000000000000000000000000000000005f52601160045260245ffd5b5f610b9182610a65565b9150610b9c83610a65565b9250828201905080821115610bb457610bb3610b5a565b5b92915050565b7f4e487b71000000000000000000000000000000000000000000000000000000005f52601260045260245ffd5b5f610bf182610a65565b9150610bfc83610a65565b925082610c0c57610c0b610bba565b5b828206905092915050565b5f610c2182610a65565b9150610c2c83610a65565b9250828203905081811115610c4457610c43610b5a565b5b92915050565b5f610c5482610a65565b9150610c5f83610a65565b9250828202610c6d81610a65565b91508282048414831517610c8457610c83610b5a565b5b509291505056fea264697066735822122079f3da78405e5c1155b2bec553f77db43202c89576aeab1f40f245f3a788a0d364736f6c63430008180033",
			"opcodes": "PUSH1 0x80 PUSH1 0x40 MSTORE CALLVALUE DUP1 ISZERO PUSH2 0xF JUMPI PUSH0 DUP1 REVERT JUMPDEST POP PUSH2 0xCC1 DUP1 PUSH2 0x1D PUSH0 CODECOPY PUSH0 RETURN INVALID PUSH1 0x80 PUSH1 0x40 MSTORE CALLVALUE DUP1 ISZERO PUSH2 0xF JUMPI PUSH0 DUP1 REVERT JUMPDEST POP PUSH1 0x4 CALLDATASIZE LT PUSH2 0x29 JUMPI PUSH0 CALLDATALOAD PUSH1 0xE0 SHR DUP1 PUSH4 0x68F9DAB2 EQ PUSH2 0x2D JUMPI JUMPDEST PUSH0 DUP1 REVERT JUMPDEST PUSH2 0x47 PUSH1 0x4 DUP1 CALLDATASIZE SUB DUP2 ADD SWAP1 PUSH2 0x42 SWAP2 SWAP1 PUSH2 0xA98 JUMP JUMPDEST PUSH2 0x5D JUMP JUMPDEST PUSH1 0x40 MLOAD PUSH2 0x54 SWAP2 SWAP1 PUSH2 0xB41 JUMP JUMPDEST PUSH1 0x40 MLOAD DUP1 SWAP2 SUB SWAP1 RETURN JUMPDEST PUSH0 PUSH2 0x66 PUSH2 0x9E3 JUMP JUMPDEST PUSH2 0x96 PUSH1 0x10 DUP7 DUP7 SWAP1 POP DUP10 DUP10 SWAP1 POP PUSH2 0x7D SWAP2 SWAP1 PUSH2 0xB87 JUMP JUMPDEST PUSH2 0x87 SWAP2 SWAP1 PUSH2 0xB87 JUMP JUMPDEST DUP3 PUSH2 0x22E SWAP1 SWAP2 SWAP1 PUSH4 0xFFFFFFFF AND JUMP JUMPDEST POP PUSH2 0xED DUP6 DUP6 DUP1 DUP1 PUSH1 0x1F ADD PUSH1 0x20 DUP1 SWAP2 DIV MUL PUSH1 0x20 ADD PUSH1 0x40 MLOAD SWAP1 DUP2 ADD PUSH1 0x40 MSTORE DUP1 SWAP4 SWAP3 SWAP2 SWAP1 DUP2 DUP2 MSTORE PUSH1 0x20 ADD DUP4 DUP4 DUP1 DUP3 DUP5 CALLDATACOPY PUSH0 DUP2 DUP5 ADD MSTORE PUSH1 0x1F NOT PUSH1 0x1F DUP3 ADD AND SWAP1 POP DUP1 DUP4 ADD SWAP3 POP POP POP POP POP POP POP DUP3 PUSH2 0x296 SWAP1 SWAP2 SWAP1 PUSH4 0xFFFFFFFF AND JUMP JUMPDEST POP PUSH2 0x144 DUP8 DUP8 DUP1 DUP1 PUSH1 0x1F ADD PUSH1 0x20 DUP1 SWAP2 DIV MUL PUSH1 0x20 ADD PUSH1 0x40 MLOAD SWAP1 DUP2 ADD PUSH1 0x40 MSTORE DUP1 SWAP4 SWAP3 SWAP2 SWAP1 DUP2 DUP2 MSTORE PUSH1 0x20 ADD DUP4 DUP4 DUP1 DUP3 DUP5 CALLDATACOPY PUSH0 DUP2 DUP5 ADD MSTORE PUSH1 0x1F NOT PUSH1 0x1F DUP3 ADD AND SWAP1 POP DUP1 DUP4 ADD SWAP3 POP POP POP POP POP POP POP DUP3 PUSH2 0x296 SWAP1 SWAP2 SWAP1 PUSH4 0xFFFFFFFF AND JUMP JUMPDEST POP PUSH0 PUSH2 0x152 DUP3 PUSH0 ADD MLOAD PUSH2 0x2B7 JUMP JUMPDEST SWAP1 POP PUSH0 DUP5 GT ISZERO PUSH2 0x211 JUMPI PUSH2 0x165 DUP3 PUSH2 0x7C0 JUMP JUMPDEST POP PUSH2 0x17C PUSH0 PUSH1 0x60 SHL DUP4 PUSH2 0x7D6 SWAP1 SWAP2 SWAP1 PUSH4 0xFFFFFFFF AND JUMP JUMPDEST POP PUSH2 0x1D3 DUP9 DUP9 DUP1 DUP1 PUSH1 0x1F ADD PUSH1 0x20 DUP1 SWAP2 DIV MUL PUSH1 0x20 ADD PUSH1 0x40 MLOAD SWAP1 DUP2 ADD PUSH1 0x40 MSTORE DUP1 SWAP4 SWAP3 SWAP2 SWAP1 DUP2 DUP2 MSTORE PUSH1 0x20 ADD DUP4 DUP4 DUP1 DUP3 DUP5 CALLDATACOPY PUSH0 DUP2 DUP5 ADD MSTORE PUSH1 0x1F NOT PUSH1 0x1F DUP3 ADD AND SWAP1 POP DUP1 DUP4 ADD SWAP3 POP POP POP POP POP POP POP DUP4 PUSH2 0x296 SWAP1 SWAP2 SWAP1 PUSH4 0xFFFFFFFF AND JUMP JUMPDEST POP PUSH0 JUMPDEST DUP5 DUP2 LT ISZERO PUSH2 0x20F JUMPI PUSH2 0x1F3 PUSH0 DUP4 DUP6 PUSH2 0x806 SWAP1 SWAP3 SWAP2 SWAP1 PUSH4 0xFFFFFFFF AND JUMP JUMPDEST POP PUSH2 0x200 DUP4 PUSH0 ADD MLOAD PUSH2 0x2B7 JUMP JUMPDEST SWAP2 POP DUP1 DUP1 PUSH1 0x1 ADD SWAP2 POP POP PUSH2 0x1D6 JUMP JUMPDEST POP JUMPDEST DUP1 PUSH12 0xFFFFFFFFFFFFFFFFFFFFFFFF NOT AND SWAP3 POP POP POP SWAP6 SWAP5 POP POP POP POP POP JUMP JUMPDEST PUSH2 0x236 PUSH2 0x9E3 JUMP JUMPDEST PUSH0 PUSH1 0x20 DUP4 PUSH2 0x244 SWAP2 SWAP1 PUSH2 0xBE7 JUMP JUMPDEST EQ PUSH2 0x270 JUMPI PUSH1 0x20 DUP3 PUSH2 0x256 SWAP2 SWAP1 PUSH2 0xBE7 JUMP JUMPDEST PUSH1 0x20 PUSH2 0x262 SWAP2 SWAP1 PUSH2 0xC17 JUMP JUMPDEST DUP3 PUSH2 0x26D SWAP2 SWAP1 PUSH2 0xB87 JUMP JUMPDEST SWAP2 POP JUMPDEST DUP2 DUP4 PUSH1 0x20 ADD DUP2 DUP2 MSTORE POP POP PUSH1 0x40 MLOAD DUP1 DUP5 MSTORE PUSH0 DUP2 MSTORE DUP3 DUP2 ADD PUSH1 0x20 ADD PUSH1 0x40 MSTORE POP DUP3 SWAP1 POP SWAP3 SWAP2 POP POP JUMP JUMPDEST PUSH2 0x29E PUSH2 0x9E3 JUMP JUMPDEST PUSH2 0x2AF DUP4 DUP5 PUSH0 ADD MLOAD MLOAD DUP5 DUP6 MLOAD PUSH2 0x833 JUMP JUMPDEST SWAP1 POP SWAP3 SWAP2 POP POP JUMP JUMPDEST PUSH0 PUSH1 0x40 MLOAD DUP3 MLOAD PUSH1 0x20 DUP5 ADD SWAP4 POP PUSH1 0x40 PUSH8 0xFFFFFFFFFFFFFFC0 PUSH1 0x1 DUP4 ADD AND ADD PUSH1 0x9 DUP3 DUP3 SUB LT PUSH1 0x1 DUP2 SUB PUSH2 0x2E9 JUMPI PUSH1 0x40 DUP3 ADD SWAP2 POP JUMPDEST POP PUSH24 0x6745230100EFCDAB890098BADCFE001032547600C3D2E1F0 PUSH2 0x340 JUMP JUMPDEST PUSH0 DUP4 DUP4 LT ISZERO PUSH2 0x339 JUMPI DUP3 DUP3 ADD MLOAD SWAP1 POP DUP3 DUP5 SUB SWAP4 POP PUSH1 0x20 DUP5 LT ISZERO PUSH2 0x338 JUMPI PUSH1 0x1 DUP5 PUSH1 0x20 SUB PUSH2 0x100 EXP SUB NOT DUP1 DUP3 AND SWAP2 POP POP JUMPDEST JUMPDEST SWAP4 SWAP3 POP POP POP JUMP JUMPDEST PUSH0 JUMPDEST DUP3 DUP2 LT ISZERO PUSH2 0x740 JUMPI PUSH2 0x355 DUP5 DUP3 DUP10 PUSH2 0x308 JUMP JUMPDEST DUP6 MSTORE PUSH2 0x365 DUP5 PUSH1 0x20 DUP4 ADD DUP10 PUSH2 0x308 JUMP JUMPDEST PUSH1 0x20 DUP7 ADD MSTORE PUSH1 0x40 DUP2 DUP6 SUB LT PUSH1 0x1 DUP2 SUB PUSH2 0x381 JUMPI PUSH1 0x80 DUP3 DUP7 SUB DUP8 ADD MSTORE8 JUMPDEST POP PUSH1 0x40 DUP4 SUB DUP2 EQ PUSH1 0x1 DUP2 SUB PUSH2 0x3A0 JUMPI PUSH1 0x8 DUP6 MUL PUSH1 0x20 DUP8 ADD MLOAD OR PUSH1 0x20 DUP8 ADD MSTORE JUMPDEST POP PUSH1 0x40 JUMPDEST PUSH1 0x80 DUP2 LT ISZERO PUSH2 0x42C JUMPI PUSH1 0x40 DUP2 SUB DUP7 ADD MLOAD PUSH1 0x38 DUP3 SUB DUP8 ADD MLOAD XOR PUSH1 0x20 DUP3 SUB DUP8 ADD MLOAD PUSH1 0xC DUP4 SUB DUP9 ADD MLOAD XOR XOR PUSH29 0x100000001000000010000000100000001000000010000000100000001 PUSH4 0x80000000 DUP3 DIV AND PUSH32 0xFFFFFFFEFFFFFFFEFFFFFFFEFFFFFFFEFFFFFFFEFFFFFFFEFFFFFFFEFFFFFFFE PUSH1 0x2 DUP4 MUL AND OR SWAP1 POP DUP1 DUP3 DUP9 ADD MSTORE POP PUSH1 0xC DUP2 ADD SWAP1 POP PUSH2 0x3A4 JUMP JUMPDEST POP PUSH1 0x80 JUMPDEST PUSH2 0x140 DUP2 LT ISZERO PUSH2 0x4B9 JUMPI PUSH1 0x80 DUP2 SUB DUP7 ADD MLOAD PUSH1 0x70 DUP3 SUB DUP8 ADD MLOAD XOR PUSH1 0x40 DUP3 SUB DUP8 ADD MLOAD PUSH1 0x18 DUP4 SUB DUP9 ADD MLOAD XOR XOR PUSH29 0x300000003000000030000000300000003000000030000000300000003 PUSH4 0x40000000 DUP3 DIV AND PUSH32 0xFFFFFFFCFFFFFFFCFFFFFFFCFFFFFFFCFFFFFFFCFFFFFFFCFFFFFFFCFFFFFFFC PUSH1 0x4 DUP4 MUL AND OR SWAP1 POP DUP1 DUP3 DUP9 ADD MSTORE POP PUSH1 0x18 DUP2 ADD SWAP1 POP PUSH2 0x430 JUMP JUMPDEST POP DUP2 PUSH0 DUP1 PUSH0 JUMPDEST PUSH1 0x50 DUP2 LT ISZERO PUSH2 0x712 JUMPI PUSH1 0x14 DUP2 DIV PUSH0 DUP2 EQ PUSH2 0x4F0 JUMPI PUSH1 0x1 DUP2 EQ PUSH2 0x53A JUMPI PUSH1 0x2 DUP2 EQ PUSH2 0x577 JUMPI PUSH1 0x3 DUP2 EQ PUSH2 0x5DA JUMPI PUSH2 0x613 JUMP JUMPDEST PUSH6 0x10000000000 DUP6 DIV PUSH11 0x100000000000000000000 DUP7 DIV XOR SWAP4 POP DUP4 PUSH16 0x1000000000000000000000000000000 DUP7 DIV AND SWAP4 POP DUP4 PUSH6 0x10000000000 DUP7 DIV XOR SWAP4 POP PUSH4 0x5A827999 SWAP3 POP PUSH2 0x613 JUMP JUMPDEST PUSH11 0x100000000000000000000 DUP6 DIV PUSH16 0x1000000000000000000000000000000 DUP7 DIV XOR SWAP4 POP DUP4 PUSH6 0x10000000000 DUP7 DIV XOR SWAP4 POP PUSH4 0x6ED9EBA1 SWAP3 POP PUSH2 0x613 JUMP JUMPDEST PUSH11 0x100000000000000000000 DUP6 DIV PUSH16 0x1000000000000000000000000000000 DUP7 DIV OR SWAP4 POP DUP4 PUSH6 0x10000000000 DUP7 DIV AND SWAP4 POP DUP4 PUSH11 0x100000000000000000000 DUP7 DIV PUSH16 0x1000000000000000000000000000000 DUP8 DIV AND OR SWAP4 POP PUSH4 0x8F1BBCDC SWAP3 POP PUSH2 0x613 JUMP JUMPDEST PUSH11 0x100000000000000000000 DUP6 DIV PUSH16 0x1000000000000000000000000000000 DUP7 DIV XOR SWAP4 POP DUP4 PUSH6 0x10000000000 DUP7 DIV XOR SWAP4 POP PUSH4 0xCA62C1D6 SWAP3 POP JUMPDEST POP PUSH1 0x1F PUSH24 0x80000000000000000000000000000000000000000000000 DUP6 DIV AND DUP1 PUSH4 0xFFFFFFE0 PUSH20 0x800000000000000000000000000000000000000 DUP8 DIV AND OR SWAP1 POP DUP1 DUP5 ADD SWAP1 POP DUP1 PUSH4 0xFFFFFFFF DUP7 AND ADD SWAP1 POP DUP1 DUP4 ADD SWAP1 POP DUP1 PUSH29 0x100000000000000000000000000000000000000000000000000000000 PUSH1 0x4 DUP5 MUL DUP13 ADD MLOAD DIV ADD SWAP1 POP PUSH21 0x10000000000000000000000000000000000000000 DUP2 MUL PUSH6 0x10000000000 DUP7 DIV OR SWAP5 POP PUSH11 0x100000000000000000000 PUSH4 0x3FFFFFFF PUSH11 0x400000000000000000000 DUP8 DIV AND PUSH4 0xC0000000 PUSH7 0x4000000000000 DUP9 DIV AND OR MUL PUSH24 0xFFFFFFFF00FFFFFFFF000000000000FFFFFFFF00FFFFFFFF DUP7 AND OR SWAP5 POP POP PUSH1 0x1 DUP2 ADD SWAP1 POP PUSH2 0x4BF JUMP JUMPDEST POP PUSH24 0xFFFFFFFF00FFFFFFFF00FFFFFFFF00FFFFFFFF00FFFFFFFF DUP4 DUP7 ADD AND SWAP5 POP POP POP POP PUSH1 0x40 DUP2 ADD SWAP1 POP PUSH2 0x342 JUMP JUMPDEST POP PUSH13 0x1000000000000000000000000 PUSH4 0xFFFFFFFF DUP3 AND PUSH8 0xFFFFFFFF00000000 PUSH2 0x100 DUP5 DIV AND PUSH12 0xFFFFFFFF0000000000000000 PUSH3 0x10000 DUP6 DIV AND PUSH16 0xFFFFFFFF000000000000000000000000 PUSH4 0x1000000 DUP7 DIV AND PUSH20 0xFFFFFFFF00000000000000000000000000000000 PUSH5 0x100000000 DUP8 DIV AND OR OR OR OR MUL SWAP5 POP POP POP POP POP SWAP2 SWAP1 POP JUMP JUMPDEST PUSH2 0x7C8 PUSH2 0x9E3 JUMP JUMPDEST DUP2 MLOAD PUSH0 DUP2 MSTORE POP DUP2 SWAP1 POP SWAP2 SWAP1 POP JUMP JUMPDEST PUSH2 0x7DE PUSH2 0x9E3 JUMP JUMPDEST PUSH2 0x7FE DUP4 DUP5 PUSH0 ADD MLOAD MLOAD DUP5 PUSH12 0xFFFFFFFFFFFFFFFFFFFFFFFF NOT AND PUSH1 0x14 PUSH2 0x91F JUMP JUMPDEST SWAP1 POP SWAP3 SWAP2 POP POP JUMP JUMPDEST PUSH2 0x80E PUSH2 0x9E3 JUMP JUMPDEST PUSH2 0x82A DUP5 DUP5 DUP5 PUSH12 0xFFFFFFFFFFFFFFFFFFFFFFFF NOT AND PUSH1 0x14 PUSH2 0x91F JUMP JUMPDEST SWAP1 POP SWAP4 SWAP3 POP POP POP JUMP JUMPDEST PUSH2 0x83B PUSH2 0x9E3 JUMP JUMPDEST DUP3 MLOAD DUP3 GT ISZERO PUSH2 0x848 JUMPI PUSH0 DUP1 REVERT JUMPDEST DUP5 PUSH1 0x20 ADD MLOAD DUP3 DUP6 PUSH2 0x859 SWAP2 SWAP1 PUSH2 0xB87 JUMP JUMPDEST GT ISZERO PUSH2 0x88E JUMPI PUSH2 0x88D DUP6 PUSH1 0x2 PUSH2 0x87E DUP9 PUSH1 0x20 ADD MLOAD DUP9 DUP8 PUSH2 0x879 SWAP2 SWAP1 PUSH2 0xB87 JUMP JUMPDEST PUSH2 0x9A6 JUMP JUMPDEST PUSH2 0x888 SWAP2 SWAP1 PUSH2 0xC4A JUMP JUMPDEST PUSH2 0x9C1 JUMP JUMPDEST JUMPDEST PUSH0 DUP1 DUP7 MLOAD DUP1 MLOAD DUP8 PUSH1 0x20 DUP4 ADD ADD SWAP4 POP DUP1 DUP9 DUP8 ADD GT ISZERO PUSH2 0x8AC JUMPI DUP8 DUP7 ADD DUP3 MSTORE JUMPDEST PUSH1 0x20 DUP8 ADD SWAP3 POP POP POP JUMPDEST PUSH1 0x20 DUP5 LT PUSH2 0x8F3 JUMPI DUP1 MLOAD DUP3 MSTORE PUSH1 0x20 DUP3 PUSH2 0x8CE SWAP2 SWAP1 PUSH2 0xB87 JUMP JUMPDEST SWAP2 POP PUSH1 0x20 DUP2 PUSH2 0x8DD SWAP2 SWAP1 PUSH2 0xB87 JUMP JUMPDEST SWAP1 POP PUSH1 0x20 DUP5 PUSH2 0x8EC SWAP2 SWAP1 PUSH2 0xC17 JUMP JUMPDEST SWAP4 POP PUSH2 0x8B5 JUMP JUMPDEST PUSH0 PUSH1 0x1 DUP6 PUSH1 0x20 SUB PUSH2 0x100 EXP SUB SWAP1 POP DUP1 NOT DUP3 MLOAD AND DUP2 DUP5 MLOAD AND DUP2 DUP2 OR DUP6 MSTORE POP POP POP DUP7 SWAP3 POP POP POP SWAP5 SWAP4 POP POP POP POP JUMP JUMPDEST PUSH2 0x927 PUSH2 0x9E3 JUMP JUMPDEST DUP5 PUSH1 0x20 ADD MLOAD DUP5 DUP4 PUSH2 0x938 SWAP2 SWAP1 PUSH2 0xB87 JUMP JUMPDEST GT ISZERO PUSH2 0x960 JUMPI PUSH2 0x95F DUP6 PUSH1 0x2 DUP7 DUP6 PUSH2 0x950 SWAP2 SWAP1 PUSH2 0xB87 JUMP JUMPDEST PUSH2 0x95A SWAP2 SWAP1 PUSH2 0xC4A JUMP JUMPDEST PUSH2 0x9C1 JUMP JUMPDEST JUMPDEST PUSH0 PUSH1 0x1 DUP4 PUSH2 0x100 EXP SUB SWAP1 POP DUP3 PUSH1 0x20 SUB PUSH1 0x8 MUL DUP5 SWAP1 SHR SWAP4 POP DUP6 MLOAD DUP4 DUP7 DUP3 ADD ADD DUP6 DUP4 NOT DUP3 MLOAD AND OR DUP2 MSTORE DUP2 MLOAD DUP6 DUP9 ADD GT ISZERO PUSH2 0x998 JUMPI DUP5 DUP8 ADD DUP3 MSTORE JUMPDEST POP POP POP DUP5 SWAP1 POP SWAP5 SWAP4 POP POP POP POP JUMP JUMPDEST PUSH0 DUP2 DUP4 GT ISZERO PUSH2 0x9B7 JUMPI DUP3 SWAP1 POP PUSH2 0x9BB JUMP JUMPDEST DUP2 SWAP1 POP JUMPDEST SWAP3 SWAP2 POP POP JUMP JUMPDEST PUSH0 DUP3 PUSH0 ADD MLOAD SWAP1 POP PUSH2 0x9D2 DUP4 DUP4 PUSH2 0x22E JUMP JUMPDEST POP PUSH2 0x9DD DUP4 DUP3 PUSH2 0x296 JUMP JUMPDEST POP POP POP POP JUMP JUMPDEST PUSH1 0x40 MLOAD DUP1 PUSH1 0x40 ADD PUSH1 0x40 MSTORE DUP1 PUSH1 0x60 DUP2 MSTORE PUSH1 0x20 ADD PUSH0 DUP2 MSTORE POP SWAP1 JUMP JUMPDEST PUSH0 DUP1 REVERT JUMPDEST PUSH0 DUP1 REVERT JUMPDEST PUSH0 DUP1 REVERT JUMPDEST PUSH0 DUP1 REVERT JUMPDEST PUSH0 DUP1 REVERT JUMPDEST PUSH0 DUP1 DUP4 PUSH1 0x1F DUP5 ADD SLT PUSH2 0xA25 JUMPI PUSH2 0xA24 PUSH2 0xA04 JUMP JUMPDEST JUMPDEST DUP3 CALLDATALOAD SWAP1 POP PUSH8 0xFFFFFFFFFFFFFFFF DUP2 GT ISZERO PUSH2 0xA42 JUMPI PUSH2 0xA41 PUSH2 0xA08 JUMP JUMPDEST JUMPDEST PUSH1 0x20 DUP4 ADD SWAP2 POP DUP4 PUSH1 0x1 DUP3 MUL DUP4 ADD GT ISZERO PUSH2 0xA5E JUMPI PUSH2 0xA5D PUSH2 0xA0C JUMP JUMPDEST JUMPDEST SWAP3 POP SWAP3 SWAP1 POP JUMP JUMPDEST PUSH0 DUP2 SWAP1 POP SWAP2 SWAP1 POP JUMP JUMPDEST PUSH2 0xA77 DUP2 PUSH2 0xA65 JUMP JUMPDEST DUP2 EQ PUSH2 0xA81 JUMPI PUSH0 DUP1 REVERT JUMPDEST POP JUMP JUMPDEST PUSH0 DUP2 CALLDATALOAD SWAP1 POP PUSH2 0xA92 DUP2 PUSH2 0xA6E JUMP JUMPDEST SWAP3 SWAP2 POP POP JUMP JUMPDEST PUSH0 DUP1 PUSH0 DUP1 PUSH0 PUSH1 0x60 DUP7 DUP9 SUB SLT ISZERO PUSH2 0xAB1 JUMPI PUSH2 0xAB0 PUSH2 0x9FC JUMP JUMPDEST JUMPDEST PUSH0 DUP7 ADD CALLDATALOAD PUSH8 0xFFFFFFFFFFFFFFFF DUP2 GT ISZERO PUSH2 0xACE JUMPI PUSH2 0xACD PUSH2 0xA00 JUMP JUMPDEST JUMPDEST PUSH2 0xADA DUP9 DUP3 DUP10 ADD PUSH2 0xA10 JUMP JUMPDEST SWAP6 POP SWAP6 POP POP PUSH1 0x20 DUP7 ADD CALLDATALOAD PUSH8 0xFFFFFFFFFFFFFFFF DUP2 GT ISZERO PUSH2 0xAFD JUMPI PUSH2 0xAFC PUSH2 0xA00 JUMP JUMPDEST JUMPDEST PUSH2 0xB09 DUP9 DUP3 DUP10 ADD PUSH2 0xA10 JUMP JUMPDEST SWAP4 POP SWAP4 POP POP PUSH1 0x40 PUSH2 0xB1C DUP9 DUP3 DUP10 ADD PUSH2 0xA84 JUMP JUMPDEST SWAP2 POP POP SWAP3 SWAP6 POP SWAP3 SWAP6 SWAP1 SWAP4 POP JUMP JUMPDEST PUSH0 DUP2 SWAP1 POP SWAP2 SWAP1 POP JUMP JUMPDEST PUSH2 0xB3B DUP2 PUSH2 0xB29 JUMP JUMPDEST DUP3 MSTORE POP POP JUMP JUMPDEST PUSH0 PUSH1 0x20 DUP3 ADD SWAP1 POP PUSH2 0xB54 PUSH0 DUP4 ADD DUP5 PUSH2 0xB32 JUMP JUMPDEST SWAP3 SWAP2 POP POP JUMP JUMPDEST PUSH32 0x4E487B7100000000000000000000000000000000000000000000000000000000 PUSH0 MSTORE PUSH1 0x11 PUSH1 0x4 MSTORE PUSH1 0x24 PUSH0 REVERT JUMPDEST PUSH0 PUSH2 0xB91 DUP3 PUSH2 0xA65 JUMP JUMPDEST SWAP2 POP PUSH2 0xB9C DUP4 PUSH2 0xA65 JUMP JUMPDEST SWAP3 POP DUP3 DUP3 ADD SWAP1 POP DUP1 DUP3 GT ISZERO PUSH2 0xBB4 JUMPI PUSH2 0xBB3 PUSH2 0xB5A JUMP JUMPDEST JUMPDEST SWAP3 SWAP2 POP POP JUMP JUMPDEST PUSH32 0x4E487B7100000000000000000000000000000000000000000000000000000000 PUSH0 MSTORE PUSH1 0x12 PUSH1 0x4 MSTORE PUSH1 0x24 PUSH0 REVERT JUMPDEST PUSH0 PUSH2 0xBF1 DUP3 PUSH2 0xA65 JUMP JUMPDEST SWAP2 POP PUSH2 0xBFC DUP4 PUSH2 0xA65 JUMP JUMPDEST SWAP3 POP DUP3 PUSH2 0xC0C JUMPI PUSH2 0xC0B PUSH2 0xBBA JUMP JUMPDEST JUMPDEST DUP3 DUP3 MOD SWAP1 POP SWAP3 SWAP2 POP POP JUMP JUMPDEST PUSH0 PUSH2 0xC21 DUP3 PUSH2 0xA65 JUMP JUMPDEST SWAP2 POP PUSH2 0xC2C DUP4 PUSH2 0xA65 JUMP JUMPDEST SWAP3 POP DUP3 DUP3 SUB SWAP1 POP DUP2 DUP2 GT ISZERO PUSH2 0xC44 JUMPI PUSH2 0xC43 PUSH2 0xB5A JUMP JUMPDEST JUMPDEST SWAP3 SWAP2 POP POP JUMP JUMPDEST PUSH0 PUSH2 0xC54 DUP3 PUSH2 0xA65 JUMP JUMPDEST SWAP2 POP PUSH2 0xC5F DUP4 PUSH2 0xA65 JUMP JUMPDEST SWAP3 POP DUP3 DUP3 MUL PUSH2 0xC6D DUP2 PUSH2 0xA65 JUMP JUMPDEST SWAP2 POP DUP3 DUP3 DIV DUP5 EQ DUP4 ISZERO OR PUSH2 0xC84 JUMPI PUSH2 0xC83 PUSH2 0xB5A JUMP JUMPDEST JUMPDEST POP SWAP3 SWAP2 POP POP JUMP INVALID LOG2 PUSH5 0x6970667358 0x22 SLT KECCAK256 PUSH26 0xF3DA78405E5C1155B2BEC553F77DB43202C89576AEAB1F40F245 RETURN 0xA7 DUP9 LOG0 0xD3 PUSH5 0x736F6C6343 STOP ADDMOD XOR STOP CALLER "
		},
		"gasEstimates": {
			"creation": {
				"codeDepositCost": "653000",
				"executionCost": "687",
				"totalCost": "653687"
			},
			"external": {
				"hash(bytes,bytes,uint256)": "infinite"
			}
		},
		"methodIdentifiers": {
			"hash(bytes,bytes,uint256)": "68f9dab2"
		}
	},
	"abi": [
		{
			"inputs": [
				{
					"internalType": "bytes",
					"name": "salt",
					"type": "bytes"
				},
				{
					"internalType": "bytes",
					"name": "data",
					"type": "bytes"
				},
				{
					"internalType": "uint256",
					"name": "iterations",
					"type": "uint256"
				}
			],
			"name": "hash",
			"outputs": [
				{
					"internalType": "bytes32",
					"name": "",
					"type": "bytes32"
				}
			],
			"stateMutability": "pure",
			"type": "function"
		}
	]
}