{
	"data": {
		"bytecode": {
			"linkReferences": {},
			"object": "608060405234801561001057600080fd5b50610f71806100206000396000f3fe608060405234801561001057600080fd5b506004361061002b5760003560e01c8063de8f50a114610030575b600080fd5b61004a60048036038101906100459190610beb565b610060565b6040516100579190610cba565b60405180910390f35b600060608060006100bf60048b8b8080601f016020809104026020016040519081016040528093929190818152602001838380828437600081840152601f19601f8201169050808301925050505050505061040390919063ffffffff16565b60ff16905060008161ffff16146101be5761012e60058261ffff168c8c8080601f016020809104026020016040519081016040528093929190818152602001838380828437600081840152601f19601f8201169050808301925050505050505061042e9092919063ffffffff16565b92506101b76005826101409190610d12565b61ffff1660058361ffff168d8d90506101599190610d54565b6101639190610d54565b8c8c8080601f016020809104026020016040519081016040528093929190818152602001838380828437600081840152601f19601f8201169050808301925050505050505061042e9092919063ffffffff16565b9150610302565b61021660058b8b8080601f016020809104026020016040519081016040528093929190818152602001838380828437600081840152601f19601f820116905080830192505050505050506104c390919063ffffffff16565b905061027660078261ffff168c8c8080601f016020809104026020016040519081016040528093929190818152602001838380828437600081840152601f19601f8201169050808301925050505050505061042e9092919063ffffffff16565b92506102ff6007826102889190610d12565b61ffff1660078361ffff168d8d90506102a19190610d54565b6102ab9190610d54565b8c8c8080601f016020809104026020016040519081016040528093929190818152602001838380828437600081840152601f19601f8201169050808301925050505050505061042e9092919063ffffffff16565b91505b6000606061035584868a8a8080601f016020809104026020016040519081016040528093929190818152602001838380828437600081840152601f19601f820116905080830192505050505050506104f2565b80925081935050508180156103f25750610385601482516103769190610d54565b8261050d90919063ffffffff16565b6bffffffffffffffffffffffff19166103e18b8b8080601f016020809104026020016040519081016040528093929190818152602001838380828437600081840152601f19601f8201169050808301925050505050505061055a565b6bffffffffffffffffffffffff1916145b955050505050509695505050505050565b600082828151811061041857610417610d88565b5b602001015160f81c60f81b60f81c905092915050565b60608351828461043e9190610db7565b111561044957600080fd5b60008267ffffffffffffffff81111561046557610464610e0d565b5b6040519080825280601f01601f1916602001820160405280156104975781602001600182028036833780820191505090505b50905060008060208301915085602088010190506104b6828287610a78565b8293505050509392505050565b600082516002836104d49190610db7565b11156104df57600080fd5b61ffff8260028501015116905092915050565b60006060610501838587610adc565b91509150935093915050565b6000825160148361051e9190610db7565b111561052957600080fd5b7fffffffffffffffffffffffffffffffffffffffff0000000000000000000000008260208501015116905092915050565b60006040518251602084019350604067ffffffffffffffc06001830116016009828203106001811461058b57610592565b6040820191505b50776745230100efcdab890098badcfe001032547600c3d2e1f06105ea565b6000838310156105e357828201519050828403935060208410156105e2576001846020036101000a03198082169150505b5b9392505050565b60005b828110156109f8576106008482896105b1565b85526106108460208301896105b1565b60208601526040818503106001811461062857610631565b60808286038701535b506040830381146001811461064557610655565b6008850260208701511760208701525b5060405b60808110156106e15760408103860151603882038701511860208203870151600c830388015118187c010000000100000001000000010000000100000001000000010000000163800000008204167ffffffffefffffffefffffffefffffffefffffffefffffffefffffffefffffffe6002830216179050808288015250600c81019050610659565b5060805b61014081101561076e57608081038601516070820387015118604082038701516018830388015118187c030000000300000003000000030000000300000003000000030000000363400000008204167ffffffffcfffffffcfffffffcfffffffcfffffffcfffffffcfffffffcfffffffc60048302161790508082880152506018810190506106e5565b508160008060005b60508110156109ca5760148104600081146107a857600181146107f2576002811461082f5760038114610892576108cb565b6501000000000085046a01000000000000000000008604189350836f01000000000000000000000000000000860416935083650100000000008604189350635a82799992506108cb565b6a010000000000000000000085046f01000000000000000000000000000000860418935083650100000000008604189350636ed9eba192506108cb565b6a010000000000000000000085046f01000000000000000000000000000000860417935083650100000000008604169350836a010000000000000000000086046f01000000000000000000000000000000870416179350638f1bbcdc92506108cb565b6a010000000000000000000085046f0100000000000000000000000000000086041893508365010000000000860418935063ca62c1d692505b50601f770800000000000000000000000000000000000000000000008504168063ffffffe073080000000000000000000000000000000000000087041617905080840190508063ffffffff86160190508083019050807c0100000000000000000000000000000000000000000000000000000000600484028c0151040190507401000000000000000000000000000000000000000081026501000000000086041794506a0100000000000000000000633fffffff6a040000000000000000000087041663c00000006604000000000000880416170277ffffffff00ffffffff000000000000ffffffff00ffffffff861617945050600181019050610776565b5077ffffffff00ffffffff00ffffffff00ffffffff00ffffffff8386011694505050506040810190506105ed565b506c0100000000000000000000000063ffffffff821667ffffffff000000006101008404166bffffffff0000000000000000620100008504166fffffffff000000000000000000000000630100000086041673ffffffff000000000000000000000000000000006401000000008704161717171702945050505050919050565b5b60208110610ab75781518352602083610a929190610db7565b9250602082610aa19190610db7565b9150602081610ab09190610d54565b9050610a79565b60006001826020036101000a0390508019835116818551168181178652505050505050565b600060606000855185518551888888604051602001610b0096959493929190610ed7565b6040516020818303038152906040529050835167ffffffffffffffff811115610b2c57610b2b610e0d565b5b6040519080825280601f01601f191660200182016040528015610b5e5781602001600182028036833780820191505090505b50915083516020830182516020840160055afa925050935093915050565b600080fd5b600080fd5b600080fd5b600080fd5b600080fd5b60008083601f840112610bab57610baa610b86565b5b8235905067ffffffffffffffff811115610bc857610bc7610b8b565b5b602083019150836001820283011115610be457610be3610b90565b5b9250929050565b60008060008060008060608789031215610c0857610c07610b7c565b5b600087013567ffffffffffffffff811115610c2657610c25610b81565b5b610c3289828a01610b95565b9650965050602087013567ffffffffffffffff811115610c5557610c54610b81565b5b610c6189828a01610b95565b9450945050604087013567ffffffffffffffff811115610c8457610c83610b81565b5b610c9089828a01610b95565b92509250509295509295509295565b60008115159050919050565b610cb481610c9f565b82525050565b6000602082019050610ccf6000830184610cab565b92915050565b600061ffff82169050919050565b7f4e487b7100000000000000000000000000000000000000000000000000000000600052601160045260246000fd5b6000610d1d82610cd5565b9150610d2883610cd5565b92508261ffff03821115610d3f57610d3e610ce3565b5b828201905092915050565b6000819050919050565b6000610d5f82610d4a565b9150610d6a83610d4a565b925082821015610d7d57610d7c610ce3565b5b828203905092915050565b7f4e487b7100000000000000000000000000000000000000000000000000000000600052603260045260246000fd5b6000610dc282610d4a565b9150610dcd83610d4a565b9250827fffffffffffffffffffffffffffffffffffffffffffffffffffffffffffffffff03821115610e0257610e01610ce3565b5b828201905092915050565b7f4e487b7100000000000000000000000000000000000000000000000000000000600052604160045260246000fd5b6000819050919050565b610e57610e5282610d4a565b610e3c565b82525050565b600081519050919050565b600081905092915050565b60005b83811015610e91578082015181840152602081019050610e76565b83811115610ea0576000848401525b50505050565b6000610eb182610e5d565b610ebb8185610e68565b9350610ecb818560208601610e73565b80840191505092915050565b6000610ee38289610e46565b602082019150610ef38288610e46565b602082019150610f038287610e46565b602082019150610f138286610ea6565b9150610f1f8285610ea6565b9150610f2b8284610ea6565b915081905097965050505050505056fea2646970667358221220df4e06e4df6e87b919cb357bec26877a5c342f6787580f2b955fc6771c1c91da64736f6c634300080a0033",
			"opcodes": "PUSH1 0x80 PUSH1 0x40 MSTORE CALLVALUE DUP1 ISZERO PUSH2 0x10 JUMPI PUSH1 0x0 DUP1 REVERT JUMPDEST POP PUSH2 0xF71 DUP1 PUSH2 0x20 PUSH1 0x0 CODECOPY PUSH1 0x0 RETURN INVALID PUSH1 0x80 PUSH1 0x40 MSTORE CALLVALUE DUP1 ISZERO PUSH2 0x10 JUMPI PUSH1 0x0 DUP1 REVERT JUMPDEST POP PUSH1 0x4 CALLDATASIZE LT PUSH2 0x2B JUMPI PUSH1 0x0 CALLDATALOAD PUSH1 0xE0 SHR DUP1 PUSH4 0xDE8F50A1 EQ PUSH2 0x30 JUMPI JUMPDEST PUSH1 0x0 DUP1 REVERT JUMPDEST PUSH2 0x4A PUSH1 0x4 DUP1 CALLDATASIZE SUB DUP2 ADD SWAP1 PUSH2 0x45 SWAP2 SWAP1 PUSH2 0xBEB JUMP JUMPDEST PUSH2 0x60 JUMP JUMPDEST PUSH1 0x40 MLOAD PUSH2 0x57 SWAP2 SWAP1 PUSH2 0xCBA JUMP JUMPDEST PUSH1 0x40 MLOAD DUP1 SWAP2 SUB SWAP1 RETURN JUMPDEST PUSH1 0x0 PUSH1 0x60 DUP1 PUSH1 0x0 PUSH2 0xBF PUSH1 0x4 DUP12 DUP12 DUP1 DUP1 PUSH1 0x1F ADD PUSH1 0x20 DUP1 SWAP2 DIV MUL PUSH1 0x20 ADD PUSH1 0x40 MLOAD SWAP1 DUP2 ADD PUSH1 0x40 MSTORE DUP1 SWAP4 SWAP3 SWAP2 SWAP1 DUP2 DUP2 MSTORE PUSH1 0x20 ADD DUP4 DUP4 DUP1 DUP3 DUP5 CALLDATACOPY PUSH1 0x0 DUP2 DUP5 ADD MSTORE PUSH1 0x1F NOT PUSH1 0x1F DUP3 ADD AND SWAP1 POP DUP1 DUP4 ADD SWAP3 POP POP POP POP POP POP POP PUSH2 0x403 SWAP1 SWAP2 SWAP1 PUSH4 0xFFFFFFFF AND JUMP JUMPDEST PUSH1 0xFF AND SWAP1 POP PUSH1 0x0 DUP2 PUSH2 0xFFFF AND EQ PUSH2 0x1BE JUMPI PUSH2 0x12E PUSH1 0x5 DUP3 PUSH2 0xFFFF AND DUP13 DUP13 DUP1 DUP1 PUSH1 0x1F ADD PUSH1 0x20 DUP1 SWAP2 DIV MUL PUSH1 0x20 ADD PUSH1 0x40 MLOAD SWAP1 DUP2 ADD PUSH1 0x40 MSTORE DUP1 SWAP4 SWAP3 SWAP2 SWAP1 DUP2 DUP2 MSTORE PUSH1 0x20 ADD DUP4 DUP4 DUP1 DUP3 DUP5 CALLDATACOPY PUSH1 0x0 DUP2 DUP5 ADD MSTORE PUSH1 0x1F NOT PUSH1 0x1F DUP3 ADD AND SWAP1 POP DUP1 DUP4 ADD SWAP3 POP POP POP POP POP POP POP PUSH2 0x42E SWAP1 SWAP3 SWAP2 SWAP1 PUSH4 0xFFFFFFFF AND JUMP JUMPDEST SWAP3 POP PUSH2 0x1B7 PUSH1 0x5 DUP3 PUSH2 0x140 SWAP2 SWAP1 PUSH2 0xD12 JUMP JUMPDEST PUSH2 0xFFFF AND PUSH1 0x5 DUP4 PUSH2 0xFFFF AND DUP14 DUP14 SWAP1 POP PUSH2 0x159 SWAP2 SWAP1 PUSH2 0xD54 JUMP JUMPDEST PUSH2 0x163 SWAP2 SWAP1 PUSH2 0xD54 JUMP JUMPDEST DUP13 DUP13 DUP1 DUP1 PUSH1 0x1F ADD PUSH1 0x20 DUP1 SWAP2 DIV MUL PUSH1 0x20 ADD PUSH1 0x40 MLOAD SWAP1 DUP2 ADD PUSH1 0x40 MSTORE DUP1 SWAP4 SWAP3 SWAP2 SWAP1 DUP2 DUP2 MSTORE PUSH1 0x20 ADD DUP4 DUP4 DUP1 DUP3 DUP5 CALLDATACOPY PUSH1 0x0 DUP2 DUP5 ADD MSTORE PUSH1 0x1F NOT PUSH1 0x1F DUP3 ADD AND SWAP1 POP DUP1 DUP4 ADD SWAP3 POP POP POP POP POP POP POP PUSH2 0x42E SWAP1 SWAP3 SWAP2 SWAP1 PUSH4 0xFFFFFFFF AND JUMP JUMPDEST SWAP2 POP PUSH2 0x302 JUMP JUMPDEST PUSH2 0x216 PUSH1 0x5 DUP12 DUP12 DUP1 DUP1 PUSH1 0x1F ADD PUSH1 0x20 DUP1 SWAP2 DIV MUL PUSH1 0x20 ADD PUSH1 0x40 MLOAD SWAP1 DUP2 ADD PUSH1 0x40 MSTORE DUP1 SWAP4 SWAP3 SWAP2 SWAP1 DUP2 DUP2 MSTORE PUSH1 0x20 ADD DUP4 DUP4 DUP1 DUP3 DUP5 CALLDATACOPY PUSH1 0x0 DUP2 DUP5 ADD MSTORE PUSH1 0x1F NOT PUSH1 0x1F DUP3 ADD AND SWAP1 POP DUP1 DUP4 ADD SWAP3 POP POP POP POP POP POP POP PUSH2 0x4C3 SWAP1 SWAP2 SWAP1 PUSH4 0xFFFFFFFF AND JUMP JUMPDEST SWAP1 POP PUSH2 0x276 PUSH1 0x7 DUP3 PUSH2 0xFFFF AND DUP13 DUP13 DUP1 DUP1 PUSH1 0x1F ADD PUSH1 0x20 DUP1 SWAP2 DIV MUL PUSH1 0x20 ADD PUSH1 0x40 MLOAD SWAP1 DUP2 ADD PUSH1 0x40 MSTORE DUP1 SWAP4 SWAP3 SWAP2 SWAP1 DUP2 DUP2 MSTORE PUSH1 0x20 ADD DUP4 DUP4 DUP1 DUP3 DUP5 CALLDATACOPY PUSH1 0x0 DUP2 DUP5 ADD MSTORE PUSH1 0x1F NOT PUSH1 0x1F DUP3 ADD AND SWAP1 POP DUP1 DUP4 ADD SWAP3 POP POP POP POP POP POP POP PUSH2 0x42E SWAP1 SWAP3 SWAP2 SWAP1 PUSH4 0xFFFFFFFF AND JUMP JUMPDEST SWAP3 POP PUSH2 0x2FF PUSH1 0x7 DUP3 PUSH2 0x288 SWAP2 SWAP1 PUSH2 0xD12 JUMP JUMPDEST PUSH2 0xFFFF AND PUSH1 0x7 DUP4 PUSH2 0xFFFF AND DUP14 DUP14 SWAP1 POP PUSH2 0x2A1 SWAP2 SWAP1 PUSH2 0xD54 JUMP JUMPDEST PUSH2 0x2AB SWAP2 SWAP1 PUSH2 0xD54 JUMP JUMPDEST DUP13 DUP13 DUP1 DUP1 PUSH1 0x1F ADD PUSH1 0x20 DUP1 SWAP2 DIV MUL PUSH1 0x20 ADD PUSH1 0x40 MLOAD SWAP1 DUP2 ADD PUSH1 0x40 MSTORE DUP1 SWAP4 SWAP3 SWAP2 SWAP1 DUP2 DUP2 MSTORE PUSH1 0x20 ADD DUP4 DUP4 DUP1 DUP3 DUP5 CALLDATACOPY PUSH1 0x0 DUP2 DUP5 ADD MSTORE PUSH1 0x1F NOT PUSH1 0x1F DUP3 ADD AND SWAP1 POP DUP1 DUP4 ADD SWAP3 POP POP POP POP POP POP POP PUSH2 0x42E SWAP1 SWAP3 SWAP2 SWAP1 PUSH4 0xFFFFFFFF AND JUMP JUMPDEST SWAP2 POP JUMPDEST PUSH1 0x0 PUSH1 0x60 PUSH2 0x355 DUP5 DUP7 DUP11 DUP11 DUP1 DUP1 PUSH1 0x1F ADD PUSH1 0x20 DUP1 SWAP2 DIV MUL PUSH1 0x20 ADD PUSH1 0x40 MLOAD SWAP1 DUP2 ADD PUSH1 0x40 MSTORE DUP1 SWAP4 SWAP3 SWAP2 SWAP1 DUP2 DUP2 MSTORE PUSH1 0x20 ADD DUP4 DUP4 DUP1 DUP3 DUP5 CALLDATACOPY PUSH1 0x0 DUP2 DUP5 ADD MSTORE PUSH1 0x1F NOT PUSH1 0x1F DUP3 ADD AND SWAP1 POP DUP1 DUP4 ADD SWAP3 POP POP POP POP POP POP POP PUSH2 0x4F2 JUMP JUMPDEST DUP1 SWAP3 POP DUP2 SWAP4 POP POP POP DUP2 DUP1 ISZERO PUSH2 0x3F2 JUMPI POP PUSH2 0x385 PUSH1 0x14 DUP3 MLOAD PUSH2 0x376 SWAP2 SWAP1 PUSH2 0xD54 JUMP JUMPDEST DUP3 PUSH2 0x50D SWAP1 SWAP2 SWAP1 PUSH4 0xFFFFFFFF AND JUMP JUMPDEST PUSH12 0xFFFFFFFFFFFFFFFFFFFFFFFF NOT AND PUSH2 0x3E1 DUP12 DUP12 DUP1 DUP1 PUSH1 0x1F ADD PUSH1 0x20 DUP1 SWAP2 DIV MUL PUSH1 0x20 ADD PUSH1 0x40 MLOAD SWAP1 DUP2 ADD PUSH1 0x40 MSTORE DUP1 SWAP4 SWAP3 SWAP2 SWAP1 DUP2 DUP2 MSTORE PUSH1 0x20 ADD DUP4 DUP4 DUP1 DUP3 DUP5 CALLDATACOPY PUSH1 0x0 DUP2 DUP5 ADD MSTORE PUSH1 0x1F NOT PUSH1 0x1F DUP3 ADD AND SWAP1 POP DUP1 DUP4 ADD SWAP3 POP POP POP POP POP POP POP PUSH2 0x55A JUMP JUMPDEST PUSH12 0xFFFFFFFFFFFFFFFFFFFFFFFF NOT AND EQ JUMPDEST SWAP6 POP POP POP POP POP POP SWAP7 SWAP6 POP POP POP POP POP POP JUMP JUMPDEST PUSH1 0x0 DUP3 DUP3 DUP2 MLOAD DUP2 LT PUSH2 0x418 JUMPI PUSH2 0x417 PUSH2 0xD88 JUMP JUMPDEST JUMPDEST PUSH1 0x20 ADD ADD MLOAD PUSH1 0xF8 SHR PUSH1 0xF8 SHL PUSH1 0xF8 SHR SWAP1 POP SWAP3 SWAP2 POP POP JUMP JUMPDEST PUSH1 0x60 DUP4 MLOAD DUP3 DUP5 PUSH2 0x43E SWAP2 SWAP1 PUSH2 0xDB7 JUMP JUMPDEST GT ISZERO PUSH2 0x449 JUMPI PUSH1 0x0 DUP1 REVERT JUMPDEST PUSH1 0x0 DUP3 PUSH8 0xFFFFFFFFFFFFFFFF DUP2 GT ISZERO PUSH2 0x465 JUMPI PUSH2 0x464 PUSH2 0xE0D JUMP JUMPDEST JUMPDEST PUSH1 0x40 MLOAD SWAP1 DUP1 DUP3 MSTORE DUP1 PUSH1 0x1F ADD PUSH1 0x1F NOT AND PUSH1 0x20 ADD DUP3 ADD PUSH1 0x40 MSTORE DUP1 ISZERO PUSH2 0x497 JUMPI DUP2 PUSH1 0x20 ADD PUSH1 0x1 DUP3 MUL DUP1 CALLDATASIZE DUP4 CALLDATACOPY DUP1 DUP3 ADD SWAP2 POP POP SWAP1 POP JUMPDEST POP SWAP1 POP PUSH1 0x0 DUP1 PUSH1 0x20 DUP4 ADD SWAP2 POP DUP6 PUSH1 0x20 DUP9 ADD ADD SWAP1 POP PUSH2 0x4B6 DUP3 DUP3 DUP8 PUSH2 0xA78 JUMP JUMPDEST DUP3 SWAP4 POP POP POP POP SWAP4 SWAP3 POP POP POP JUMP JUMPDEST PUSH1 0x0 DUP3 MLOAD PUSH1 0x2 DUP4 PUSH2 0x4D4 SWAP2 SWAP1 PUSH2 0xDB7 JUMP JUMPDEST GT ISZERO PUSH2 0x4DF JUMPI PUSH1 0x0 DUP1 REVERT JUMPDEST PUSH2 0xFFFF DUP3 PUSH1 0x2 DUP6 ADD ADD MLOAD AND SWAP1 POP SWAP3 SWAP2 POP POP JUMP JUMPDEST PUSH1 0x0 PUSH1 0x60 PUSH2 0x501 DUP4 DUP6 DUP8 PUSH2 0xADC JUMP JUMPDEST SWAP2 POP SWAP2 POP SWAP4 POP SWAP4 SWAP2 POP POP JUMP JUMPDEST PUSH1 0x0 DUP3 MLOAD PUSH1 0x14 DUP4 PUSH2 0x51E SWAP2 SWAP1 PUSH2 0xDB7 JUMP JUMPDEST GT ISZERO PUSH2 0x529 JUMPI PUSH1 0x0 DUP1 REVERT JUMPDEST PUSH32 0xFFFFFFFFFFFFFFFFFFFFFFFFFFFFFFFFFFFFFFFF000000000000000000000000 DUP3 PUSH1 0x20 DUP6 ADD ADD MLOAD AND SWAP1 POP SWAP3 SWAP2 POP POP JUMP JUMPDEST PUSH1 0x0 PUSH1 0x40 MLOAD DUP3 MLOAD PUSH1 0x20 DUP5 ADD SWAP4 POP PUSH1 0x40 PUSH8 0xFFFFFFFFFFFFFFC0 PUSH1 0x1 DUP4 ADD AND ADD PUSH1 0x9 DUP3 DUP3 SUB LT PUSH1 0x1 DUP2 EQ PUSH2 0x58B JUMPI PUSH2 0x592 JUMP JUMPDEST PUSH1 0x40 DUP3 ADD SWAP2 POP JUMPDEST POP PUSH24 0x6745230100EFCDAB890098BADCFE001032547600C3D2E1F0 PUSH2 0x5EA JUMP JUMPDEST PUSH1 0x0 DUP4 DUP4 LT ISZERO PUSH2 0x5E3 JUMPI DUP3 DUP3 ADD MLOAD SWAP1 POP DUP3 DUP5 SUB SWAP4 POP PUSH1 0x20 DUP5 LT ISZERO PUSH2 0x5E2 JUMPI PUSH1 0x1 DUP5 PUSH1 0x20 SUB PUSH2 0x100 EXP SUB NOT DUP1 DUP3 AND SWAP2 POP POP JUMPDEST JUMPDEST SWAP4 SWAP3 POP POP POP JUMP JUMPDEST PUSH1 0x0 JUMPDEST DUP3 DUP2 LT ISZERO PUSH2 0x9F8 JUMPI PUSH2 0x600 DUP5 DUP3 DUP10 PUSH2 0x5B1 JUMP JUMPDEST DUP6 MSTORE PUSH2 0x610 DUP5 PUSH1 0x20 DUP4 ADD DUP10 PUSH2 0x5B1 JUMP JUMPDEST PUSH1 0x20 DUP7 ADD MSTORE PUSH1 0x40 DUP2 DUP6 SUB LT PUSH1 0x1 DUP2 EQ PUSH2 0x628 JUMPI PUSH2 0x631 JUMP JUMPDEST PUSH1 0x80 DUP3 DUP7 SUB DUP8 ADD MSTORE8 JUMPDEST POP PUSH1 0x40 DUP4 SUB DUP2 EQ PUSH1 0x1 DUP2 EQ PUSH2 0x645 JUMPI PUSH2 0x655 JUMP JUMPDEST PUSH1 0x8 DUP6 MUL PUSH1 0x20 DUP8 ADD MLOAD OR PUSH1 0x20 DUP8 ADD MSTORE JUMPDEST POP PUSH1 0x40 JUMPDEST PUSH1 0x80 DUP2 LT ISZERO PUSH2 0x6E1 JUMPI PUSH1 0x40 DUP2 SUB DUP7 ADD MLOAD PUSH1 0x38 DUP3 SUB DUP8 ADD MLOAD XOR PUSH1 0x20 DUP3 SUB DUP8 ADD MLOAD PUSH1 0xC DUP4 SUB DUP9 ADD MLOAD XOR XOR PUSH29 0x100000001000000010000000100000001000000010000000100000001 PUSH4 0x80000000 DUP3 DIV AND PUSH32 0xFFFFFFFEFFFFFFFEFFFFFFFEFFFFFFFEFFFFFFFEFFFFFFFEFFFFFFFEFFFFFFFE PUSH1 0x2 DUP4 MUL AND OR SWAP1 POP DUP1 DUP3 DUP9 ADD MSTORE POP PUSH1 0xC DUP2 ADD SWAP1 POP PUSH2 0x659 JUMP JUMPDEST POP PUSH1 0x80 JUMPDEST PUSH2 0x140 DUP2 LT ISZERO PUSH2 0x76E JUMPI PUSH1 0x80 DUP2 SUB DUP7 ADD MLOAD PUSH1 0x70 DUP3 SUB DUP8 ADD MLOAD XOR PUSH1 0x40 DUP3 SUB DUP8 ADD MLOAD PUSH1 0x18 DUP4 SUB DUP9 ADD MLOAD XOR XOR PUSH29 0x300000003000000030000000300000003000000030000000300000003 PUSH4 0x40000000 DUP3 DIV AND PUSH32 0xFFFFFFFCFFFFFFFCFFFFFFFCFFFFFFFCFFFFFFFCFFFFFFFCFFFFFFFCFFFFFFFC PUSH1 0x4 DUP4 MUL AND OR SWAP1 POP DUP1 DUP3 DUP9 ADD MSTORE POP PUSH1 0x18 DUP2 ADD SWAP1 POP PUSH2 0x6E5 JUMP JUMPDEST POP DUP2 PUSH1 0x0 DUP1 PUSH1 0x0 JUMPDEST PUSH1 0x50 DUP2 LT ISZERO PUSH2 0x9CA JUMPI PUSH1 0x14 DUP2 DIV PUSH1 0x0 DUP2 EQ PUSH2 0x7A8 JUMPI PUSH1 0x1 DUP2 EQ PUSH2 0x7F2 JUMPI PUSH1 0x2 DUP2 EQ PUSH2 0x82F JUMPI PUSH1 0x3 DUP2 EQ PUSH2 0x892 JUMPI PUSH2 0x8CB JUMP JUMPDEST PUSH6 0x10000000000 DUP6 DIV PUSH11 0x100000000000000000000 DUP7 DIV XOR SWAP4 POP DUP4 PUSH16 0x1000000000000000000000000000000 DUP7 DIV AND SWAP4 POP DUP4 PUSH6 0x10000000000 DUP7 DIV XOR SWAP4 POP PUSH4 0x5A827999 SWAP3 POP PUSH2 0x8CB JUMP JUMPDEST PUSH11 0x100000000000000000000 DUP6 DIV PUSH16 0x1000000000000000000000000000000 DUP7 DIV XOR SWAP4 POP DUP4 PUSH6 0x10000000000 DUP7 DIV XOR SWAP4 POP PUSH4 0x6ED9EBA1 SWAP3 POP PUSH2 0x8CB JUMP JUMPDEST PUSH11 0x100000000000000000000 DUP6 DIV PUSH16 0x1000000000000000000000000000000 DUP7 DIV OR SWAP4 POP DUP4 PUSH6 0x10000000000 DUP7 DIV AND SWAP4 POP DUP4 PUSH11 0x100000000000000000000 DUP7 DIV PUSH16 0x1000000000000000000000000000000 DUP8 DIV AND OR SWAP4 POP PUSH4 0x8F1BBCDC SWAP3 POP PUSH2 0x8CB JUMP JUMPDEST PUSH11 0x100000000000000000000 DUP6 DIV PUSH16 0x1000000000000000000000000000000 DUP7 DIV XOR SWAP4 POP DUP4 PUSH6 0x10000000000 DUP7 DIV XOR SWAP4 POP PUSH4 0xCA62C1D6 SWAP3 POP JUMPDEST POP PUSH1 0x1F PUSH24 0x80000000000000000000000000000000000000000000000 DUP6 DIV AND DUP1 PUSH4 0xFFFFFFE0 PUSH20 0x800000000000000000000000000000000000000 DUP8 DIV AND OR SWAP1 POP DUP1 DUP5 ADD SWAP1 POP DUP1 PUSH4 0xFFFFFFFF DUP7 AND ADD SWAP1 POP DUP1 DUP4 ADD SWAP1 POP DUP1 PUSH29 0x100000000000000000000000000000000000000000000000000000000 PUSH1 0x4 DUP5 MUL DUP13 ADD MLOAD DIV ADD SWAP1 POP PUSH21 0x10000000000000000000000000000000000000000 DUP2 MUL PUSH6 0x10000000000 DUP7 DIV OR SWAP5 POP PUSH11 0x100000000000000000000 PUSH4 0x3FFFFFFF PUSH11 0x400000000000000000000 DUP8 DIV AND PUSH4 0xC0000000 PUSH7 0x4000000000000 DUP9 DIV AND OR MUL PUSH24 0xFFFFFFFF00FFFFFFFF000000000000FFFFFFFF00FFFFFFFF DUP7 AND OR SWAP5 POP POP PUSH1 0x1 DUP2 ADD SWAP1 POP PUSH2 0x776 JUMP JUMPDEST POP PUSH24 0xFFFFFFFF00FFFFFFFF00FFFFFFFF00FFFFFFFF00FFFFFFFF DUP4 DUP7 ADD AND SWAP5 POP POP POP POP PUSH1 0x40 DUP2 ADD SWAP1 POP PUSH2 0x5ED JUMP JUMPDEST POP PUSH13 0x1000000000000000000000000 PUSH4 0xFFFFFFFF DUP3 AND PUSH8 0xFFFFFFFF00000000 PUSH2 0x100 DUP5 DIV AND PUSH12 0xFFFFFFFF0000000000000000 PUSH3 0x10000 DUP6 DIV AND PUSH16 0xFFFFFFFF000000000000000000000000 PUSH4 0x1000000 DUP7 DIV AND PUSH20 0xFFFFFFFF00000000000000000000000000000000 PUSH5 0x100000000 DUP8 DIV AND OR OR OR OR MUL SWAP5 POP POP POP POP POP SWAP2 SWAP1 POP JUMP JUMPDEST JUMPDEST PUSH1 0x20 DUP2 LT PUSH2 0xAB7 JUMPI DUP2 MLOAD DUP4 MSTORE PUSH1 0x20 DUP4 PUSH2 0xA92 SWAP2 SWAP1 PUSH2 0xDB7 JUMP JUMPDEST SWAP3 POP PUSH1 0x20 DUP3 PUSH2 0xAA1 SWAP2 SWAP1 PUSH2 0xDB7 JUMP JUMPDEST SWAP2 POP PUSH1 0x20 DUP2 PUSH2 0xAB0 SWAP2 SWAP1 PUSH2 0xD54 JUMP JUMPDEST SWAP1 POP PUSH2 0xA79 JUMP JUMPDEST PUSH1 0x0 PUSH1 0x1 DUP3 PUSH1 0x20 SUB PUSH2 0x100 EXP SUB SWAP1 POP DUP1 NOT DUP4 MLOAD AND DUP2 DUP6 MLOAD AND DUP2 DUP2 OR DUP7 MSTORE POP POP POP POP POP POP JUMP JUMPDEST PUSH1 0x0 PUSH1 0x60 PUSH1 0x0 DUP6 MLOAD DUP6 MLOAD DUP6 MLOAD DUP9 DUP9 DUP9 PUSH1 0x40 MLOAD PUSH1 0x20 ADD PUSH2 0xB00 SWAP7 SWAP6 SWAP5 SWAP4 SWAP3 SWAP2 SWAP1 PUSH2 0xED7 JUMP JUMPDEST PUSH1 0x40 MLOAD PUSH1 0x20 DUP2 DUP4 SUB SUB DUP2 MSTORE SWAP1 PUSH1 0x40 MSTORE SWAP1 POP DUP4 MLOAD PUSH8 0xFFFFFFFFFFFFFFFF DUP2 GT ISZERO PUSH2 0xB2C JUMPI PUSH2 0xB2B PUSH2 0xE0D JUMP JUMPDEST JUMPDEST PUSH1 0x40 MLOAD SWAP1 DUP1 DUP3 MSTORE DUP1 PUSH1 0x1F ADD PUSH1 0x1F NOT AND PUSH1 0x20 ADD DUP3 ADD PUSH1 0x40 MSTORE DUP1 ISZERO PUSH2 0xB5E JUMPI DUP2 PUSH1 0x20 ADD PUSH1 0x1 DUP3 MUL DUP1 CALLDATASIZE DUP4 CALLDATACOPY DUP1 DUP3 ADD SWAP2 POP POP SWAP1 POP JUMPDEST POP SWAP2 POP DUP4 MLOAD PUSH1 0x20 DUP4 ADD DUP3 MLOAD PUSH1 0x20 DUP5 ADD PUSH1 0x5 GAS STATICCALL SWAP3 POP POP SWAP4 POP SWAP4 SWAP2 POP POP JUMP JUMPDEST PUSH1 0x0 DUP1 REVERT JUMPDEST PUSH1 0x0 DUP1 REVERT JUMPDEST PUSH1 0x0 DUP1 REVERT JUMPDEST PUSH1 0x0 DUP1 REVERT JUMPDEST PUSH1 0x0 DUP1 REVERT JUMPDEST PUSH1 0x0 DUP1 DUP4 PUSH1 0x1F DUP5 ADD SLT PUSH2 0xBAB JUMPI PUSH2 0xBAA PUSH2 0xB86 JUMP JUMPDEST JUMPDEST DUP3 CALLDATALOAD SWAP1 POP PUSH8 0xFFFFFFFFFFFFFFFF DUP2 GT ISZERO PUSH2 0xBC8 JUMPI PUSH2 0xBC7 PUSH2 0xB8B JUMP JUMPDEST JUMPDEST PUSH1 0x20 DUP4 ADD SWAP2 POP DUP4 PUSH1 0x1 DUP3 MUL DUP4 ADD GT ISZERO PUSH2 0xBE4 JUMPI PUSH2 0xBE3 PUSH2 0xB90 JUMP JUMPDEST JUMPDEST SWAP3 POP SWAP3 SWAP1 POP JUMP JUMPDEST PUSH1 0x0 DUP1 PUSH1 0x0 DUP1 PUSH1 0x0 DUP1 PUSH1 0x60 DUP8 DUP10 SUB SLT ISZERO PUSH2 0xC08 JUMPI PUSH2 0xC07 PUSH2 0xB7C JUMP JUMPDEST JUMPDEST PUSH1 0x0 DUP8 ADD CALLDATALOAD PUSH8 0xFFFFFFFFFFFFFFFF DUP2 GT ISZERO PUSH2 0xC26 JUMPI PUSH2 0xC25 PUSH2 0xB81 JUMP JUMPDEST JUMPDEST PUSH2 0xC32 DUP10 DUP3 DUP11 ADD PUSH2 0xB95 JUMP JUMPDEST SWAP7 POP SWAP7 POP POP PUSH1 0x20 DUP8 ADD CALLDATALOAD PUSH8 0xFFFFFFFFFFFFFFFF DUP2 GT ISZERO PUSH2 0xC55 JUMPI PUSH2 0xC54 PUSH2 0xB81 JUMP JUMPDEST JUMPDEST PUSH2 0xC61 DUP10 DUP3 DUP11 ADD PUSH2 0xB95 JUMP JUMPDEST SWAP5 POP SWAP5 POP POP PUSH1 0x40 DUP8 ADD CALLDATALOAD PUSH8 0xFFFFFFFFFFFFFFFF DUP2 GT ISZERO PUSH2 0xC84 JUMPI PUSH2 0xC83 PUSH2 0xB81 JUMP JUMPDEST JUMPDEST PUSH2 0xC90 DUP10 DUP3 DUP11 ADD PUSH2 0xB95 JUMP JUMPDEST SWAP3 POP SWAP3 POP POP SWAP3 SWAP6 POP SWAP3 SWAP6 POP SWAP3 SWAP6 JUMP JUMPDEST PUSH1 0x0 DUP2 ISZERO ISZERO SWAP1 POP SWAP2 SWAP1 POP JUMP JUMPDEST PUSH2 0xCB4 DUP2 PUSH2 0xC9F JUMP JUMPDEST DUP3 MSTORE POP POP JUMP JUMPDEST PUSH1 0x0 PUSH1 0x20 DUP3 ADD SWAP1 POP PUSH2 0xCCF PUSH1 0x0 DUP4 ADD DUP5 PUSH2 0xCAB JUMP JUMPDEST SWAP3 SWAP2 POP POP JUMP JUMPDEST PUSH1 0x0 PUSH2 0xFFFF DUP3 AND SWAP1 POP SWAP2 SWAP1 POP JUMP JUMPDEST PUSH32 0x4E487B7100000000000000000000000000000000000000000000000000000000 PUSH1 0x0 MSTORE PUSH1 0x11 PUSH1 0x4 MSTORE PUSH1 0x24 PUSH1 0x0 REVERT JUMPDEST PUSH1 0x0 PUSH2 0xD1D DUP3 PUSH2 0xCD5 JUMP JUMPDEST SWAP2 POP PUSH2 0xD28 DUP4 PUSH2 0xCD5 JUMP JUMPDEST SWAP3 POP DUP3 PUSH2 0xFFFF SUB DUP3 GT ISZERO PUSH2 0xD3F JUMPI PUSH2 0xD3E PUSH2 0xCE3 JUMP JUMPDEST JUMPDEST DUP3 DUP3 ADD SWAP1 POP SWAP3 SWAP2 POP POP JUMP JUMPDEST PUSH1 0x0 DUP2 SWAP1 POP SWAP2 SWAP1 POP JUMP JUMPDEST PUSH1 0x0 PUSH2 0xD5F DUP3 PUSH2 0xD4A JUMP JUMPDEST SWAP2 POP PUSH2 0xD6A DUP4 PUSH2 0xD4A JUMP JUMPDEST SWAP3 POP DUP3 DUP3 LT ISZERO PUSH2 0xD7D JUMPI PUSH2 0xD7C PUSH2 0xCE3 JUMP JUMPDEST JUMPDEST DUP3 DUP3 SUB SWAP1 POP SWAP3 SWAP2 POP POP JUMP JUMPDEST PUSH32 0x4E487B7100000000000000000000000000000000000000000000000000000000 PUSH1 0x0 MSTORE PUSH1 0x32 PUSH1 0x4 MSTORE PUSH1 0x24 PUSH1 0x0 REVERT JUMPDEST PUSH1 0x0 PUSH2 0xDC2 DUP3 PUSH2 0xD4A JUMP JUMPDEST SWAP2 POP PUSH2 0xDCD DUP4 PUSH2 0xD4A JUMP JUMPDEST SWAP3 POP DUP3 PUSH32 0xFFFFFFFFFFFFFFFFFFFFFFFFFFFFFFFFFFFFFFFFFFFFFFFFFFFFFFFFFFFFFFFF SUB DUP3 GT ISZERO PUSH2 0xE02 JUMPI PUSH2 0xE01 PUSH2 0xCE3 JUMP JUMPDEST JUMPDEST DUP3 DUP3 ADD SWAP1 POP SWAP3 SWAP2 POP POP JUMP JUMPDEST PUSH32 0x4E487B7100000000000000000000000000000000000000000000000000000000 PUSH1 0x0 MSTORE PUSH1 0x41 PUSH1 0x4 MSTORE PUSH1 0x24 PUSH1 0x0 REVERT JUMPDEST PUSH1 0x0 DUP2 SWAP1 POP SWAP2 SWAP1 POP JUMP JUMPDEST PUSH2 0xE57 PUSH2 0xE52 DUP3 PUSH2 0xD4A JUMP JUMPDEST PUSH2 0xE3C JUMP JUMPDEST DUP3 MSTORE POP POP JUMP JUMPDEST PUSH1 0x0 DUP2 MLOAD SWAP1 POP SWAP2 SWAP1 POP JUMP JUMPDEST PUSH1 0x0 DUP2 SWAP1 POP SWAP3 SWAP2 POP POP JUMP JUMPDEST PUSH1 0x0 JUMPDEST DUP4 DUP2 LT ISZERO PUSH2 0xE91 JUMPI DUP1 DUP3 ADD MLOAD DUP2 DUP5 ADD MSTORE PUSH1 0x20 DUP2 ADD SWAP1 POP PUSH2 0xE76 JUMP JUMPDEST DUP4 DUP2 GT ISZERO PUSH2 0xEA0 JUMPI PUSH1 0x0 DUP5 DUP5 ADD MSTORE JUMPDEST POP POP POP POP JUMP JUMPDEST PUSH1 0x0 PUSH2 0xEB1 DUP3 PUSH2 0xE5D JUMP JUMPDEST PUSH2 0xEBB DUP2 DUP6 PUSH2 0xE68 JUMP JUMPDEST SWAP4 POP PUSH2 0xECB DUP2 DUP6 PUSH1 0x20 DUP7 ADD PUSH2 0xE73 JUMP JUMPDEST DUP1 DUP5 ADD SWAP2 POP POP SWAP3 SWAP2 POP POP JUMP JUMPDEST PUSH1 0x0 PUSH2 0xEE3 DUP3 DUP10 PUSH2 0xE46 JUMP JUMPDEST PUSH1 0x20 DUP3 ADD SWAP2 POP PUSH2 0xEF3 DUP3 DUP9 PUSH2 0xE46 JUMP JUMPDEST PUSH1 0x20 DUP3 ADD SWAP2 POP PUSH2 0xF03 DUP3 DUP8 PUSH2 0xE46 JUMP JUMPDEST PUSH1 0x20 DUP3 ADD SWAP2 POP PUSH2 0xF13 DUP3 DUP7 PUSH2 0xEA6 JUMP JUMPDEST SWAP2 POP PUSH2 0xF1F DUP3 DUP6 PUSH2 0xEA6 JUMP JUMPDEST SWAP2 POP PUSH2 0xF2B DUP3 DUP5 PUSH2 0xEA6 JUMP JUMPDEST SWAP2 POP DUP2 SWAP1 POP SWAP8 SWAP7 POP POP POP POP POP POP POP JUMP INVALID LOG2 PUSH5 0x6970667358 0x22 SLT KECCAK256 0xDF 0x4E MOD 0xE4 0xDF PUSH15 0x87B919CB357BEC26877A5C342F6787 PC 0xF 0x2B SWAP6 0x5F 0xC6 PUSH24 0x1C1C91DA64736F6C634300080A0033000000000000000000 "
		},
		"gasEstimates": {
			"creation": {
				"codeDepositCost": "790600",
				"executionCost": "825",
				"totalCost": "791425"
			},
			"external": {
				"verify(bytes,bytes,bytes)": "infinite"
			}
		},
		"methodIdentifiers": {
			"verify(bytes,bytes,bytes)": "de8f50a1"
		}
	},
	"abi": [
		{
			"inputs": [
				{
					"internalType": "bytes",
					"name": "key",
					"type": "bytes"
				},
				{
					"internalType": "bytes",
					"name": "data",
					"type": "bytes"
				},
				{
					"internalType": "bytes",
					"name": "sig",
					"type": "bytes"
				}
			],
			"name": "verify",
			"outputs": [
				{
					"internalType": "bool",
					"name": "",
					"type": "bool"
				}
			],
			"stateMutability": "view",
			"type": "function"
		}
	]
}