{
	"contracts/dnssec-oracle/digests/SHA256Digest.sol": {
		"SHA256Digest": {
			"abi": [
				{
					"inputs": [
						{
							"internalType": "bytes",
							"name": "data",
							"type": "bytes"
						},
						{
							"internalType": "bytes",
							"name": "hash",
							"type": "bytes"
						}
					],
					"name": "verify",
					"outputs": [
						{
							"internalType": "bool",
							"name": "",
							"type": "bool"
						}
					],
					"stateMutability": "pure",
					"type": "function"
				}
			],
			"devdoc": {
				"details": "Implements the DNSSEC SHA256 digest.",
				"kind": "dev",
				"methods": {
					"verify(bytes,bytes)": {
						"details": "Verifies a cryptographic hash.",
						"params": {
							"data": "The data to hash.",
							"hash": "The hash to compare to."
						},
						"returns": {
							"_0": "True iff the hashed data matches the provided hash value."
						}
					}
				},
				"version": 1
			},
			"evm": {
				"assembly": "    /* \"contracts/dnssec-oracle/digests/SHA256Digest.sol\":128:418  contract SHA256Digest is Digest {... */\n  mstore(0x40, 0x80)\n  callvalue\n  dup1\n  iszero\n  tag_1\n  jumpi\n  0x00\n  dup1\n  revert\ntag_1:\n  pop\n  dataSize(sub_0)\n  dup1\n  dataOffset(sub_0)\n  0x00\n  codecopy\n  0x00\n  return\nstop\n\nsub_0: assembly {\n        /* \"contracts/dnssec-oracle/digests/SHA256Digest.sol\":128:418  contract SHA256Digest is Digest {... */\n      mstore(0x40, 0x80)\n      callvalue\n      dup1\n      iszero\n      tag_1\n      jumpi\n      0x00\n      dup1\n      revert\n    tag_1:\n      pop\n      jumpi(tag_2, lt(calldatasize, 0x04))\n      shr(0xe0, calldataload(0x00))\n      dup1\n      0xf7e83aee\n      eq\n      tag_3\n      jumpi\n    tag_2:\n      0x00\n      dup1\n      revert\n        /* \"contracts/dnssec-oracle/digests/SHA256Digest.sol\":195:416  function verify(bytes calldata data, bytes calldata hash) external override pure returns (bool) {... */\n    tag_3:\n      tag_4\n      0x04\n      dup1\n      calldatasize\n      sub\n      dup2\n      add\n      swap1\n      tag_5\n      swap2\n      swap1\n      tag_6\n      jump\t// in\n    tag_5:\n      tag_7\n      jump\t// in\n    tag_4:\n      mload(0x40)\n      tag_8\n      swap2\n      swap1\n      tag_9\n      jump\t// in\n    tag_8:\n      mload(0x40)\n      dup1\n      swap2\n      sub\n      swap1\n      return\n    tag_7:\n        /* \"contracts/dnssec-oracle/digests/SHA256Digest.sol\":285:289  bool */\n      0x00\n        /* \"contracts/dnssec-oracle/digests/SHA256Digest.sol\":324:326  32 */\n      0x20\n        /* \"contracts/dnssec-oracle/digests/SHA256Digest.sol\":309:313  hash */\n      dup4\n      dup4\n        /* \"contracts/dnssec-oracle/digests/SHA256Digest.sol\":309:320  hash.length */\n      swap1\n      pop\n        /* \"contracts/dnssec-oracle/digests/SHA256Digest.sol\":309:326  hash.length == 32 */\n      eq\n        /* \"contracts/dnssec-oracle/digests/SHA256Digest.sol\":301:357  require(hash.length == 32, \"Invalid sha256 hash length\") */\n      tag_11\n      jumpi\n      mload(0x40)\n      0x08c379a000000000000000000000000000000000000000000000000000000000\n      dup2\n      mstore\n      0x04\n      add\n      tag_12\n      swap1\n      tag_13\n      jump\t// in\n    tag_12:\n      mload(0x40)\n      dup1\n      swap2\n      sub\n      swap1\n      revert\n    tag_11:\n        /* \"contracts/dnssec-oracle/digests/SHA256Digest.sol\":390:409  hash.readBytes32(0) */\n      tag_14\n        /* \"contracts/dnssec-oracle/digests/SHA256Digest.sol\":407:408  0 */\n      0x00\n        /* \"contracts/dnssec-oracle/digests/SHA256Digest.sol\":390:394  hash */\n      dup5\n      dup5\n        /* \"contracts/dnssec-oracle/digests/SHA256Digest.sol\":390:406  hash.readBytes32 */\n      dup1\n      dup1\n      0x1f\n      add\n      0x20\n      dup1\n      swap2\n      div\n      mul\n      0x20\n      add\n      mload(0x40)\n      swap1\n      dup2\n      add\n      0x40\n      mstore\n      dup1\n      swap4\n      swap3\n      swap2\n      swap1\n      dup2\n      dup2\n      mstore\n      0x20\n      add\n      dup4\n      dup4\n      dup1\n      dup3\n      dup5\n      calldatacopy\n      0x00\n      dup2\n      dup5\n      add\n      mstore\n      not(0x1f)\n      0x1f\n      dup3\n      add\n      and\n      swap1\n      pop\n      dup1\n      dup4\n      add\n      swap3\n      pop\n      pop\n      pop\n      pop\n      pop\n      pop\n      pop\n      tag_15\n      swap1\n        /* \"contracts/dnssec-oracle/digests/SHA256Digest.sol\":390:409  hash.readBytes32(0) */\n      swap2\n      swap1\n      0xffffffff\n      and\n      jump\t// in\n    tag_14:\n        /* \"contracts/dnssec-oracle/digests/SHA256Digest.sol\":374:386  sha256(data) */\n      0x02\n        /* \"contracts/dnssec-oracle/digests/SHA256Digest.sol\":381:385  data */\n      dup7\n      dup7\n        /* \"contracts/dnssec-oracle/digests/SHA256Digest.sol\":374:386  sha256(data) */\n      mload(0x40)\n      tag_16\n      swap3\n      swap2\n      swap1\n      tag_17\n      jump\t// in\n    tag_16:\n      0x20\n      mload(0x40)\n      dup1\n      dup4\n      sub\n      dup2\n      dup6\n      gas\n      staticcall\n      iszero\n      dup1\n      iszero\n      tag_19\n      jumpi\n      returndatasize\n      0x00\n      dup1\n      returndatacopy\n      revert(0x00, returndatasize)\n    tag_19:\n      pop\n      pop\n      pop\n      mload(0x40)\n      returndatasize\n      not(0x1f)\n      0x1f\n      dup3\n      add\n      and\n      dup3\n      add\n      dup1\n      0x40\n      mstore\n      pop\n      dup2\n      add\n      swap1\n      tag_20\n      swap2\n      swap1\n      tag_21\n      jump\t// in\n    tag_20:\n        /* \"contracts/dnssec-oracle/digests/SHA256Digest.sol\":374:409  sha256(data) == hash.readBytes32(0) */\n      eq\n        /* \"contracts/dnssec-oracle/digests/SHA256Digest.sol\":367:409  return sha256(data) == hash.readBytes32(0) */\n      swap1\n      pop\n        /* \"contracts/dnssec-oracle/digests/SHA256Digest.sol\":195:416  function verify(bytes calldata data, bytes calldata hash) external override pure returns (bool) {... */\n      swap5\n      swap4\n      pop\n      pop\n      pop\n      pop\n      jump\t// out\n        /* \"contracts/dnssec-oracle/BytesUtils.sol\":6593:6807  function readBytes32(bytes memory self, uint idx) internal pure returns (bytes32 ret) {... */\n    tag_15:\n        /* \"contracts/dnssec-oracle/BytesUtils.sol\":6666:6677  bytes32 ret */\n      0x00\n        /* \"contracts/dnssec-oracle/BytesUtils.sol\":6709:6713  self */\n      dup3\n        /* \"contracts/dnssec-oracle/BytesUtils.sol\":6709:6720  self.length */\n      mload\n        /* \"contracts/dnssec-oracle/BytesUtils.sol\":6703:6705  32 */\n      0x20\n        /* \"contracts/dnssec-oracle/BytesUtils.sol\":6697:6700  idx */\n      dup4\n        /* \"contracts/dnssec-oracle/BytesUtils.sol\":6697:6705  idx + 32 */\n      tag_23\n      swap2\n      swap1\n      tag_24\n      jump\t// in\n    tag_23:\n        /* \"contracts/dnssec-oracle/BytesUtils.sol\":6697:6720  idx + 32 <= self.length */\n      gt\n      iszero\n        /* \"contracts/dnssec-oracle/BytesUtils.sol\":6689:6721  require(idx + 32 <= self.length) */\n      tag_25\n      jumpi\n      0x00\n      dup1\n      revert\n    tag_25:\n        /* \"contracts/dnssec-oracle/BytesUtils.sol\":6786:6789  idx */\n      dup2\n        /* \"contracts/dnssec-oracle/BytesUtils.sol\":6781:6783  32 */\n      0x20\n        /* \"contracts/dnssec-oracle/BytesUtils.sol\":6775:6779  self */\n      dup5\n        /* \"contracts/dnssec-oracle/BytesUtils.sol\":6771:6784  add(self, 32) */\n      add\n        /* \"contracts/dnssec-oracle/BytesUtils.sol\":6767:6790  add(add(self, 32), idx) */\n      add\n        /* \"contracts/dnssec-oracle/BytesUtils.sol\":6761:6791  mload(add(add(self, 32), idx)) */\n      mload\n        /* \"contracts/dnssec-oracle/BytesUtils.sol\":6754:6791  ret := mload(add(add(self, 32), idx)) */\n      swap1\n      pop\n        /* \"contracts/dnssec-oracle/BytesUtils.sol\":6593:6807  function readBytes32(bytes memory self, uint idx) internal pure returns (bytes32 ret) {... */\n      swap3\n      swap2\n      pop\n      pop\n      jump\t// out\n        /* \"#utility.yul\":88:205   */\n    tag_27:\n        /* \"#utility.yul\":197:198   */\n      0x00\n        /* \"#utility.yul\":194:195   */\n      dup1\n        /* \"#utility.yul\":187:199   */\n      revert\n        /* \"#utility.yul\":211:328   */\n    tag_28:\n        /* \"#utility.yul\":320:321   */\n      0x00\n        /* \"#utility.yul\":317:318   */\n      dup1\n        /* \"#utility.yul\":310:322   */\n      revert\n        /* \"#utility.yul\":334:451   */\n    tag_29:\n        /* \"#utility.yul\":443:444   */\n      0x00\n        /* \"#utility.yul\":440:441   */\n      dup1\n        /* \"#utility.yul\":433:445   */\n      revert\n        /* \"#utility.yul\":457:574   */\n    tag_30:\n        /* \"#utility.yul\":566:567   */\n      0x00\n        /* \"#utility.yul\":563:564   */\n      dup1\n        /* \"#utility.yul\":556:568   */\n      revert\n        /* \"#utility.yul\":580:697   */\n    tag_31:\n        /* \"#utility.yul\":689:690   */\n      0x00\n        /* \"#utility.yul\":686:687   */\n      dup1\n        /* \"#utility.yul\":679:691   */\n      revert\n        /* \"#utility.yul\":716:1268   */\n    tag_32:\n        /* \"#utility.yul\":773:781   */\n      0x00\n        /* \"#utility.yul\":783:789   */\n      dup1\n        /* \"#utility.yul\":833:836   */\n      dup4\n        /* \"#utility.yul\":826:830   */\n      0x1f\n        /* \"#utility.yul\":818:824   */\n      dup5\n        /* \"#utility.yul\":814:831   */\n      add\n        /* \"#utility.yul\":810:837   */\n      slt\n        /* \"#utility.yul\":800:922   */\n      tag_54\n      jumpi\n        /* \"#utility.yul\":841:920   */\n      tag_55\n      tag_29\n      jump\t// in\n    tag_55:\n        /* \"#utility.yul\":800:922   */\n    tag_54:\n        /* \"#utility.yul\":954:960   */\n      dup3\n        /* \"#utility.yul\":941:961   */\n      calldataload\n        /* \"#utility.yul\":931:961   */\n      swap1\n      pop\n        /* \"#utility.yul\":984:1002   */\n      0xffffffffffffffff\n        /* \"#utility.yul\":976:982   */\n      dup2\n        /* \"#utility.yul\":973:1003   */\n      gt\n        /* \"#utility.yul\":970:1087   */\n      iszero\n      tag_56\n      jumpi\n        /* \"#utility.yul\":1006:1085   */\n      tag_57\n      tag_30\n      jump\t// in\n    tag_57:\n        /* \"#utility.yul\":970:1087   */\n    tag_56:\n        /* \"#utility.yul\":1120:1124   */\n      0x20\n        /* \"#utility.yul\":1112:1118   */\n      dup4\n        /* \"#utility.yul\":1108:1125   */\n      add\n        /* \"#utility.yul\":1096:1125   */\n      swap2\n      pop\n        /* \"#utility.yul\":1174:1177   */\n      dup4\n        /* \"#utility.yul\":1166:1170   */\n      0x01\n        /* \"#utility.yul\":1158:1164   */\n      dup3\n        /* \"#utility.yul\":1154:1171   */\n      mul\n        /* \"#utility.yul\":1144:1152   */\n      dup4\n        /* \"#utility.yul\":1140:1172   */\n      add\n        /* \"#utility.yul\":1137:1178   */\n      gt\n        /* \"#utility.yul\":1134:1262   */\n      iszero\n      tag_58\n      jumpi\n        /* \"#utility.yul\":1181:1260   */\n      tag_59\n      tag_31\n      jump\t// in\n    tag_59:\n        /* \"#utility.yul\":1134:1262   */\n    tag_58:\n        /* \"#utility.yul\":716:1268   */\n      swap3\n      pop\n      swap3\n      swap1\n      pop\n      jump\t// out\n        /* \"#utility.yul\":1274:2144   */\n    tag_6:\n        /* \"#utility.yul\":1364:1370   */\n      0x00\n        /* \"#utility.yul\":1372:1378   */\n      dup1\n        /* \"#utility.yul\":1380:1386   */\n      0x00\n        /* \"#utility.yul\":1388:1394   */\n      dup1\n        /* \"#utility.yul\":1437:1439   */\n      0x40\n        /* \"#utility.yul\":1425:1434   */\n      dup6\n        /* \"#utility.yul\":1416:1423   */\n      dup8\n        /* \"#utility.yul\":1412:1435   */\n      sub\n        /* \"#utility.yul\":1408:1440   */\n      slt\n        /* \"#utility.yul\":1405:1524   */\n      iszero\n      tag_61\n      jumpi\n        /* \"#utility.yul\":1443:1522   */\n      tag_62\n      tag_27\n      jump\t// in\n    tag_62:\n        /* \"#utility.yul\":1405:1524   */\n    tag_61:\n        /* \"#utility.yul\":1591:1592   */\n      0x00\n        /* \"#utility.yul\":1580:1589   */\n      dup6\n        /* \"#utility.yul\":1576:1593   */\n      add\n        /* \"#utility.yul\":1563:1594   */\n      calldataload\n        /* \"#utility.yul\":1621:1639   */\n      0xffffffffffffffff\n        /* \"#utility.yul\":1613:1619   */\n      dup2\n        /* \"#utility.yul\":1610:1640   */\n      gt\n        /* \"#utility.yul\":1607:1724   */\n      iszero\n      tag_63\n      jumpi\n        /* \"#utility.yul\":1643:1722   */\n      tag_64\n      tag_28\n      jump\t// in\n    tag_64:\n        /* \"#utility.yul\":1607:1724   */\n    tag_63:\n        /* \"#utility.yul\":1756:1820   */\n      tag_65\n        /* \"#utility.yul\":1812:1819   */\n      dup8\n        /* \"#utility.yul\":1803:1809   */\n      dup3\n        /* \"#utility.yul\":1792:1801   */\n      dup9\n        /* \"#utility.yul\":1788:1810   */\n      add\n        /* \"#utility.yul\":1756:1820   */\n      tag_32\n      jump\t// in\n    tag_65:\n        /* \"#utility.yul\":1738:1820   */\n      swap5\n      pop\n      swap5\n      pop\n        /* \"#utility.yul\":1534:1830   */\n      pop\n        /* \"#utility.yul\":1897:1899   */\n      0x20\n        /* \"#utility.yul\":1886:1895   */\n      dup6\n        /* \"#utility.yul\":1882:1900   */\n      add\n        /* \"#utility.yul\":1869:1901   */\n      calldataload\n        /* \"#utility.yul\":1928:1946   */\n      0xffffffffffffffff\n        /* \"#utility.yul\":1920:1926   */\n      dup2\n        /* \"#utility.yul\":1917:1947   */\n      gt\n        /* \"#utility.yul\":1914:2031   */\n      iszero\n      tag_66\n      jumpi\n        /* \"#utility.yul\":1950:2029   */\n      tag_67\n      tag_28\n      jump\t// in\n    tag_67:\n        /* \"#utility.yul\":1914:2031   */\n    tag_66:\n        /* \"#utility.yul\":2063:2127   */\n      tag_68\n        /* \"#utility.yul\":2119:2126   */\n      dup8\n        /* \"#utility.yul\":2110:2116   */\n      dup3\n        /* \"#utility.yul\":2099:2108   */\n      dup9\n        /* \"#utility.yul\":2095:2117   */\n      add\n        /* \"#utility.yul\":2063:2127   */\n      tag_32\n      jump\t// in\n    tag_68:\n        /* \"#utility.yul\":2045:2127   */\n      swap3\n      pop\n      swap3\n      pop\n        /* \"#utility.yul\":1840:2137   */\n      pop\n        /* \"#utility.yul\":1274:2144   */\n      swap3\n      swap6\n      swap2\n      swap5\n      pop\n      swap3\n      pop\n      jump\t// out\n        /* \"#utility.yul\":2150:2240   */\n    tag_33:\n        /* \"#utility.yul\":2184:2191   */\n      0x00\n        /* \"#utility.yul\":2227:2232   */\n      dup2\n        /* \"#utility.yul\":2220:2233   */\n      iszero\n        /* \"#utility.yul\":2213:2234   */\n      iszero\n        /* \"#utility.yul\":2202:2234   */\n      swap1\n      pop\n        /* \"#utility.yul\":2150:2240   */\n      swap2\n      swap1\n      pop\n      jump\t// out\n        /* \"#utility.yul\":2246:2355   */\n    tag_34:\n        /* \"#utility.yul\":2327:2348   */\n      tag_71\n        /* \"#utility.yul\":2342:2347   */\n      dup2\n        /* \"#utility.yul\":2327:2348   */\n      tag_33\n      jump\t// in\n    tag_71:\n        /* \"#utility.yul\":2322:2325   */\n      dup3\n        /* \"#utility.yul\":2315:2349   */\n      mstore\n        /* \"#utility.yul\":2246:2355   */\n      pop\n      pop\n      jump\t// out\n        /* \"#utility.yul\":2361:2571   */\n    tag_9:\n        /* \"#utility.yul\":2448:2452   */\n      0x00\n        /* \"#utility.yul\":2486:2488   */\n      0x20\n        /* \"#utility.yul\":2475:2484   */\n      dup3\n        /* \"#utility.yul\":2471:2489   */\n      add\n        /* \"#utility.yul\":2463:2489   */\n      swap1\n      pop\n        /* \"#utility.yul\":2499:2564   */\n      tag_73\n        /* \"#utility.yul\":2561:2562   */\n      0x00\n        /* \"#utility.yul\":2550:2559   */\n      dup4\n        /* \"#utility.yul\":2546:2563   */\n      add\n        /* \"#utility.yul\":2537:2543   */\n      dup5\n        /* \"#utility.yul\":2499:2564   */\n      tag_34\n      jump\t// in\n    tag_73:\n        /* \"#utility.yul\":2361:2571   */\n      swap3\n      swap2\n      pop\n      pop\n      jump\t// out\n        /* \"#utility.yul\":2577:2746   */\n    tag_35:\n        /* \"#utility.yul\":2661:2672   */\n      0x00\n        /* \"#utility.yul\":2695:2701   */\n      dup3\n        /* \"#utility.yul\":2690:2693   */\n      dup3\n        /* \"#utility.yul\":2683:2702   */\n      mstore\n        /* \"#utility.yul\":2735:2739   */\n      0x20\n        /* \"#utility.yul\":2730:2733   */\n      dup3\n        /* \"#utility.yul\":2726:2740   */\n      add\n        /* \"#utility.yul\":2711:2740   */\n      swap1\n      pop\n        /* \"#utility.yul\":2577:2746   */\n      swap3\n      swap2\n      pop\n      pop\n      jump\t// out\n        /* \"#utility.yul\":2752:2928   */\n    tag_36:\n        /* \"#utility.yul\":2892:2920   */\n      0x496e76616c6964207368613235362068617368206c656e677468000000000000\n        /* \"#utility.yul\":2888:2889   */\n      0x00\n        /* \"#utility.yul\":2880:2886   */\n      dup3\n        /* \"#utility.yul\":2876:2890   */\n      add\n        /* \"#utility.yul\":2869:2921   */\n      mstore\n        /* \"#utility.yul\":2752:2928   */\n      pop\n      jump\t// out\n        /* \"#utility.yul\":2934:3300   */\n    tag_37:\n        /* \"#utility.yul\":3076:3079   */\n      0x00\n        /* \"#utility.yul\":3097:3164   */\n      tag_77\n        /* \"#utility.yul\":3161:3163   */\n      0x1a\n        /* \"#utility.yul\":3156:3159   */\n      dup4\n        /* \"#utility.yul\":3097:3164   */\n      tag_35\n      jump\t// in\n    tag_77:\n        /* \"#utility.yul\":3090:3164   */\n      swap2\n      pop\n        /* \"#utility.yul\":3173:3266   */\n      tag_78\n        /* \"#utility.yul\":3262:3265   */\n      dup3\n        /* \"#utility.yul\":3173:3266   */\n      tag_36\n      jump\t// in\n    tag_78:\n        /* \"#utility.yul\":3291:3293   */\n      0x20\n        /* \"#utility.yul\":3286:3289   */\n      dup3\n        /* \"#utility.yul\":3282:3294   */\n      add\n        /* \"#utility.yul\":3275:3294   */\n      swap1\n      pop\n        /* \"#utility.yul\":2934:3300   */\n      swap2\n      swap1\n      pop\n      jump\t// out\n        /* \"#utility.yul\":3306:3725   */\n    tag_13:\n        /* \"#utility.yul\":3472:3476   */\n      0x00\n        /* \"#utility.yul\":3510:3512   */\n      0x20\n        /* \"#utility.yul\":3499:3508   */\n      dup3\n        /* \"#utility.yul\":3495:3513   */\n      add\n        /* \"#utility.yul\":3487:3513   */\n      swap1\n      pop\n        /* \"#utility.yul\":3559:3568   */\n      dup2\n        /* \"#utility.yul\":3553:3557   */\n      dup2\n        /* \"#utility.yul\":3549:3569   */\n      sub\n        /* \"#utility.yul\":3545:3546   */\n      0x00\n        /* \"#utility.yul\":3534:3543   */\n      dup4\n        /* \"#utility.yul\":3530:3547   */\n      add\n        /* \"#utility.yul\":3523:3570   */\n      mstore\n        /* \"#utility.yul\":3587:3718   */\n      tag_80\n        /* \"#utility.yul\":3713:3717   */\n      dup2\n        /* \"#utility.yul\":3587:3718   */\n      tag_37\n      jump\t// in\n    tag_80:\n        /* \"#utility.yul\":3579:3718   */\n      swap1\n      pop\n        /* \"#utility.yul\":3306:3725   */\n      swap2\n      swap1\n      pop\n      jump\t// out\n        /* \"#utility.yul\":3731:3878   */\n    tag_38:\n        /* \"#utility.yul\":3832:3843   */\n      0x00\n        /* \"#utility.yul\":3869:3872   */\n      dup2\n        /* \"#utility.yul\":3854:3872   */\n      swap1\n      pop\n        /* \"#utility.yul\":3731:3878   */\n      swap3\n      swap2\n      pop\n      pop\n      jump\t// out\n        /* \"#utility.yul\":3884:4030   */\n    tag_39:\n        /* \"#utility.yul\":3981:3987   */\n      dup3\n        /* \"#utility.yul\":3976:3979   */\n      dup2\n        /* \"#utility.yul\":3971:3974   */\n      dup4\n        /* \"#utility.yul\":3958:3988   */\n      calldatacopy\n        /* \"#utility.yul\":4022:4023   */\n      0x00\n        /* \"#utility.yul\":4013:4019   */\n      dup4\n        /* \"#utility.yul\":4008:4011   */\n      dup4\n        /* \"#utility.yul\":4004:4020   */\n      add\n        /* \"#utility.yul\":3997:4024   */\n      mstore\n        /* \"#utility.yul\":3884:4030   */\n      pop\n      pop\n      pop\n      jump\t// out\n        /* \"#utility.yul\":4058:4385   */\n    tag_40:\n        /* \"#utility.yul\":4172:4175   */\n      0x00\n        /* \"#utility.yul\":4193:4281   */\n      tag_84\n        /* \"#utility.yul\":4274:4280   */\n      dup4\n        /* \"#utility.yul\":4269:4272   */\n      dup6\n        /* \"#utility.yul\":4193:4281   */\n      tag_38\n      jump\t// in\n    tag_84:\n        /* \"#utility.yul\":4186:4281   */\n      swap4\n      pop\n        /* \"#utility.yul\":4291:4347   */\n      tag_85\n        /* \"#utility.yul\":4340:4346   */\n      dup4\n        /* \"#utility.yul\":4335:4338   */\n      dup6\n        /* \"#utility.yul\":4328:4333   */\n      dup5\n        /* \"#utility.yul\":4291:4347   */\n      tag_39\n      jump\t// in\n    tag_85:\n        /* \"#utility.yul\":4372:4378   */\n      dup3\n        /* \"#utility.yul\":4367:4370   */\n      dup5\n        /* \"#utility.yul\":4363:4379   */\n      add\n        /* \"#utility.yul\":4356:4379   */\n      swap1\n      pop\n        /* \"#utility.yul\":4058:4385   */\n      swap4\n      swap3\n      pop\n      pop\n      pop\n      jump\t// out\n        /* \"#utility.yul\":4391:4682   */\n    tag_17:\n        /* \"#utility.yul\":4531:4534   */\n      0x00\n        /* \"#utility.yul\":4553:4656   */\n      tag_87\n        /* \"#utility.yul\":4652:4655   */\n      dup3\n        /* \"#utility.yul\":4643:4649   */\n      dup5\n        /* \"#utility.yul\":4635:4641   */\n      dup7\n        /* \"#utility.yul\":4553:4656   */\n      tag_40\n      jump\t// in\n    tag_87:\n        /* \"#utility.yul\":4546:4656   */\n      swap2\n      pop\n        /* \"#utility.yul\":4673:4676   */\n      dup2\n        /* \"#utility.yul\":4666:4676   */\n      swap1\n      pop\n        /* \"#utility.yul\":4391:4682   */\n      swap4\n      swap3\n      pop\n      pop\n      pop\n      jump\t// out\n        /* \"#utility.yul\":4688:4765   */\n    tag_41:\n        /* \"#utility.yul\":4725:4732   */\n      0x00\n        /* \"#utility.yul\":4754:4759   */\n      dup2\n        /* \"#utility.yul\":4743:4759   */\n      swap1\n      pop\n        /* \"#utility.yul\":4688:4765   */\n      swap2\n      swap1\n      pop\n      jump\t// out\n        /* \"#utility.yul\":4771:4893   */\n    tag_42:\n        /* \"#utility.yul\":4844:4868   */\n      tag_90\n        /* \"#utility.yul\":4862:4867   */\n      dup2\n        /* \"#utility.yul\":4844:4868   */\n      tag_41\n      jump\t// in\n    tag_90:\n        /* \"#utility.yul\":4837:4842   */\n      dup2\n        /* \"#utility.yul\":4834:4869   */\n      eq\n        /* \"#utility.yul\":4824:4887   */\n      tag_91\n      jumpi\n        /* \"#utility.yul\":4883:4884   */\n      0x00\n        /* \"#utility.yul\":4880:4881   */\n      dup1\n        /* \"#utility.yul\":4873:4885   */\n      revert\n        /* \"#utility.yul\":4824:4887   */\n    tag_91:\n        /* \"#utility.yul\":4771:4893   */\n      pop\n      jump\t// out\n        /* \"#utility.yul\":4899:5042   */\n    tag_43:\n        /* \"#utility.yul\":4956:4961   */\n      0x00\n        /* \"#utility.yul\":4987:4993   */\n      dup2\n        /* \"#utility.yul\":4981:4994   */\n      mload\n        /* \"#utility.yul\":4972:4994   */\n      swap1\n      pop\n        /* \"#utility.yul\":5003:5036   */\n      tag_93\n        /* \"#utility.yul\":5030:5035   */\n      dup2\n        /* \"#utility.yul\":5003:5036   */\n      tag_42\n      jump\t// in\n    tag_93:\n        /* \"#utility.yul\":4899:5042   */\n      swap3\n      swap2\n      pop\n      pop\n      jump\t// out\n        /* \"#utility.yul\":5048:5399   */\n    tag_21:\n        /* \"#utility.yul\":5118:5124   */\n      0x00\n        /* \"#utility.yul\":5167:5169   */\n      0x20\n        /* \"#utility.yul\":5155:5164   */\n      dup3\n        /* \"#utility.yul\":5146:5153   */\n      dup5\n        /* \"#utility.yul\":5142:5165   */\n      sub\n        /* \"#utility.yul\":5138:5170   */\n      slt\n        /* \"#utility.yul\":5135:5254   */\n      iszero\n      tag_95\n      jumpi\n        /* \"#utility.yul\":5173:5252   */\n      tag_96\n      tag_27\n      jump\t// in\n    tag_96:\n        /* \"#utility.yul\":5135:5254   */\n    tag_95:\n        /* \"#utility.yul\":5293:5294   */\n      0x00\n        /* \"#utility.yul\":5318:5382   */\n      tag_97\n        /* \"#utility.yul\":5374:5381   */\n      dup5\n        /* \"#utility.yul\":5365:5371   */\n      dup3\n        /* \"#utility.yul\":5354:5363   */\n      dup6\n        /* \"#utility.yul\":5350:5372   */\n      add\n        /* \"#utility.yul\":5318:5382   */\n      tag_43\n      jump\t// in\n    tag_97:\n        /* \"#utility.yul\":5308:5382   */\n      swap2\n      pop\n        /* \"#utility.yul\":5264:5392   */\n      pop\n        /* \"#utility.yul\":5048:5399   */\n      swap3\n      swap2\n      pop\n      pop\n      jump\t// out\n        /* \"#utility.yul\":5405:5482   */\n    tag_44:\n        /* \"#utility.yul\":5442:5449   */\n      0x00\n        /* \"#utility.yul\":5471:5476   */\n      dup2\n        /* \"#utility.yul\":5460:5476   */\n      swap1\n      pop\n        /* \"#utility.yul\":5405:5482   */\n      swap2\n      swap1\n      pop\n      jump\t// out\n        /* \"#utility.yul\":5488:5668   */\n    tag_45:\n        /* \"#utility.yul\":5536:5613   */\n      0x4e487b7100000000000000000000000000000000000000000000000000000000\n        /* \"#utility.yul\":5533:5534   */\n      0x00\n        /* \"#utility.yul\":5526:5614   */\n      mstore\n        /* \"#utility.yul\":5633:5637   */\n      0x11\n        /* \"#utility.yul\":5630:5631   */\n      0x04\n        /* \"#utility.yul\":5623:5638   */\n      mstore\n        /* \"#utility.yul\":5657:5661   */\n      0x24\n        /* \"#utility.yul\":5654:5655   */\n      0x00\n        /* \"#utility.yul\":5647:5662   */\n      revert\n        /* \"#utility.yul\":5674:5865   */\n    tag_24:\n        /* \"#utility.yul\":5714:5717   */\n      0x00\n        /* \"#utility.yul\":5733:5753   */\n      tag_101\n        /* \"#utility.yul\":5751:5752   */\n      dup3\n        /* \"#utility.yul\":5733:5753   */\n      tag_44\n      jump\t// in\n    tag_101:\n        /* \"#utility.yul\":5728:5753   */\n      swap2\n      pop\n        /* \"#utility.yul\":5767:5787   */\n      tag_102\n        /* \"#utility.yul\":5785:5786   */\n      dup4\n        /* \"#utility.yul\":5767:5787   */\n      tag_44\n      jump\t// in\n    tag_102:\n        /* \"#utility.yul\":5762:5787   */\n      swap3\n      pop\n        /* \"#utility.yul\":5810:5811   */\n      dup3\n        /* \"#utility.yul\":5807:5808   */\n      dup3\n        /* \"#utility.yul\":5803:5812   */\n      add\n        /* \"#utility.yul\":5796:5812   */\n      swap1\n      pop\n        /* \"#utility.yul\":5831:5834   */\n      dup1\n        /* \"#utility.yul\":5828:5829   */\n      dup3\n        /* \"#utility.yul\":5825:5835   */\n      gt\n        /* \"#utility.yul\":5822:5858   */\n      iszero\n      tag_103\n      jumpi\n        /* \"#utility.yul\":5838:5856   */\n      tag_104\n      tag_45\n      jump\t// in\n    tag_104:\n        /* \"#utility.yul\":5822:5858   */\n    tag_103:\n        /* \"#utility.yul\":5674:5865   */\n      swap3\n      swap2\n      pop\n      pop\n      jump\t// out\n\n    auxdata: 0xa2646970667358221220534a1bfc766a794f2929089bec61f435a957d3f8f619c57209178e31df2e36a164736f6c63430008180033\n}\n",
				"bytecode": {
					"linkReferences": {},
					"object": "608060405234801561000f575f80fd5b506104618061001d5f395ff3fe608060405234801561000f575f80fd5b5060043610610029575f3560e01c8063f7e83aee1461002d575b5f80fd5b610047600480360381019061004291906101e7565b61005d565b604051610054919061027f565b60405180910390f35b5f602083839050146100a4576040517f08c379a000000000000000000000000000000000000000000000000000000000815260040161009b906102f2565b60405180910390fd5b6100fa5f84848080601f0160208091040260200160405190810160405280939291908181526020018383808284375f81840152601f19601f8201169050808301925050505050505061015590919063ffffffff16565b6002868660405161010c92919061034c565b602060405180830381855afa158015610127573d5f803e3d5ffd5b5050506040513d601f19601f8201168201806040525081019061014a9190610397565b149050949350505050565b5f825160208361016591906103f8565b111561016f575f80fd5b81602084010151905092915050565b5f80fd5b5f80fd5b5f80fd5b5f80fd5b5f80fd5b5f8083601f8401126101a7576101a6610186565b5b8235905067ffffffffffffffff8111156101c4576101c361018a565b5b6020830191508360018202830111156101e0576101df61018e565b5b9250929050565b5f805f80604085870312156101ff576101fe61017e565b5b5f85013567ffffffffffffffff81111561021c5761021b610182565b5b61022887828801610192565b9450945050602085013567ffffffffffffffff81111561024b5761024a610182565b5b61025787828801610192565b925092505092959194509250565b5f8115159050919050565b61027981610265565b82525050565b5f6020820190506102925f830184610270565b92915050565b5f82825260208201905092915050565b7f496e76616c6964207368613235362068617368206c656e6774680000000000005f82015250565b5f6102dc601a83610298565b91506102e7826102a8565b602082019050919050565b5f6020820190508181035f830152610309816102d0565b9050919050565b5f81905092915050565b828183375f83830152505050565b5f6103338385610310565b935061034083858461031a565b82840190509392505050565b5f610358828486610328565b91508190509392505050565b5f819050919050565b61037681610364565b8114610380575f80fd5b50565b5f815190506103918161036d565b92915050565b5f602082840312156103ac576103ab61017e565b5b5f6103b984828501610383565b91505092915050565b5f819050919050565b7f4e487b71000000000000000000000000000000000000000000000000000000005f52601160045260245ffd5b5f610402826103c2565b915061040d836103c2565b9250828201905080821115610425576104246103cb565b5b9291505056fea2646970667358221220534a1bfc766a794f2929089bec61f435a957d3f8f619c57209178e31df2e36a164736f6c63430008180033",
					"opcodes": "PUSH1 0x80 PUSH1 0x40 MSTORE CALLVALUE DUP1 ISZERO PUSH2 0xF JUMPI PUSH0 DUP1 REVERT JUMPDEST POP PUSH2 0x461 DUP1 PUSH2 0x1D PUSH0 CODECOPY PUSH0 RETURN INVALID PUSH1 0x80 PUSH1 0x40 MSTORE CALLVALUE DUP1 ISZERO PUSH2 0xF JUMPI PUSH0 DUP1 REVERT JUMPDEST POP PUSH1 0x4 CALLDATASIZE LT PUSH2 0x29 JUMPI PUSH0 CALLDATALOAD PUSH1 0xE0 SHR DUP1 PUSH4 0xF7E83AEE EQ PUSH2 0x2D JUMPI JUMPDEST PUSH0 DUP1 REVERT JUMPDEST PUSH2 0x47 PUSH1 0x4 DUP1 CALLDATASIZE SUB DUP2 ADD SWAP1 PUSH2 0x42 SWAP2 SWAP1 PUSH2 0x1E7 JUMP JUMPDEST PUSH2 0x5D JUMP JUMPDEST PUSH1 0x40 MLOAD PUSH2 0x54 SWAP2 SWAP1 PUSH2 0x27F JUMP JUMPDEST PUSH1 0x40 MLOAD DUP1 SWAP2 SUB SWAP1 RETURN JUMPDEST PUSH0 PUSH1 0x20 DUP4 DUP4 SWAP1 POP EQ PUSH2 0xA4 JUMPI PUSH1 0x40 MLOAD PUSH32 0x8C379A000000000000000000000000000000000000000000000000000000000 DUP2 MSTORE PUSH1 0x4 ADD PUSH2 0x9B SWAP1 PUSH2 0x2F2 JUMP JUMPDEST PUSH1 0x40 MLOAD DUP1 SWAP2 SUB SWAP1 REVERT JUMPDEST PUSH2 0xFA PUSH0 DUP5 DUP5 DUP1 DUP1 PUSH1 0x1F ADD PUSH1 0x20 DUP1 SWAP2 DIV MUL PUSH1 0x20 ADD PUSH1 0x40 MLOAD SWAP1 DUP2 ADD PUSH1 0x40 MSTORE DUP1 SWAP4 SWAP3 SWAP2 SWAP1 DUP2 DUP2 MSTORE PUSH1 0x20 ADD DUP4 DUP4 DUP1 DUP3 DUP5 CALLDATACOPY PUSH0 DUP2 DUP5 ADD MSTORE PUSH1 0x1F NOT PUSH1 0x1F DUP3 ADD AND SWAP1 POP DUP1 DUP4 ADD SWAP3 POP POP POP POP POP POP POP PUSH2 0x155 SWAP1 SWAP2 SWAP1 PUSH4 0xFFFFFFFF AND JUMP JUMPDEST PUSH1 0x2 DUP7 DUP7 PUSH1 0x40 MLOAD PUSH2 0x10C SWAP3 SWAP2 SWAP1 PUSH2 0x34C JUMP JUMPDEST PUSH1 0x20 PUSH1 0x40 MLOAD DUP1 DUP4 SUB DUP2 DUP6 GAS STATICCALL ISZERO DUP1 ISZERO PUSH2 0x127 JUMPI RETURNDATASIZE PUSH0 DUP1 RETURNDATACOPY RETURNDATASIZE PUSH0 REVERT JUMPDEST POP POP POP PUSH1 0x40 MLOAD RETURNDATASIZE PUSH1 0x1F NOT PUSH1 0x1F DUP3 ADD AND DUP3 ADD DUP1 PUSH1 0x40 MSTORE POP DUP2 ADD SWAP1 PUSH2 0x14A SWAP2 SWAP1 PUSH2 0x397 JUMP JUMPDEST EQ SWAP1 POP SWAP5 SWAP4 POP POP POP POP JUMP JUMPDEST PUSH0 DUP3 MLOAD PUSH1 0x20 DUP4 PUSH2 0x165 SWAP2 SWAP1 PUSH2 0x3F8 JUMP JUMPDEST GT ISZERO PUSH2 0x16F JUMPI PUSH0 DUP1 REVERT JUMPDEST DUP2 PUSH1 0x20 DUP5 ADD ADD MLOAD SWAP1 POP SWAP3 SWAP2 POP POP JUMP JUMPDEST PUSH0 DUP1 REVERT JUMPDEST PUSH0 DUP1 REVERT JUMPDEST PUSH0 DUP1 REVERT JUMPDEST PUSH0 DUP1 REVERT JUMPDEST PUSH0 DUP1 REVERT JUMPDEST PUSH0 DUP1 DUP4 PUSH1 0x1F DUP5 ADD SLT PUSH2 0x1A7 JUMPI PUSH2 0x1A6 PUSH2 0x186 JUMP JUMPDEST JUMPDEST DUP3 CALLDATALOAD SWAP1 POP PUSH8 0xFFFFFFFFFFFFFFFF DUP2 GT ISZERO PUSH2 0x1C4 JUMPI PUSH2 0x1C3 PUSH2 0x18A JUMP JUMPDEST JUMPDEST PUSH1 0x20 DUP4 ADD SWAP2 POP DUP4 PUSH1 0x1 DUP3 MUL DUP4 ADD GT ISZERO PUSH2 0x1E0 JUMPI PUSH2 0x1DF PUSH2 0x18E JUMP JUMPDEST JUMPDEST SWAP3 POP SWAP3 SWAP1 POP JUMP JUMPDEST PUSH0 DUP1 PUSH0 DUP1 PUSH1 0x40 DUP6 DUP8 SUB SLT ISZERO PUSH2 0x1FF JUMPI PUSH2 0x1FE PUSH2 0x17E JUMP JUMPDEST JUMPDEST PUSH0 DUP6 ADD CALLDATALOAD PUSH8 0xFFFFFFFFFFFFFFFF DUP2 GT ISZERO PUSH2 0x21C JUMPI PUSH2 0x21B PUSH2 0x182 JUMP JUMPDEST JUMPDEST PUSH2 0x228 DUP8 DUP3 DUP9 ADD PUSH2 0x192 JUMP JUMPDEST SWAP5 POP SWAP5 POP POP PUSH1 0x20 DUP6 ADD CALLDATALOAD PUSH8 0xFFFFFFFFFFFFFFFF DUP2 GT ISZERO PUSH2 0x24B JUMPI PUSH2 0x24A PUSH2 0x182 JUMP JUMPDEST JUMPDEST PUSH2 0x257 DUP8 DUP3 DUP9 ADD PUSH2 0x192 JUMP JUMPDEST SWAP3 POP SWAP3 POP POP SWAP3 SWAP6 SWAP2 SWAP5 POP SWAP3 POP JUMP JUMPDEST PUSH0 DUP2 ISZERO ISZERO SWAP1 POP SWAP2 SWAP1 POP JUMP JUMPDEST PUSH2 0x279 DUP2 PUSH2 0x265 JUMP JUMPDEST DUP3 MSTORE POP POP JUMP JUMPDEST PUSH0 PUSH1 0x20 DUP3 ADD SWAP1 POP PUSH2 0x292 PUSH0 DUP4 ADD DUP5 PUSH2 0x270 JUMP JUMPDEST SWAP3 SWAP2 POP POP JUMP JUMPDEST PUSH0 DUP3 DUP3 MSTORE PUSH1 0x20 DUP3 ADD SWAP1 POP SWAP3 SWAP2 POP POP JUMP JUMPDEST PUSH32 0x496E76616C6964207368613235362068617368206C656E677468000000000000 PUSH0 DUP3 ADD MSTORE POP JUMP JUMPDEST PUSH0 PUSH2 0x2DC PUSH1 0x1A DUP4 PUSH2 0x298 JUMP JUMPDEST SWAP2 POP PUSH2 0x2E7 DUP3 PUSH2 0x2A8 JUMP JUMPDEST PUSH1 0x20 DUP3 ADD SWAP1 POP SWAP2 SWAP1 POP JUMP JUMPDEST PUSH0 PUSH1 0x20 DUP3 ADD SWAP1 POP DUP2 DUP2 SUB PUSH0 DUP4 ADD MSTORE PUSH2 0x309 DUP2 PUSH2 0x2D0 JUMP JUMPDEST SWAP1 POP SWAP2 SWAP1 POP JUMP JUMPDEST PUSH0 DUP2 SWAP1 POP SWAP3 SWAP2 POP POP JUMP JUMPDEST DUP3 DUP2 DUP4 CALLDATACOPY PUSH0 DUP4 DUP4 ADD MSTORE POP POP POP JUMP JUMPDEST PUSH0 PUSH2 0x333 DUP4 DUP6 PUSH2 0x310 JUMP JUMPDEST SWAP4 POP PUSH2 0x340 DUP4 DUP6 DUP5 PUSH2 0x31A JUMP JUMPDEST DUP3 DUP5 ADD SWAP1 POP SWAP4 SWAP3 POP POP POP JUMP JUMPDEST PUSH0 PUSH2 0x358 DUP3 DUP5 DUP7 PUSH2 0x328 JUMP JUMPDEST SWAP2 POP DUP2 SWAP1 POP SWAP4 SWAP3 POP POP POP JUMP JUMPDEST PUSH0 DUP2 SWAP1 POP SWAP2 SWAP1 POP JUMP JUMPDEST PUSH2 0x376 DUP2 PUSH2 0x364 JUMP JUMPDEST DUP2 EQ PUSH2 0x380 JUMPI PUSH0 DUP1 REVERT JUMPDEST POP JUMP JUMPDEST PUSH0 DUP2 MLOAD SWAP1 POP PUSH2 0x391 DUP2 PUSH2 0x36D JUMP JUMPDEST SWAP3 SWAP2 POP POP JUMP JUMPDEST PUSH0 PUSH1 0x20 DUP3 DUP5 SUB SLT ISZERO PUSH2 0x3AC JUMPI PUSH2 0x3AB PUSH2 0x17E JUMP JUMPDEST JUMPDEST PUSH0 PUSH2 0x3B9 DUP5 DUP3 DUP6 ADD PUSH2 0x383 JUMP JUMPDEST SWAP2 POP POP SWAP3 SWAP2 POP POP JUMP JUMPDEST PUSH0 DUP2 SWAP1 POP SWAP2 SWAP1 POP JUMP JUMPDEST PUSH32 0x4E487B7100000000000000000000000000000000000000000000000000000000 PUSH0 MSTORE PUSH1 0x11 PUSH1 0x4 MSTORE PUSH1 0x24 PUSH0 REVERT JUMPDEST PUSH0 PUSH2 0x402 DUP3 PUSH2 0x3C2 JUMP JUMPDEST SWAP2 POP PUSH2 0x40D DUP4 PUSH2 0x3C2 JUMP JUMPDEST SWAP3 POP DUP3 DUP3 ADD SWAP1 POP DUP1 DUP3 GT ISZERO PUSH2 0x425 JUMPI PUSH2 0x424 PUSH2 0x3CB JUMP JUMPDEST JUMPDEST SWAP3 SWAP2 POP POP JUMP INVALID LOG2 PUSH5 0x6970667358 0x22 SLT KECCAK256 MSTORE8 BLOBBASEFEE SHL 0xFC PUSH23 0x6A794F2929089BEC61F435A957D3F8F619C57209178E31 0xDF 0x2E CALLDATASIZE LOG1 PUSH5 0x736F6C6343 STOP ADDMOD XOR STOP CALLER "
				},
				"gasEstimates": {
					"creation": {
						"codeDepositCost": "224200",
						"executionCost": "267",
						"totalCost": "224467"
					},
					"external": {
						"verify(bytes,bytes)": "infinite"
					}
				},
				"methodIdentifiers": {
					"verify(bytes,bytes)": "f7e83aee"
				}
			},
			"storageLayout": {
				"storage": [],
				"types": null
			},
			"userdoc": {
				"kind": "user",
				"methods": {},
				"version": 1
			}
		}
	}
}