{
	"data": {
		"bytecode": {
			"linkReferences": {},
			"object": "608060405234801561000f575f80fd5b506101ba8061001d5f395ff3fe608060405234801561000f575f80fd5b5060043610610029575f3560e01c8063f7e83aee1461002d575b5f80fd5b610047600480360381019061004291906100d3565b61005d565b604051610054919061016b565b60405180910390f35b5f60019050949350505050565b5f80fd5b5f80fd5b5f80fd5b5f80fd5b5f80fd5b5f8083601f84011261009357610092610072565b5b8235905067ffffffffffffffff8111156100b0576100af610076565b5b6020830191508360018202830111156100cc576100cb61007a565b5b9250929050565b5f805f80604085870312156100eb576100ea61006a565b5b5f85013567ffffffffffffffff8111156101085761010761006e565b5b6101148782880161007e565b9450945050602085013567ffffffffffffffff8111156101375761013661006e565b5b6101438782880161007e565b925092505092959194509250565b5f8115159050919050565b61016581610151565b82525050565b5f60208201905061017e5f83018461015c565b9291505056fea2646970667358221220601f9d2db1448e2e2c67d2d171af34b22f70f9945d90459edba4c66acb36fc9b64736f6c63430008180033",
			"opcodes": "PUSH1 0x80 PUSH1 0x40 MSTORE CALLVALUE DUP1 ISZERO PUSH2 0xF JUMPI PUSH0 DUP1 REVERT JUMPDEST POP PUSH2 0x1BA DUP1 PUSH2 0x1D PUSH0 CODECOPY PUSH0 RETURN INVALID PUSH1 0x80 PUSH1 0x40 MSTORE CALLVALUE DUP1 ISZERO PUSH2 0xF JUMPI PUSH0 DUP1 REVERT JUMPDEST POP PUSH1 0x4 CALLDATASIZE LT PUSH2 0x29 JUMPI PUSH0 CALLDATALOAD PUSH1 0xE0 SHR DUP1 PUSH4 0xF7E83AEE EQ PUSH2 0x2D JUMPI JUMPDEST PUSH0 DUP1 REVERT JUMPDEST PUSH2 0x47 PUSH1 0x4 DUP1 CALLDATASIZE SUB DUP2 ADD SWAP1 PUSH2 0x42 SWAP2 SWAP1 PUSH2 0xD3 JUMP JUMPDEST PUSH2 0x5D JUMP JUMPDEST PUSH1 0x40 MLOAD PUSH2 0x54 SWAP2 SWAP1 PUSH2 0x16B JUMP JUMPDEST PUSH1 0x40 MLOAD DUP1 SWAP2 SUB SWAP1 RETURN JUMPDEST PUSH0 PUSH1 0x1 SWAP1 POP SWAP5 SWAP4 POP POP POP POP JUMP JUMPDEST PUSH0 DUP1 REVERT JUMPDEST PUSH0 DUP1 REVERT JUMPDEST PUSH0 DUP1 REVERT JUMPDEST PUSH0 DUP1 REVERT JUMPDEST PUSH0 DUP1 REVERT JUMPDEST PUSH0 DUP1 DUP4 PUSH1 0x1F DUP5 ADD SLT PUSH2 0x93 JUMPI PUSH2 0x92 PUSH2 0x72 JUMP JUMPDEST JUMPDEST DUP3 CALLDATALOAD SWAP1 POP PUSH8 0xFFFFFFFFFFFFFFFF DUP2 GT ISZERO PUSH2 0xB0 JUMPI PUSH2 0xAF PUSH2 0x76 JUMP JUMPDEST JUMPDEST PUSH1 0x20 DUP4 ADD SWAP2 POP DUP4 PUSH1 0x1 DUP3 MUL DUP4 ADD GT ISZERO PUSH2 0xCC JUMPI PUSH2 0xCB PUSH2 0x7A JUMP JUMPDEST JUMPDEST SWAP3 POP SWAP3 SWAP1 POP JUMP JUMPDEST PUSH0 DUP1 PUSH0 DUP1 PUSH1 0x40 DUP6 DUP8 SUB SLT ISZERO PUSH2 0xEB JUMPI PUSH2 0xEA PUSH2 0x6A JUMP JUMPDEST JUMPDEST PUSH0 DUP6 ADD CALLDATALOAD PUSH8 0xFFFFFFFFFFFFFFFF DUP2 GT ISZERO PUSH2 0x108 JUMPI PUSH2 0x107 PUSH2 0x6E JUMP JUMPDEST JUMPDEST PUSH2 0x114 DUP8 DUP3 DUP9 ADD PUSH2 0x7E JUMP JUMPDEST SWAP5 POP SWAP5 POP POP PUSH1 0x20 DUP6 ADD CALLDATALOAD PUSH8 0xFFFFFFFFFFFFFFFF DUP2 GT ISZERO PUSH2 0x137 JUMPI PUSH2 0x136 PUSH2 0x6E JUMP JUMPDEST JUMPDEST PUSH2 0x143 DUP8 DUP3 DUP9 ADD PUSH2 0x7E JUMP JUMPDEST SWAP3 POP SWAP3 POP POP SWAP3 SWAP6 SWAP2 SWAP5 POP SWAP3 POP JUMP JUMPDEST PUSH0 DUP2 ISZERO ISZERO SWAP1 POP SWAP2 SWAP1 POP JUMP JUMPDEST PUSH2 0x165 DUP2 PUSH2 0x151 JUMP JUMPDEST DUP3 MSTORE POP POP JUMP JUMPDEST PUSH0 PUSH1 0x20 DUP3 ADD SWAP1 POP PUSH2 0x17E PUSH0 DUP4 ADD DUP5 PUSH2 0x15C JUMP JUMPDEST SWAP3 SWAP2 POP POP JUMP INVALID LOG2 PUSH5 0x6970667358 0x22 SLT KECCAK256 PUSH1 0x1F SWAP14 0x2D 0xB1 PREVRANDAO DUP15 0x2E 0x2C PUSH8 0xD2D171AF34B22F70 0xF9 SWAP5 TSTORE SWAP1 GASLIMIT SWAP15 0xDB LOG4 0xC6 PUSH11 0xCB36FC9B64736F6C634300 ADDMOD XOR STOP CALLER "
		},
		"gasEstimates": {
			"creation": {
				"codeDepositCost": "88400",
				"executionCost": "133",
				"totalCost": "88533"
			},
			"external": {
				"verify(bytes,bytes)": "infinite"
			}
		},
		"methodIdentifiers": {
			"verify(bytes,bytes)": "f7e83aee"
		}
	},
	"abi": [
		{
			"inputs": [
				{
					"internalType": "bytes",
					"name": "",
					"type": "bytes"
				},
				{
					"internalType": "bytes",
					"name": "",
					"type": "bytes"
				}
			],
			"name": "verify",
			"outputs": [
				{
					"internalType": "bool",
					"name": "",
					"type": "bool"
				}
			],
			"stateMutability": "pure",
			"type": "function"
		}
	]
}